:100000000C9452010C9491140C946A140C94D7150E
:100010000C94D7150C94D7150C947A010C947A0192
:100020000C947A010C947A010C947A010C947A0164
:100030000C947A010C944F160C947A010C947A016A
:100040000C9420140C947A010C94EE130C94C813A5
:100050000C947A010C947A010C947A010C947A0134
:100060000C94B8140C947A0150756C7365004C6153
:1000700073742041646472657373203A2000416494
:100080006472657373202D2D00202D2000466F7241
:100090006D61742066726F6D20616464723A200035
:1000A0002041646472657373203A00496E6372651F
:1000B0006D656E742041646472657373203A0053F9
:1000C00061766520436F756E746572203A005361E6
:1000D000766520416464726573733A200000000005
:1000E00000240027002A0000000008000201000090
:1000F0000304070000000000000000526561642056
:10010000436F756E746572203A00526561642041D8
:100110006464726573733A00435243204572726F90
:10012000720056616C6964204352433A0054726114
:100130006E736D6974200053657420496E74657226
:1001400076616C3A200053657420436F756E746558
:10015000723A2000446F776E6C696E6B2053697A37
:10016000653A00496E74657276616C203A002043EE
:100170005243203A002041646472657373203A0050
:10018000536176652055696E743332203A200043FE
:100190006F6E6669726D656400436F6E6E65637441
:1001A000696F6E204C6F73742100436F6E6E6563D0
:1001B00074696F6E204C6F737400436F6E66697262
:1001C0006D6174696F6E204661696C6564203A00E8
:1001D0003D3D3D3D3D3D3D3D3D3D3D3D3D3D3D206C
:1001E0004A6F696E204661696C6564003D3D3D3D26
:1001F0003D3D3D3D3D3D3D3D3D3D3D204A6F696EB0
:100200006564005472616E736D6974205061636B34
:10021000657420005472616E736D697420436F6E53
:100220006669726D6564205061636B657400436F2D
:10023000756E746572203A0052656D61696E696E03
:1002400067203A0041636B203A0052656A6F696E1D
:10025000436F756E746572203A00436F756E7465F6
:1002600072203A0000000000230026002900000050
:100270000000250028002B000404040404040404E6
:100280000202020202020303030303030102040841
:1002900010204080010204081020010204081020F0
:1002A0007616A01E11241FBECFEFD8E0DEBFCDBF53
:1002B00013E0A0E0B1E0E8EFF6E402C005900D9293
:1002C000A83BB107D9F727E0A8EBB3E001C01D9226
:1002D000A434B207E1F711E0C1E5D1E004C02197F1
:1002E000FE010E946820C035D107C9F70E94F817A7
:1002F0000C946F230C940000E0EEF4E0A089B18927
:1003000082E08C93A089B1891C92A485B5851C924A
:10031000A685B78580E18C93108EA489B58986E087
:100320008C93A289B3898C9180618C93A289B389C3
:100330008C9188608C93A289B3898C9180688C930E
:100340000288F389E02D80818F7D80830895FC01F0
:10035000E60FF11DAAECB6E018968C9118978083F1
:1003600017968C911797818316968C911697828396
:1003700015968C91838384E00895FC0145E090E01C
:100380008CE8415089F0619158E0792F7627292F28
:1003900030E035952795922F70FF02C0982F922755
:1003A0006695515091F7EDCF892F0895EF92FF9206
:1003B0000F931F93CF93DF938C017B01D0E0C0E0BC
:1003C000F701EC0FFD1F6491662361F0D801ED91F8
:1003D000FC910190F081E02DC8010995892B11F065
:1003E0002196EECFCE01DF91CF911F910F91FF901B
:1003F000EF900895AF92BF92CF92DF92EF92FF926B
:100400000F931F93CF93DF936C017B018B01040F3C
:10041000151FEB015E01AE18BF08C017D10759F0D8
:100420006991D601ED91FC910190F081E02DC6011A
:100430000995892B79F7C501DF91CF911F910F9114
:10044000FF90EF90DF90CF90BF90AF900895089508
:1004500008950895FC01538D448D252F30E0842F9D
:1004600090E0821B930B541710F0CF9608950197DC
:100470000895FC01918D828D981761F0A28DAE0FC9
:10048000BF2FB11D5D968C91928D9F5F9F73928F50
:1004900090E008958FEF9FEF0895FC01918D828D7C
:1004A000981731F0828DE80FF11D858D90E0089549
:1004B0008FEF9FEF0895FC01918D228D892F90E0A1
:1004C000805C9F4F821B91098F739927089580EE5E
:1004D00094E00E945B0221E0892B09F420E0822F46
:1004E000089580E090E0892B29F00E946702811135
:1004F0000C9400000895FC01A48DA80FB92FB11D24
:10050000A35ABF4F2C91848D90E001968F73992749
:10051000848FA689B7892C93A089B1898C91837027
:1005200080648C93938D848D981306C00288F38920
:10053000E02D80818F7D80830895EF92FF920F934D
:100540001F93CF93DF93EC0181E0888F9B8D8C8D7F
:1005500098131AC0E889F989808185FF15C09FB773
:10056000F894EE89FF896083E889F9898081837036
:10057000806480839FBF81E090E0DF91CF911F91E5
:100580000F91FF90EF900895F62E0B8D10E00F5F06
:100590001F4F0F731127E02E8C8D8E110CC00FB6DC
:1005A00007FCFACFE889F989808185FFF5CFCE0174
:1005B0000E947B02F1CFEB8DEC0FFD2FF11DE35A72
:1005C000FF4FF0829FB7F8940B8FEA89FB898081F7
:1005D0008062CFCFCF93DF93EC01888D8823B9F071
:1005E000AA89BB89E889F9898C9185FD03C080813E
:1005F00086FD0DC00FB607FCF7CF8C9185FFF2CFBB
:10060000808185FFEDCFCE010E947B02E9CFDF9193
:10061000CF91089590E0FC01E951FF4F2491FC0136
:10062000E457FD4F3491FC01E858FD4FE491EE236F
:10063000C9F0222339F0233001F1A8F4213019F157
:10064000223029F1F0E0EE0FFF1FE259FD4FA59196
:10065000B4918FB7F894EC91611126C030953E2388
:100660003C938FBF08952730A9F02830C9F024307B
:1006700049F7809180008F7D03C0809180008F7743
:1006800080938000DFCF84B58F7784BDDBCF84B5C6
:100690008F7DFBCF8091B0008F778093B000D2CF59
:1006A0008091B0008F7DF9CF3E2BDACFCF93DF93CF
:1006B00090E0FC01E457FD4F249188589D4FFC01C8
:1006C00084918823C9F090E0880F991FFC01E352C0
:1006D000FF4FA591B491FC01E259FD4FC591D49112
:1006E00061110DC09FB7F8948C91209582238C9353
:1006F0008881282328839FBFDF91CF91089562309E
:1007000051F49FB7F8943C91822F809583238C936A
:10071000E8812E2BEFCF8FB7F894EC912E2B2C93F2
:100720008FBFEACF3FB7F894809161049091620443
:10073000A0916304B091640426B5A89B05C02F3F27
:1007400019F00196A11DB11D3FBFBA2FA92F982FF7
:100750008827BC01CD01620F711D811D911D42E0F2
:10076000660F771F881F991F4A95D1F708958F92BA
:100770009F92AF92BF92CF92DF92EF92FF924B0186
:100780005C010E9492036B017C010E9492036C1930
:100790007D098E099F09683E734081059105A8F384
:1007A00021E0821A9108A108B10888EEC80E83E002
:1007B000D81EE11CF11C81149104A104B10429F795
:1007C000FF90EF90DF90CF90BF90AF909F908F9071
:1007D00008952FB7F89460915D0470915E04809144
:1007E0005F04909160042FBF0895CF92DF92EF9243
:1007F000FF920F931F93CF93DF930E94E9036B0146
:100800007C0180EE94E00E945B02892B89F0C0910C
:100810008905D0918A05E881F9810081118180EEF6
:1008200094E00E943902682FCE01F8010995E9CFC2
:100830000E94E9036C197D098E099F09693E734086
:1008400081059105F0F2DF91CF911F910F91FF90FB
:10085000EF90DF90CF9008954F925F926F927F92CA
:100860008F929F92AF92BF92EF92FF920F931F933E
:10087000CF93DF937C01C62F0E94E9034B015C01FB
:1008800088EE93E0C89F2001C99F500C1124052CCD
:10089000000C66087708D0E0C0E0A895CF3FD105EE
:1008A00009F0ACF487010C0F1D1FE801CE19DF0918
:1008B00080EE94E00E945B02892B49F080EE94E088
:1008C0000E943902F80181938F01A895EECF0E9412
:1008D000E903681979098A099B09461657066806CB
:1008E0007906D8F6CE01DF91CF911F910F91FF903D
:1008F000EF90BF90AF909F908F907F906F905F90A0
:100900004F90089520913904260F3327331F213249
:100910003105ECF42091B604FC0190E080E0243035
:1009200069F082E00895A09139042191AC01475EFD
:100930005B4FA40FB52FB11D2C930196861798F32A
:1009400080913904680F6093390480E0089581E054
:1009500008951092B60481E08093B504109290043B
:1009600061E082E10E940A0361E083E10E940A03E0
:10097000E9EBF0E080818E7F808380818D7F8083B2
:1009800088E48093B80085E48093BC000895CF93F9
:10099000DF9391E0909318048823B9F0C091B800D8
:1009A000D091BA008091BC008A7B8093BC0060E04B
:1009B00082E10E940A0360E083E10E940A030E9430
:1009C000A904D093BA00C093B800DF91CF910895E5
:1009D0008F929F92AF92BF92CF92DF92EF92FF924F
:1009E0000F931F93CF93DF93D091DF04D13208F0A0
:1009F000D7C0182FC091DE040E9492036B017C01C6
:100A00008091B60481116BC082E08093B60410938C
:100A1000B5048FEF8093B4041092B304D093B20462
:100A2000AEEBB4E0E2E9F4E080E0D81391C01092BC
:100A3000910480919104CC0FC82BC09391048091B4
:100A40009004813009F088C0109290040E949203B3
:100A50006B017C01809191048093BB008091B8046C
:100A60009091B904A091BA04B091BB04892B8A2B50
:100A70008B2BA1F00E9492030091B8041091B9044D
:100A80002091BA043091BB046C197D098E099F092D
:100A9000061717072807390708F442C08091BC00E1
:100AA00083FDD8CF85EC8093BC000E9492036B013C
:100AB0007C018091B604823009F450C08091B40466
:100AC0008F3F09F46FC08091B404803209F46CC088
:100AD0008091B404803309F469C084E026C0809119
:100AE000B8049091B904A091BA04B091BB04892BC9
:100AF0008A2B8B2B09F484CF0E9492038090B80438
:100B00009090B904A090BA04B090BB046C197D0910
:100B10008E099F0986169706A806B90608F070CFB9
:100B20008091B7040E94C70485E01092BD04109222
:100B3000DF041092BC04DF91CF911F910F91FF90C1
:100B4000EF90DF90CF90BF90AF909F908F900895DF
:100B50009D9191938F5F69CF85EEA5CF8091B80469
:100B60009091B904A091BA04B091BB04892B8A2B4F
:100B70008B2B09F49ECF0E9492030091B804109130
:100B8000B9042091BA043091BB046C197D098E0917
:100B90009F09061717072807390708F08ACFC0CF23
:100BA00081E0C3CF80E0C1CF82E0BFCF83E0BDCF83
:100BB0000895E0916E0480916D04E81730F4F0E040
:100BC000E850FC4F808190E008958FEF9FEF0895EB
:100BD00090916E0480916D042FEF3FEF981748F4C9
:100BE000E92FF0E0E850FC4F208130E09F5F9093C8
:100BF0006E04C901089580916D0490916E04891B63
:100C0000990B0895CF92DF92EF92FF920F931F936B
:100C1000CF93DF937C01CB018A012091BC04222376
:100C200089F0EB016B01C40ED51ECC15DD0569F012
:100C30006991D701ED91FC910190F081E02DC70100
:100C40000995F3CF642F0E948204C801DF91CF91F0
:100C50001F910F91FF90EF90DF90CF900895CF9369
:100C6000DF931F92CDB7DEB769832091BC042223A6
:100C7000F9F02091DF04203258F021E030E0FC014F
:100C80003383228390E080E00F90DF91CF9108952D
:100C90008091BD04E82FF0E0E254FB4F99819083EE
:100CA0008F5F8093BD048093DF0481E090E0ECCF00
:100CB00061E0CE0101960E948204F7CFCF93C82F46
:100CC000692F8DE795E00E942F066C2F8DE795E048
:100CD000CF910C942F062091670430916804281757
:100CE000390771F49091650480916604981741F07A
:100CF000E0916504F0E0E854FC4F808190E00895B5
:100D00008FEF9FEF0895EF92FF920F931F93CF9372
:100D1000DF93DC015C96ED90FC905D97E114F104AB
:100D200079F481E090E013969C938E93129790E073
:100D300080E0DF91CF911F910F91FF90EF90089588
:100D40005196ED91FC91529750968C915097982F17
:100D500090950FB75E962C915E97122F127021FD21
:100D60006095F8942081112319F1282B2083E70145
:100D70002197F1F728E0462F50E0308160FF1AC03C
:100D8000382B3083E7012197F1F7BA017595679504
:100D9000215089F7112381F08081892380830FBF3F
:100DA0005C968D919C910197F1F781E090E0C1CF25
:100DB0002923DCCF3923E5CF9081892BEFCF2091F8
:100DC0006704309168042817390771F4809166042C
:100DD0002091650490E0805C9F4F821B910960E444
:100DE00070E00E941320089590E080E00895209123
:100DF00067043091680428173907B9F490916504A5
:100E000080916604981789F0E0916504F0E0E85459
:100E1000FC4F80812091650430E02F5F3F4F2F739E
:100E200033272093650490E008958FEF9FEF089596
:100E300090E080E0089508952F923F924F925F9244
:100E40006F927F928F929F92AF92BF92CF92DF92DA
:100E5000EF92FF920F931F93CF93DF9300D000D0B8
:100E600000D0CDB7DEB77B012A01CB01807C861B89
:100E7000970B805C9F4F9A8389838530910534F06E
:100E800083708983811102C094E099839981892FAD
:100E900090E09E838D838217930708F073C0281B10
:100EA000390B1901E3E02E22332436952795369528
:100EB00027953901F2E06F0E711CB12CA12C10E0C6
:100EC00000E09301215031093C832B83CD80DE80EB
:100ED0000115110549F08B819C81610180179107F3
:100EE00019F084E0C82ED12C91E09093BC04E0E589
:100EF000E093DE041092BD041092DF04C7010E944B
:100F00005E0642018A0C9B1C9A828982F4016191DF
:100F10004F018DE795E00E942F065401A418B508F3
:100F2000C40129813A81821B930B8C159D0574F3B2
:100F300081E00E94E804EC0CFD1C64E170E080E0BC
:100F400090E00E94B7030F5F1F4F6016710609F013
:100F5000BDCF26960FB6F894DEBF0FBECDBFDF9192
:100F6000CF911F910F91FF90EF90DF90CF90BF90A6
:100F7000AF909F908F907F906F905F904F903F9039
:100F80002F900895312C212C66246394712C95CFD9
:100F90008F929F92AF92BF92DF92EF92FF920F9348
:100FA0001F93CF93DF93CB01D42ED52F790121E06E
:100FB0002093BC0420E52093DE041092BD0410921F
:100FC000DF040E945E0681E00E94E8040E94920312
:100FD0004B015C018091B604811165C0CE2D81E08A
:100FE0008093B6048093B5049FEF9093B40410925D
:100FF000B3049E0D9093B204809391048091910468
:10100000806A8093910480919004813009F094C0AB
:10101000109290040E9492034B015C018091910414
:101020008093BB008091B8049091B904A091BA0458
:10103000B091BB04892B8A2B8B2BA1F00E949203C9
:101040000091B8041091B9042091BA043091BB0406
:10105000681979098A099B090617170728073907AC
:1010600008F442C08091BC0083FDD8CF85EC80930A
:10107000BC000E9492034B015C018091B604813058
:1010800009F45CC08091B3048C1710F4C091B304D0
:10109000A2E9B4E0E8EFF3E080E08C1751F19D9114
:1010A00091938F5FFACF8091B8049091B904A09189
:1010B000BA04B091BB04892B8A2B8B2B09F48ACFFD
:1010C0000E9492030091B8041091B9042091BA04CF
:1010D0003091BB04681979098A099B09061717071B
:1010E0002807390708F076CF8091B7040E94C7041B
:1010F000C0E010926E04C0936D040D2D1D2FE00E04
:10110000F11E80916E04C81731F08DE795E00E94C2
:10111000E805F80180830F5F1F4FE016F10689F79D
:10112000DF91CF911F910F91FF90EF90DF90BF90D3
:10113000AF909F908F90089585EE99CF8091B804DD
:101140009091B904A091BA04B091BB04892B8A2B69
:101150008B2B09F492CF0E9492030091B804109156
:10116000B9042091BA043091BB04681979098A093D
:101170009B09061717072807390708F07ECFB4CF59
:10118000CF93DF93EC0184E1FE0111928A95E9F798
:10119000188280E86115710509F080E488838091E8
:1011A000CE06882319F08881806288838091E006CA
:1011B0009091E10681309105A9F58881806188834D
:1011C0008091CA069091CB068130910581F5888186
:1011D00084608883672BB1F519828091D7068A8352
:1011E00063E0CE010E94A701E3E0E80FEC0FFD2FC2
:1011F000F11D9091D60690839091D50691839091A0
:10120000D40692839091D3069383895FC80FD11D32
:101210009091DD0698839091DC0699838E5FDF9133
:10122000CF910895892B61F688818860C8CF82307C
:10123000910519F488818260CCCF039759F6888193
:101240008160C7CF8091DB0689838091DA068A832B
:101250008091D9068B838091D8068C8365E0CE017E
:101260000E94A7018B5FD2CF85E297E090938A0519
:1012700080938905EBE8F5E080E091E0DF019C01D7
:101280001D9221503040E1F70E947C0161E086E030
:101290000E94560361E086E00E940A0368EC70E059
:1012A00080E090E00C94B703FB0101900020E9F787
:1012B0003197AF01461B570BDC01ED91FC91028089
:1012C000F381E02D099464EB71E00C9454090F93C1
:1012D0001F93CF93DF93EC010E94D6018C01CE01C6
:1012E0000E946309800F911FDF91CF911F910F9191
:1012F00008958F929F92AF92BF92EF92FF920F93B9
:101300001F93CF93DF93CDB7DEB7A1970FB6F894B5
:10131000DEBF0FBECDBF7C01FA01CB0119A2223086
:1013200008F42AE08E010F5D1F4F822E912CB12C04
:10133000A12CBF01A50194010E942720F901CA0137
:101340006A300CF5605DD8016E938D01232B242B40
:10135000252B79F790E080E0109721F0BD01C701BF
:101360000E945409A1960FB6F894DEBF0FBECDBF00
:10137000DF91CF911F910F91FF90EF90BF90AF90B1
:101380009F908F900895695CDECFAB0170E060E0C4
:101390002AE00C9479090F931F93CF93DF93EC010C
:1013A0000E94C5098C01CE010E946309800F911F24
:1013B000DF91CF911F910F910895BF92CF92DF924D
:1013C000EF92FF920F931F93CF93DF9300D000D043
:1013D00000D0CDB7DEB78C01B42EC52ED62EE72EA9
:1013E00079836A835B834C83CE0101960E94BD01A1
:1013F000F82E1D828E8326E030E0AE014F5F5F4FF6
:1014000070E060E0F801828193810E941C0760E82F
:1014100071E0F801808191810E94D6012AE04B2D74
:101420005C2D6D2D7E2DF801808191810E947909BE
:1014300065E771E0F801808191810E94D60170E03A
:1014400060E0F801808191810E94C5096EE671E03B
:10145000F801808191810E94D6016F2D70E0F80122
:10146000808191810E94CB0926960FB6F894DEBF49
:101470000FBECDBFDF91CF911F910F91FF90EF90E5
:10148000DF90CF90BF900895CF92DF92EF92FF92BE
:101490000F931F93CF93DF9377FF21C06A017B01E6
:1014A000EC01E881F9810190F081E02D6DE2099570
:1014B0008C0144275527BA014C195D096E097F0933
:1014C0002AE0CE010E947909800F911FDF91CF9110
:1014D0001F910F91FF90EF90DF90CF9008952AE039
:1014E000DF91CF911F910F91FF90EF90DF90CF9000
:1014F0000C9479090F931F93CF93DF93EC01AB0109
:10150000770F660B770B0E94440A8C01CE010E9474
:101510006309800F911FDF91CF911F910F91089563
:101520000F931F93CF93DF93EC012AE00E94790978
:101530008C01CE010E946309800F911FDF91CF9132
:101540001F910F910895CF92DF92EF92FF920F9328
:101550001F93CF93DF9300D000D0CDB7DEB78C01BF
:101560006A017B01F9826A83DB824C836BEA70E05B
:10157000FC01808191810E94D601F801648175810E
:10158000808191810E94C509F8018481958104962A
:10159000883EF3E09F0708F049C0F80195838483F3
:1015A00060EA70E0808191810E94D601F801648137
:1015B0007581808191810E94CB096EEC70E0F80109
:1015C000808191810E94D601F801648175818081BA
:1015D00091810E94CB09F801C682D782E086F1860C
:1015E0006481758124E030E0AE014F5F5F4F8281FE
:1015F00093810E941C076FEB70E0F801808191815C
:101600000E94D601A601B701F801808191810E9454
:10161000900A0F900F900F900F90DF91CF911F9134
:101620000F91FF90EF90DF90CF90089588EC90E0BD
:10163000B4CF0F931F93CF93DF938C01D0E0C0E022
:101640006115710519F00E945409EC01C8010E944E
:1016500063098C0F9D1FDF91CF911F910F9108950A
:10166000CF93DF9360E087E00E940A03C2EED6E0EA
:1016700060E471E08AA99BA90E94190B1AA2DF916C
:10168000CF9108956AE471E08091890590918A056F
:101690000E94190B80EE94E00E94EA02E0EEF4E072
:1016A000A289B3898C918F7E8C93A289B3898C9106
:1016B000877F8C93A289B3898C918F778C93A28931
:1016C000B3898C918F7D8C93828D818F61E081E0D5
:1016D0000E94560360E081E00E940A036AE070E025
:1016E00080E090E00E94B70361E081E00E940A037D
:1016F0006AE070E080E090E00E94B7030E947C0105
:1017000065E580EE94E00E949D020C94F50361155E
:10171000710511F00C94540990E080E00895CF9386
:10172000DF9361E089E00E94560361E089E00E9456
:101730000A03C2EED6E081E08AA30E94E9036A8F21
:101740007B8F8C8F9D8F64E571E08AA99BA90E9495
:10175000870B1FA21EA2DF91CF910895CF93DF9335
:1017600061E087E00E94560361E087E00E940A037F
:10177000C2EED6E081E08AA30E94E9036A8F7B8FE4
:101780008C8F9D8F60E671E08AA99BA90E94870BD0
:101790001FA21EA2DF91CF9108952F923F924F92E8
:1017A0005F926F927F928F929F92AF92BF92CF92F1
:1017B000DF92EF92FF920F931F93CF93DF93CDB7FA
:1017C000DEB7CE54D1090FB6F894DEBF0FBECDBF41
:1017D0002D968FAF2D974A015B0128960CAF1DAF58
:1017E0002EAF3FAF2897109290068091E20690911D
:1017F000E306A091E406B091E5062C968CAF9DAF70
:10180000AEAFBFAF2C972090E6063090E7069091E0
:101810008F0624969FAF2497911139C10E94420BE5
:101820000E94340920E4722E8E010F5F1F4FD801F1
:10183000E72D1D92EA95E9F789EB96E09F938F9348
:101840008AE691E09F938F931F930F930E949720B6
:10185000B80180EE94E00E94870BB8018091890561
:1018600090918A050E94870B0E94F503D801E72D0D
:101870001D92EA95E9F788E996E09F938F938EE7AA
:1018800091E09F938F931F930F930E949720B8012D
:1018900080EE94E00E94870B0E94F503D801E72DAB
:1018A0001D92EA95E9F782E991E09F938F9384E98D
:1018B00091E09F938F931F930F930E949720B801FD
:1018C00080EE94E00E94870BB80180918905909189
:1018D0008A050E94870B0E94F503D8011D927A9415
:1018E000E9F71F921F9287EA91E09F938F931F93CE
:1018F0000F930E949720B80180EE94E00E94870B1E
:10190000B8018091890590918A050E94870B0E94F9
:10191000F5030FB6F894DEBF0FBECDBF412C512C9E
:10192000320167EB71E080EE94E00E94870BB30117
:10193000A20180EE94E00E94440A6BE573E080EE21
:1019400094E00E94870B70E060E080EE94E00E94DB
:101950007A0A64E670E080E090E00E94B703A89500
:1019600080EE94E00E945B02892BC9F0009189050A
:1019700010918A05D801ED91FC91208131812F963B
:101980003FAF2EAF2F9780EE94E00E943902682F70
:10199000C8012F96EEADFFAD2F970995E1CFFFEF70
:1019A0004F1A5F0A6F0A7F0A20E142165104610450
:1019B000710409F0B6CFA8956AEC71E080EE94E06E
:1019C0000E94190BEBE8F5E080E091E0DF019C015B
:1019D0001D9221503040E1F76FE0CF010E942C04AE
:1019E0006BE875E08091890590918A050E94190B3A
:1019F0006AEC71E08091890590918A050E94190B2B
:101A00000E94F50368ED71E08BE895E00E947D206F
:101A1000892B09F0FBC063EE71E08BE895E00E9432
:101A20007D20892B09F0F2C06AEE71E08BE895E029
:101A30000E947D20892B09F0E9C06FEE71E08BE8F0
:101A400095E00E947D20892B09F0E0C06AEF71E0EB
:101A50008BE895E00E947D20892B09F0D7C061E0DA
:101A600072E08BE895E00E947D20892B09F4CEC0BE
:101A70006CEE71E085E297E00E94670931E0249600
:101A80003FAF249724968FAD249780938F06809143
:101A90008F06882309F476C18E010F5F1F4F2D96A4
:101AA0009FAD2D979111B9C06AE572E085E297E08C
:101AB0000E94D601B501A40185E297E00E94900A38
:101AC0006AE472E085E297E00E94D60128964CAD68
:101AD0005DAD6EAD7FAD289785E297E00E94900ADC
:101AE00080910807909109079093CB068093CA06CE
:101AF00080910607909107079093E1068093E00696
:101B0000809104078093CE068092CF069092D006F3
:101B1000A092D106B092D20628968CAD9DADAEAD06
:101B2000BFAD28978093D3069093D406A093D50693
:101B3000B093D6063092DD062092DC0680919106A5
:101B40008093D70670E060E0C8010E94C008982E1C
:101B500080910407DE01AF5BBF4F5D01811111C0B1
:101B60002D96BFAD2D97B1110CC08091920690912A
:101B70009306B0E0A0E08C159D05AE05BF0508F406
:101B800071C164E172E085E297E00E946709F501A6
:101B9000118210826AE072E080EE94E00E94870B6E
:101BA00042E050E060E070E080EE94E00E94440A81
:101BB0006BE573E080EE94E00E94870B780196E17C
:101BC000C92E92E0D92E8E2D801B891508F08FC06A
:101BD000D7018D917D011F928F93DF92CF92BF929B
:101BE000AF920E949720B50180EE94E00E94870B8F
:101BF000B5018091890590918A050E9454090F9042
:101C00000F900F900F900F900F90DDCF60ED71E06F
:101C100085E297E00E94670935CF64E472E085E2CF
:101C200097E00E94D6012C964CAD5DAD6EAD7FADB8
:101C30002C9785E297E00E94900A68E372E085E2C3
:101C400097E00E94D601B10185E297E00E94CB099E
:101C50006EE272E085E297E00E94D601B501A40130
:101C600085E297E00E94900A809108079091090709
:101C70009093CB068093CA06809106079091070740
:101C80009093E1068093E006809104078093CE064E
:101C900028968CAD9DADAEADBFAD28978093D30691
:101CA0009093D406A093D506B093D6063092DD0665
:101CB0002092DC068092CF069092D006A092D106A8
:101CC000B092D2062C968CAD9DADAEADBFAD2C972B
:101CD0008093D8069093D906A093DA06B093DB06DA
:101CE000809191068093D70661E070E02DCF8091BE
:101CF000890590918A050E94630980EE94E00E9414
:101D00006309EBE8F5E080E091E0DF019C011D92C2
:101D100021503040E1F76AE0CF010E942C046BE8CB
:101D200075E08091890590918A050E94870B0E9439
:101D3000F5036BE172E08BE895E00E947D20892B32
:101D400041F465E272E08BE895E00E947D20892BEA
:101D500099F161E572E08091890590918A050E9470
:101D6000190B81E0809390061092970610929606C8
:101D700010929306109292066FE871E085E297E068
:101D80000E946709C25BDF4F0FB6F894DEBF0FBE3B
:101D9000CDBFDF91CF911F910F91FF90EF90DF901A
:101DA000CF90BF90AF909F908F907F906F905F90FB
:101DB0004F903F902F900895109290068091960634
:101DC00090919706019690939706809396066AEBFA
:101DD00071E085E297E00E94D601609196067091CD
:101DE000970685E297E00E94CB0980919606909134
:101DF0009706029710F00E94420B809196069091F0
:101E00009706069708F4BECF6AEA71E085E297E08C
:101E10000E946709109297061092960610929306F8
:101E20001092920610928F0682E090E0909309073C
:101E30008093080781E0809313070E94300B109273
:101E4000E7061092E60688E090E0909307078093FB
:101E5000060769E971E085E297E00E9467090C9442
:101E6000000090CF6CE272E085E297E00E94190BCF
:101E700080919206909193060F969093930680938B
:101E8000920663E072E085E297E00E94D6016091DD
:101E900092067091930685E297E00E94CB09D501E6
:101EA0001D921C926FE372E080EE94E00E94870B1B
:101EB0004AE050E060E070E080EE94E00E94440A66
:101EC0006BE573E080EE94E00E94870B780186E179
:101ED000C82E82E0D82E8E2D801B8915F0F4F701D4
:101EE00081917F011F928F93DF92CF92BF92AF9229
:101EF0000E949720B50180EE94E00E94870BB50107
:101F00008091890590918A050E9454090F900F9045
:101F10000F900F900F900F90DECF809189059091D8
:101F20008A050E94630980EE94E00E946309EBE851
:101F3000F5E080E091E0DF019C011D9221503040EE
:101F4000E1F765E0CF010E942C046BE875E0809119
:101F5000890590918A050E94870B0E94F5036BE129
:101F600072E08BE895E00E947D2000918905109138
:101F70008A05892B41F465E272E08BE895E00E94C6
:101F80007D20892BB1F081E08093910661E572E0BC
:101F9000C8010E94190B6DE572E085E297E00E948E
:101FA000870B6091910670E085E297E00E947A0AC3
:101FB000E9CE6DE472E0C8010E94190B0E94420B49
:101FC000EACF2F923F924F925F926F927F928F92C1
:101FD0009F92AF92BF92CF92DF92EF92FF920F93B8
:101FE0001F93CF93DF9300D000D0CDB7DEB78C0125
:101FF0006EE770E0FC01808191810E946709212CCD
:10200000312C210148EC642E712C58ECA52EB12CFA
:10201000CE0101964C01F40184E011928A95E9F712
:1020200024E030E0A401B501F801828193810E948F
:10203000C807C980D12CF12CE12CFC2CEE24DD2426
:10204000CC248A8190E0B0E0A0E0DC0199278827C9
:102050008C0D9D1DAE1DBF1D2C81820F911DA11DDC
:10206000B11DCB80D12CF12CE12CFE2CED2CDC2CE5
:10207000CC24C80ED91EEA1EFB1EB501F8018081D2
:1020800091810E94C5096BE573E0F801808191811F
:102090000E94870BB701A601F801808191810E94FF
:1020A000900AC214D304E404F50440F0C114D1042E
:1020B000E104F10419F0160127013501F4E0AF0E37
:1020C000B11C8CEEA81683E0B80609F0A4CF6EE62A
:1020D00070E0F801808191810E94D601B301F8017E
:1020E000808191810E94CB09F80164827582C68249
:1020F000D782E086F186C3010F900F900F900F906A
:10210000DF91CF911F910F91FF90EF90DF90CF90D3
:10211000BF90AF909F908F907F906F905F904F9007
:102120003F902F900895AF92BF92CF92DF92EF929F
:10213000FF920F931F93CF93DF93CDB7DEB7CA5FA4
:10214000D1090FB6F894DEBF0FBECDBF8C01CE0112
:1021500001965C018AEFF50111928A95E9F788EC06
:10216000E82EF12C6DE870E0F801808191810E94E9
:10217000D601B701F801808191810E94C50969E803
:1021800070E0F801808191810E94D6016701FAEF29
:10219000CF0ED11CB601F801808191810E94CB093C
:1021A0002AEF30E0A501B70183E794E00E941C0705
:1021B000B601F801808191810E94CB097601F0EB94
:1021C000CF16F4E0DF0671F6C8010E94E10FC65099
:1021D000DF4F0FB6F894DEBF0FBECDBFDF91CF91BA
:1021E0001F910F91FF90EF90DF90CF90BF90AF9035
:1021F0000895CF92DF92EF92FF920F931F9368E6BC
:1022000070E085E297E00E946709C0908C04D0904E
:102210008D04E0908E04F0908F040E94E9030091F9
:10222000F0061091F1062091F2063091F306601B42
:10223000710B820B930B693572408105910508F48F
:1022400087C00E94E9036093F4067093F5068093BB
:10225000F6069093F7060E94E9036093F0067093E8
:10226000F1068093F2069093F30680910A07882383
:1022700009F47DC00E94E90360930B0770930C077B
:1022800080930D0790930E0740910B0750910C0718
:1022900060910D0770910E0780910F0790911007C4
:1022A000A0911107B0911207481759076A077B07D9
:1022B000D8F5841B950BA60BB70B853F9140A10564
:1022C000B10590F10E94E9036093F0067093F10666
:1022D0008093F2069093F3068FEFC81AD80AE80AA3
:1022E000F80A8091E6069091E7060097E9F02091C0
:1022F000060730910707232B29F401979093E706EF
:102300008093E6066CE672E08091140790911507C1
:102310000E94870B6091E6067091E7068091140792
:10232000909115070E94CB0980910A0781112AC05C
:1023300080910F0790911007A0911107B09112079B
:1023400080930B0790930C07A0930D07B0930E0793
:10235000C0928C04D0928D04E0928E04F0928F048F
:102360001F910F91FF90EF90DF90CF9008950E9402
:10237000E90360930F077093100780931107909300
:10238000120782CF10920A07E3CF0F931F93CF93C8
:10239000DF938091750481114BC080910607909165
:1023A00007078230910509F419C108F046C000976B
:1023B00009F464C0019709F494C08091040788234C
:1023C000B9F10E94E9030091F4061091F5062091FD
:1023D000F6063091F706601B710B820B930B009190
:1023E000F8061091F9062091FA063091FB060617BF
:1023F000170728073907E0F46EEB72E080911407A5
:10240000909115070E94190B81E090E090930907C5
:1024100080930807809313070E94300B1092E70601
:102420001092E60688E090E09093070780930607F5
:10243000DF91CF911F910F9108958430910509F498
:10244000F2C008F4D2C0059709F0B7CF83E090E05E
:10245000909309078093080781E08093130760E059
:1024600089E00E940A0362EB72E080911407909168
:1024700015070E94190B1092040728C080910407C9
:10248000811110C08091E6069091E706892B51F0EA
:1024900067E772E080911407909115070E94190B6D
:1024A0000E94AE0B80910407882311F28091E6060A
:1024B0009091E706892B09F084CF109209071092BA
:1024C000080781E0809313070E94300B1092E70603
:1024D0001092E60688E090E0909307078093060745
:1024E0006CCF6091EB067091EC068091140790918F
:1024F00015070E94C5096EE173E080911407909161
:1025000015070E94870BC0911407D09115074091C1
:10251000EA0650E070E060E02AE0CE010E9479090E
:10252000CE010E9463096EE872E0809114079091D9
:1025300015070E94870B6091E6067091E70680916F
:102540001407909115070E94CB098091040781110F
:1025500008C08091E6069091E706892B11F00E9451
:10256000AE0B809104078823C9F08091E606909114
:10257000E706892B99F4109209071092080781E069
:10258000809313070E94300B1092E7061092E60624
:1025900088E090E090930707809306078091EA0611
:1025A0008B3320F48F5F8093EA0607CF1092EA0600
:1025B0008091EB069091EC0601969093EC06809347
:1025C000EB068091E6069091E706009709F4F5CEB8
:1025D00001979093E7068093E606EFCE83E090E0C4
:1025E00090930907809308076CCF809104078111AD
:1025F00010C08091E8069091E906892B51F069E9B5
:1026000072E080911407909115070E94190B0E94A7
:102610008F0B80910407882309F40ACF8091E80684
:102620009091E90647CF6091EE067091EF06809198
:102630001407909115070E94C5096EE173E080911F
:102640001407909115070E94870BC0911407D09131
:1026500015074091ED0650E070E060E02AE0CE0101
:102660000E947909CE010E9463096EE872E08091B0
:102670001407909115070E94870B6091E8067091EE
:10268000E90680911407909115070E94CB0980916B
:102690000407811108C08091E8069091E906892B12
:1026A00011F00E948F0B809104078823C9F080915C
:1026B000E8069091E906892B99F410920907109287
:1026C000080781E0809313070E94300B1092E70601
:1026D0001092E60688E090E0909307078093060743
:1026E0008091ED068B3320F48F5F8093ED0665CEED
:1026F0001092ED068091EE069091EF060196909370
:10270000EF068093EE068091E8069091E906009727
:1027100009F453CE01979093E9068093E8064DCED5
:1027200085ED8093BC008091B8049091B904A0918C
:10273000BA04B091BB040796A11DB11D23E0B69564
:10274000A795979587952A95D1F72091BC0024FDF0
:1027500003C01092B60408954091B8045091B90492
:102760006091BA047091BB04452B462B472B69F34B
:102770000097A105B10541F025E32A95F1F7000086
:102780000197A109B109E1CF8091B7040C94C70466
:102790001F920F920FB60F9211242F933F934F93D6
:1027A0005F936F937F938F939F93AF93BF93EF93B9
:1027B000FF9380EE94E00E947B02FF91EF91BF9126
:1027C000AF919F918F917F916F915F914F913F91C9
:1027D0002F910F900FBE0F901F9018951F920F9280
:1027E0000FB60F9211242F938F939F93EF93FF9324
:1027F000E091F004F091F1048081E091F604F09111
:10280000F70482FD1BC090818091F9048F5F8F7364
:102810002091FA04821741F0E091F904F0E0E052CF
:10282000FB4F958F8093F904FF91EF919F918F91CA
:102830002F910F900FBE0F901F9018958081F4CFAD
:102840001F920F920FB60F9211242F933F938F93E5
:102850009F93AF93BF9380915D0490915E04A0918C
:102860005F04B091600430915C0423E0230F2D37A6
:1028700058F50196A11DB11D20935C0480935D0461
:1028800090935E04A0935F04B09360048091610410
:1028900090916204A0916304B09164040196A11D1B
:1028A000B11D8093610490936204A0936304B0937C
:1028B0006404BF91AF919F918F913F912F910F90A1
:1028C0000FBE0F901F90189526E8230F0296A11DAA
:1028D000B11DD2CF1F920F920FB60F9211242F93DA
:1028E0003F934F935F936F937F938F939F93AF9398
:1028F000BF93EF93FF93E0910401F09105010995D7
:10290000FF91EF91BF91AF919F918F917F916F91C7
:102910005F914F913F912F910F900FBE0F901F909D
:1029200018951F920F920FB60F9211242F933F9379
:102930004F935F936F937F938F939F93AF93BF93C7
:10294000EF93FF93E0910201F09103010995FF914C
:10295000EF91BF91AF919F918F917F916F915F9117
:102960004F913F912F910F900FBE0F901F90189590
:102970001F920F920FB60F9211242F933F934F93F4
:102980005F936F937F938F939F93AF93BF93EF93D7
:10299000FF938091B900887F803609F44AC0F0F532
:1029A000883209F4A7C018F5803109F49BC0B8F447
:1029B000882309F4F9C0883009F494C0FF91EF919D
:1029C000BF91AF919F918F917F916F915F914F9147
:1029D0003F912F910F900FBE0F901F901895883147
:1029E00009F488C0803251F78093B40414C0803455
:1029F00009F49DC040F48033B9F38833F9F680932D
:102A0000B40485ECB0C0803509F485C0883509F47C
:102A100096C0883499F60E949013D0CF883909F473
:102A20008CC038F5883729F050F4883611F080379B
:102A300029F683E08093B60410925B0457C088386F
:102A400009F47BC0803919F0803809F0B7CF809144
:102A50005B04803208F071C0E0915B0481E08E0F6E
:102A600080935B048091BB00F0E0E55CFB4F8083CA
:102A70003DC0803B39F0E0F4803A09F479C0883AEF
:102A800009F09CCF84E08093B60410923A0410922F
:102A90003904E0916B04F0916C040995809139043C
:102AA00081110FC081E0809339041092190409C08C
:102AB000803C09F4A6CF883C09F4A3CF883B09F0F9
:102AC0007DCFE0913A0481E08E0F80933A04F0E0EC
:102AD000E75EFB4F80818093BB0090913A04809128
:102AE000390429C0809191048093BB0085EC8093C8
:102AF000BC0064CF9091B3048091B204981758F54C
:102B0000E091B30481E08E0F8093B304F0E0EE56C1
:102B1000FB4F8081E9CFE091B30481E08E0F809379
:102B2000B3048091BB00F0E0EE56FB4F80839091A0
:102B3000B3048091B2049817C8F285E8D8CFE09129
:102B4000B30481E08E0F8093B3048091BB00F0E06A
:102B5000EE56FB4F80838091B50481115CCF81E0FC
:102B60008093900484EA8093BC001092B60426CF30
:102B700085EC8093BC001092B60480915B04803297
:102B800030F4E0915B04F0E0E55CFB4F1082609173
:102B90005B0470E0E0916904F0916A048BE394E0D7
:102BA000099510925B040ACF1092B40434CF1F929F
:102BB0000F920FB60F9211242F933F934F935F9371
:102BC0006F937F938F939F93AF93BF93EF93FF93F5
:102BD000E0916704F0916804309749F0A685B785C5
:102BE0008585968D91FF14C09C918923A1F4FF9156
:102BF000EF91BF91AF919F918F917F916F915F9175
:102C00004F913F912F910F900FBE0F901F901895ED
:102C10009C91892361F7A389B4899C9185898095CA
:102C200089238C93868997890197F1F7608D718D3F
:102C3000A685B785558538E020E0CB010197F1F7EF
:102C4000822F90E095958795282F4C91452309F088
:102C50002068315091F7868D81FD20958091660422
:102C600090E001968F73992730916504381799F099
:102C7000A0916604B0E0A854BC4F2C9380936604E6
:102C8000828D938D0197F1F7A389B4898C919589F1
:102C9000892B8C93ACCF868D8160868FF1CF1F926C
:102CA0000F920FB60F9211242F933F934F935F9380
:102CB0006F937F938F939F93AF93BF93EF93FF9304
:102CC000E0910001F09101010995FF91EF91BF9111
:102CD000AF919F918F917F916F915F914F913F91B4
:102CE0002F910F900FBE0F901F9018951092E30434
:102CF0001092E20448EE53E060E070E04093E40498
:102D00005093E5046093E6047093E7048EE091E04D
:102D10009093E1048093E00485EC90E09093ED04BF
:102D20008093EC0484EC90E09093EF048093EE04A5
:102D300080EC90E09093F1048093F00481EC90E0BB
:102D40009093F3048093F20482EC90E09093F50466
:102D50008093F40486EC90E09093F7048093F6045B
:102D60001092F9041092FA041092FB041092FC04E1
:102D70001092800510927F05409381055093820543
:102D8000609383057093840580E291E090937E05C3
:102D900080937D0510928C0610928B0610928F0600
:102DA000109290061092910610929306109292063D
:102DB000109295061092940610929706109296061D
:102DC00081E2EFECF2E0A8E9B6E001900D928A957D
:102DD000E1F781E1E0EFF2E0A9EBB6E001900D92BE
:102DE0008A95E1F71092CE061092CF061092D00687
:102DF0001092D1061092D2061092D3061092D406E9
:102E00001092D5061092D6061092D7061092D806C8
:102E10001092D9061092DA061092DB061092DD06A7
:102E20001092DC061092E2061092E3061092E4067D
:102E30001092E5061092E7061092E6061092E90657
:102E40001092E8061092EA061092EC061092EB0639
:102E50001092ED061092EF061092EE061092F00618
:102E60001092F1061092F2061092F3061092F406F8
:102E70001092F5061092F6061092F70680E497E796
:102E8000ABE1B0E08093F8069093F906A093FA06C0
:102E9000B093FB061092FC061092FD061092FE06FF
:102EA0001092FF061092000710920107109202077D
:102EB00010920307109204071092050788E090E033
:102EC000909307078093060791E090930A0710926A
:102ED0000B0710920C0710920D0710920E0710921C
:102EE0000F071092100710921107109212071092FC
:102EF000130710921A0710921B0710921C071092CA
:102F00001D0710921E0710921F07109220071092A3
:102F10002107109222071092230710922407109283
:102F20002807109227074093290750932A07609398
:102F30002B0770932C0722E331E030932607209370
:102F4000250710923C0710923B0710923E07109203
:102F50003D071092400710923F07109242071092CF
:102F60004107809143078E7F8D7F8093430786952D
:102F70008170682F692788E00E940A0361E088E079
:102F80000E945603E4E9F2E0E491E0933507E0E8BB
:102F9000F2E0E491F0E0EE0FFF1FE259FD4F859162
:102FA0009491909337078093360760E086E00E9403
:102FB00056038091430781FD04C061E086E00E94D2
:102FC0000A0386E080933107E2E9F2E0E491E093BE
:102FD0003207EEE7F2E0E491F0E0EE0FFF1FEC596C
:102FE000FD4F859194919093340780933307089512
:102FF000CF93DF93CDB7DEB764970FB6F894DEBFFB
:103000000FBECDBF789484B5826084BD84B58160E5
:1030100084BD85B5826085BD85B5816085BD8091A3
:103020006E00816080936E0010928100809181001B
:103030008260809381008091810081608093810013
:10304000809180008160809380008091B1008460D5
:103050008093B1008091B00081608093B000809136
:103060007A00846080937A0080917A0082608093F5
:103070007A0080917A00816080937A0080917A0052
:10308000806880937A001092C10088E199E20FB6BF
:10309000F894A895809360000FBE9093600061E063
:1030A0008AE00E94560361E08AE00E940A031092BF
:1030B000400710923F0710923E0710923D07109272
:1030C0003C0710923B078DE991E090934207809373
:1030D000410790913107963108F047C02DEB30E061
:1030E00030933C0720933B072BE931E030933E07B8
:1030F00020933D072CE231E03093400720933F07B7
:103100002091680084E0983048F031E09E3008F467
:1031100030E081E001C0880F3A95EAF7822B809376
:1031200068002DE630E0983050F02BE630E09E301D
:1031300030F02CE630E0963110F030E020E03093B3
:10314000390720933807292F30E0983008F079C4E8
:1031500081E001C0880F9A95EAF780933A07809141
:103160004107909142070197F1F780913F079091B5
:103170004007892B49F1E0916704F091680427E04A
:10318000E532F20709F1309739F0A389B4899C91AF
:103190008589809589238C93809143078E7F8093C6
:1031A0004307109266041092650485E297E09093BD
:1031B000680480936704E0913807F09139078081B3
:1031C00090913A07892B808361E073E085E297E074
:1031D0000E94190B0E94340905E217E01093740451
:1031E0000093730410926E0410926D041092BD044B
:1031F0001092DF040E94A90488E292E090936C048C
:1032000080936B0489E292E090936A04809369044E
:10321000109383040093820483E794E090938504E1
:103220008093840482E894E00E94E10F10931507D4
:10323000009314078AEC96E0909317078093160783
:1032400082E894E09093190780931807A895198253
:103250001A821B821C8200918604109187046AE006
:1032600071E080918204909183040E94D601B8019C
:1032700080918204909183040E94CB0924E030E085
:10328000AE014F5F5F4F4A01B80180918404909175
:1032900085040E94C807C980D12CF12CE12CFC2C9C
:1032A000EE24DD24CC244A8150E070E060E0BA01D5
:1032B000552744274C0D5D1D6E1D7F1D8C81480FC9
:1032C000511D611D711D8B8190E0B0E0A0E0CC2408
:1032D000D82EE92EFA2EC40ED51EE61EF71EC09279
:1032E0008804D0928904E0928A04F0928B046BEFF8
:1032F00070E080918204909183040E94D601B7010E
:10330000A60180918204909183040E94900AC09249
:103310008C04D0928D04E0928E04F0928F0486E0AB
:10332000D4011D928A95E9F726E030E0A40170E00F
:1033300060E080918404909185040E94C8074980D0
:10334000512C712C612C742C6624552444248A81C0
:1033500090E0B0E0A0E0DC0199278827840D951D5E
:10336000A61DB71D2C81820F911DA11DB11D4B8083
:10337000512C712C612C762C652C542C4424480E35
:10338000591E6A1E7B1EED80F12CFE2CEE248E81D0
:10339000E80EF11CC4010E94BD01C82ED12C809101
:1033A000820490918304EC14FD0409F057C362E297
:1033B00071E00E94D601B70180918204909183044C
:1033C0000E94C50967E073E08091820490918304B4
:1033D0000E94870BB70180918204909183040E9420
:1033E000CB0911E069E073E080918204909183043D
:1033F0000E94870B2AE0B301A20180918204909180
:1034000083040E94790969E173E0809182049091BC
:1034100083040E94870B612F70E080918204909159
:1034200083040E947A0A112339F0BDE24B16B1E001
:103430005B066104710468F444EB50E060E070E006
:1034400082E894E00E94DD0904EB402E512C612CAF
:10345000712C40927A0450927B0460927C047092AA
:103460007D0460EC78EA80E090E0A30192010E9484
:103470002720CA01B9010E94851F20E030E040E00A
:103480005FE30E94E31E0E944F1F609376047093D7
:103490007704809378049093790460E674E580E083
:1034A00090E0A30192010E942720CA01B9010E9465
:1034B000851F20E030E040E05FE30E94E31E0E94B1
:1034C0004F1F60936F047093700480937104909306
:1034D000720460E273E085E297E00E94870B4091FE
:1034E000760450917704609178047091790485E2B4
:1034F00097E00E94900A67E373E085E297E00E94FC
:10350000870B40916F045091700460917104709129
:10351000720485E297E00E94900A80E18093810026
:103520001092800082E19AE7909387008093860052
:1035300084E18093810085EC91E190930101809377
:10354000000181E080936F0062E083E00E945603F7
:1035500068EE73E080E090E00E94B70389EF90E1AD
:10356000909305018093040180916900837F8460BA
:1035700080936900E99A68EE73E080E090E00E9431
:10358000B70340918C0450918D0460918E0470912A
:103590008F04C0907604D0907704E0907804F09087
:1035A00079040091060110910701209108013091E2
:1035B000090180E00E94CD0BB8E04B2E512C10E0A9
:1035C000612E10E0712E80918C0490918D04A09159
:1035D0008E04B0918F0481309D42A143B14008F424
:1035E00059C210928C0410928D0410928E04109285
:1035F0008F0482E894E00E9493100E94E9030091F6
:103600007E0410917F0420918004309181046B012D
:103610007C01C01AD10AE20AF30A20917A0430919F
:103620007B0440917C0450917D04A8EEB3E00E949D
:1036300049206C157D058E059F0538F08091240783
:10364000882309F442C21092240763E671E085E200
:1036500097E00E94D60140917A0450917B046091DA
:103660007C0470917D0485E297E00E94900A0091AD
:1036700006011091070120910801309109010F5FA7
:103680001F4F2F4F3F4F00930601109307012093C8
:1036900008013093090140918C0450918D04609190
:1036A0008E0470918F04C0907604D0907704E090DF
:1036B0007804F090790480E00E94CD0B0E94E90329
:1036C00060937E0470937F048093800490938104C0
:1036D00084E1D4011D928A95E9F761E08BE895E0D9
:1036E0000E942C046DE573E08BE895E00E947D203C
:1036F0007C01009709F4F5C107960E94BC1EE4E026
:10370000F0E08436910530F4E3E0F0E00A9710F43D
:10371000E2E0F0E0BF016E567A4FEE0DFF1DF12C96
:10372000E12C30E020E020FD34C08085478190ED21
:10373000940F9A3060F09FEB940F963008F4CDC14F
:103740009FE9940F963008F0CAC199EA940FA0ED52
:103750003A2E380EB9E0B31570F44FEB480F59EC20
:10376000352E463038F04FE9480F392E463018F4E0
:1037700049EA342E380E9295907F930D243131050D
:103780002CF4A4014E0D5F1DDA019C93BFEFEB1AE0
:10379000FB0ADB018D91BD018D3019F48C918A30CB
:1037A00041F031962F5F3F4F2115B1E03B0709F003
:1037B000BACFEBE8F5E0DF0140E051E01D92415067
:1037C0005040E1F7E114F10409F49FC051E0E51A1B
:1037D000F10809F49AC081E08093750464E571E012
:1037E00085E297E00E94D601B70185E297E00E944A
:1037F0007A0A8981982F907485FF76C165E673E017
:1038000080911407909115070E94190B92E0A92E40
:10381000B12CB0920707A09206078A8190E0B0E031
:10382000A0E0B82FAA27992788274B8150E070E0A5
:1038300060E0BA0155274427840F951FA61FB71FC4
:103840002D81820F911DA11DB11D4C8150E070E0B2
:1038500060E0762F652F542F4427840F951FA61FF5
:10386000B71F8093E2069093E306A093E406B0931B
:10387000E50682E0A816B10408F095C10E94E903AC
:103880006093F4067093F5068093F6069093F7061E
:103890001092EA061092EC061092EB068E8190E0F0
:1038A000982F88272F81820F911D9093E706809390
:1038B000E606109275040E94E9036B017C010E94E8
:1038C000E9036C197D098E099F09693B7B408105DD
:1038D0009105A8F340918C0450918D0460918E0461
:1038E00070918F04C0907604D0907704E0907804B3
:1038F000F0907904009106011091070120910801D0
:103900003091090181E00E94CD0B80910507882349
:1039100009F40AC2E99887E292E090930501809346
:10392000040110926F0080911A07882309F440C0A7
:1039300066E471E080911407909115070E94D6010A
:1039400040911C0750911D0760911E0770911F0741
:1039500080911407909115070E94900A8091180792
:10396000909119070E949310809118079091190760
:1039700040911C0750911D0760911E0770911F0711
:10398000DC0116960D911D912D913C9119974017D0
:1039900051076207730711F00E94A30A10921A07D9
:1039A00010921C0710921D0710921E0710921F07FD
:1039B00080911B07882371F167E371E08091140700
:1039C000909115070E94D601409120075091210740
:1039D0006091220770912307809114079091150739
:1039E0000E94900A40912007509121076091220780
:1039F0007091230780911807909119070E94DD09A3
:103A0000109220071092210710922207109223078C
:103A100010921B071092050788E090E0909307072B
:103A20008093060766EB73E0809114079091150769
:103A30000E94190B68EE73E080E090E00E94B703EB
:103A4000F1CF9E3040F42850310981E001C0880F49
:103A50002A95EAF782CB2E503109F7CF68E171E061
:103A60000E94D601B60180918204909183040E9445
:103A7000C50967E073E080918204909183040E94FD
:103A8000870BB70180918204909183040E94CB0937
:103A900010E0A8CC40918C0450918D0460918E046C
:103AA00070918F048091880490918904A0918A0478
:103AB000B0918B04481759076A077B0709F49DCD1D
:103AC00082E894E00E94A30A98CD8091130788238E
:103AD00009F4FECD10921307B8CD99EC37CE932D93
:103AE00036CEF12CE12C65CE87FF0BC06AE673E081
:103AF00080911407909115070E94190BB12CA12CED
:103B000088CE992361F069E773E080911407909162
:103B100015070E94190BAA24A394B12C7ACE9A817E
:103B200095FF0CC067E873E080911407909115072A
:103B30000E94190B05E0A02EB12C6BCE97FF0CC094
:103B40006EE873E080911407909115070E94190B9D
:103B500013E0A12EB12C5DCE96FF0CC06FE973E08F
:103B600080911407909115070E94190BB4E0AB2EB9
:103B7000B12C4FCE84FF0CC06FEA73E08091140724
:103B8000909115070E94190BA6E0AA2EB12C41CEE8
:103B900083FF3FCE6DE271E080911407909115078D
:103BA0000E94670936CEC50103970297E0F40E9490
:103BB000E9036093F4067093F5068093F6069093FC
:103BC000F7061092ED061092EF061092EE068E8127
:103BD00090E0982F88272F81820F911D9093E906FE
:103BE0008093E80666CE96E0A916B10409F061CE8E
:103BF000109209071092080781E0809313070E9432
:103C0000300B1092E7061092E6065092070740929A
:103C10000607898191E0282F287083FF90E0909318
:103C20001A0791E0382F347082FF90E090931B07C1
:103C300081E080930507222309F474C08E8190E00F
:103C4000B0E0A0E0B82FAA27992788274F8150E03D
:103C500070E060E0BA0155274427840F951FA61F26
:103C6000B71F2985820F911DA11DB11D488550E008
:103C700070E060E0762F652F542F4427840F951F46
:103C8000A61FB71F80931C0790931D07A0931E07C4
:103C9000B0931F0729E0332309F40BCE30E0F40181
:103CA000E20FF31F808190E0B0E0A0E0B82FAA27D8
:103CB00099278827E4E0F0E0EC0FFD1FE20FF31FE7
:103CC0004081840F911DA11DB11DE2E0F0E0EC0FD9
:103CD000FD1FE20FF31F408150E070E060E0BA0189
:103CE00055274427840F951FA61FB71FE3E0F0E078
:103CF000EC0FFD1F2E0F3F1FF901408150E070E0D7
:103D000060E0762F652F542F4427840F951FA61F40
:103D1000B71F8093200790932107A0932207B093A9
:103D20002307C7CD25E0B7CF6114710409F44BCC4C
:103D30000E946702882309F446CC0E94000043CC0D
:103D400082E391E090932607809325078091670492
:103D5000909168048552974071F4E0913807F09192
:103D60003907908180913A0780958923808310924A
:103D70006804109267040895FC0188279927E89445
:103D800021912032E9F3293010F02E30C8F32B3284
:103D900041F02D3239F4689404C00E94DA1E820F7B
:103DA000911D219120532A30C0F31EF490958195E6
:103DB0009F4F08957AE0979F902D879F802D910DBA
:103DC000112408955058BB27AA270E94FA1E0C946C
:103DD000D91F0E94CB1F38F00E94D21F20F039F467
:103DE0009F3F19F426F40C94C81F0EF4E095E7FBEE
:103DF0000C94C21FE92F0E94EA1F58F3BA176207FA
:103E000073078407950720F079F4A6F50C940C202D
:103E10000EF4E0950B2EBA2FA02D0B01B9019001E5
:103E20000C01CA01A0011124FF27591B99F0593F29
:103E300050F4503E68F11A16F040A22F232F342F71
:103E40004427585FF3CF469537952795A795F040BF
:103E50005395C9F77EF41F16BA0B620B730B840BD4
:103E6000BAF09150A1F0FF0FBB1F661F771F881F8C
:103E7000C2F70EC0BA0F621F731F841F48F48795E4
:103E800077956795B795F7959E3F08F0B0CF9395D6
:103E9000880F08F09927EE0F9795879508950E944F
:103EA000561F6894B1110C940D2008950E94F21FC2
:103EB00088F09F5798F0B92F9927B751B0F0E1F0EB
:103EC000660F771F881F991F1AF0BA95C9F714C09B
:103ED000B13091F00E940C20B1E008950C940C20B8
:103EE000672F782F8827B85F39F0B93FCCF38695D4
:103EF00077956795B395D9F73EF490958095709531
:103F000061957F4F8F4F9F4F0895E89409C097FBAD
:103F10003EF490958095709561957F4F8F4F9F4FA0
:103F20009923A9F0F92F96E9BB279395F6958795E4
:103F300077956795B795F111F8CFFAF4BB0F11F4A7
:103F400060FF1BC06F5F7F4F8F4F9F4F16C088234E
:103F500011F096E911C0772321F09EE8872F762F84
:103F600005C0662371F096E8862F70E060E02AF0C5
:103F70009A95660F771F881FDAF7880F96958795B1
:103F800097F9089597F99F6780E870E060E00895D9
:103F90009FEF80EC089500240A9416161706180661
:103FA0000906089500240A9412161306140605063D
:103FB0000895092E0394000C11F4882352F0BB0FCE
:103FC00040F4BF2B11F460FF04C06F5F7F4F8F4F31
:103FD0009F4F089557FD9058440F551F59F05F3F6C
:103FE00071F04795880F97FB991F61F09F3F79F01B
:103FF00087950895121613061406551FF2CF46959D
:10400000F1DF08C0161617061806991FF1CF86951E
:104010007105610508940895E894BB276627772702
:10402000CB0197F9089597FB072E16F4009407D05B
:1040300077FD09D00E94542007FC05D03EF49095EE
:1040400081959F4F0895709561957F4F0895A1E2E6
:104050001A2EAA1BBB1BFD010DC0AA1FBB1FEE1F02
:10406000FF1FA217B307E407F50720F0A21BB30B4D
:10407000E40BF50B661F771F881F991F1A9469F7C9
:1040800060957095809590959B01AC01BD01CF0125
:1040900008950E946E20A59F900DB49F900DA49F3F
:1040A000800D911D11240895AA1BBB1B51E107C06F
:1040B000AA1FBB1FA617B70710F0A61BB70B881FB8
:1040C000991F5A95A9F780959095BC01CD01089547
:1040D000EE0FFF1F0590F491E02D0994A29FB0010F
:1040E000B39FC001A39F700D811D1124911DB29F2C
:1040F000700D811D1124911D0895FB0151915523CF
:10410000A9F0BF01DC014D9145174111E1F759F4C8
:10411000CD010190002049F04D9140154111C9F3A6
:10412000FB014111EFCF81E090E001970895AEE0EF
:10413000B0E0EDE9F0E20C9446230D891E8986E09B
:104140008C831A8309838FEF9FE79E838D83AE0153
:10415000475E5F4F6F89788DCE0101960E94BA202D
:104160002F813885020F131FF80110822E96E4E08C
:104170000C946223ABE0B0E0E0ECF0E20C94382366
:104180007C013B018A01FC0117821682838181FF39
:10419000C8C1CE0101965C01F7019381F30193FD43
:1041A000859193FF81913F01882309F453C18532A2
:1041B00039F493FD859193FF81913F01853229F474
:1041C000B70190E00E94AA22E7CF912C212C312C3C
:1041D000FFE1F31538F08B3211F190F4803209F1E0
:1041E000833229F137FC3CC020ED280F2A3050F5EE
:1041F00036FE20C08AE0989E200D1124922E06C023
:104200008D3291F0803371F7689430F8F30193FDAB
:10421000859193FF81913F018111DACF21C068948C
:1042200031F8689432F8F2CF689433F8EFCF68949D
:1042300034F8ECCFEAE02E9E200D1124222E689453
:1042400035F8E4CF8E3229F436FC04C1689436F890
:10425000DDCF8C3619F4689437F8D8CF8836B1F2B0
:10426000982F9F7D95549330E0F08336A1F18337EA
:10427000C1F1833509F063C02801F2E04F0E511CF3
:10428000F801C080D180692D70E036FC02C06FEF6C
:104290007FEFC6010E9494224C01689437F8820196
:1042A0000AC00C5F1F4FFFE3F98388248394912C8D
:1042B0006501E89437F833FE2DC0522C8114910427
:1042C00071F5552009F468CFB70180E290E00E94B3
:1042D000AA225A94F6CFF801808189830E5F1F4F7E
:1042E000E4CF2801F2E04F0E511CF801C080D180CC
:1042F000692D70E036FC02C06FEF7FEFC6010E94AF
:104300009F224C018201D5CFB70180E290E00E944C
:10431000AA222A942814190409F0B0F7CECFF60186
:1043200037FC859137FE81916F01B70190E00E94C3
:10433000AA2251105A94F1E08F1A9108BFCF843607
:1043400019F0893609F077C0F80137FE6BC060813B
:104350007181828193810C5F1F4FF32DFF763F2E79
:1043600097FF09C090958095709561957F4F8F4F0D
:104370009F4F689437F82AE030E0A5010E94DA22C6
:10438000C82ECA188C2C432C36FE0CC0E89440F87A
:10439000C91440F434FE05C032FC03C0F32DFE7E88
:1043A0004F2E892C44FE95C0FE01EC0DF11D80813D
:1043B000803309F087C0242D297E422E842D8870F9
:1043C000582E43FC95C040FE8FC09C2C821418F4DC
:1043D0002C0C922C981844FE91C0B70180E390E019
:1043E0000E94AA2242FE09C088E790E041FE02C076
:1043F00088E590E0B7010E94AA22C91408F48AC097
:10440000CA94D12C9FEFC91AD90ACA0CDB1CF60139
:1044100082916F01B70190E00E94AA22AC14BD0402
:10442000B1F74FCF60817181072E000C880B990B7B
:104430000E5F1F4F92CFD32CE894D4F82AE030E0DF
:10444000853739F1232D297FD22E8F3601F148F49B
:104450008835A9F0F701868197812B96E2E10C94CB
:104460005423803749F08837A9F7D4FE02C06894F6
:10447000D2F820E130E00DC06894D4F8F6CF34FED5
:1044800003C0822F8660D82E20E132E002C028E0EF
:1044900030E0F801D7FE0FC0608171818281938185
:1044A0000C5F1F4FA5010E94DA22C82ECA183D2CAE
:1044B000E89437F867CF6081718190E080E00E5F0B
:1044C0001F4FF0CF42FC02C0839478CF8394839433
:1044D00075CF842D867809F471CFF6CFB70180E2CD
:1044E00090E00E94AA2283948214C0F3512C73CFCF
:1044F000522C5818821408F46ECFF8CF842D867889
:1045000009F47BCF8BE241FE80E247FC8DE2B701EC
:1045100090E071CFB70180E390E00E94AA229A94C4
:104520006CCF8FEF9FEF99CFFC01059061507040E9
:104530000110D8F7809590958E0F9F1F0895FC016C
:104540006150704001900110D8F7809590958E0FC2
:104550009F1F08950F931F93CF93DF93182F092F59
:10456000EB018B8181FD09C01FEF0FEF812F902F91
:10457000DF91CF911F910F91089582FF14C02E817A
:104580003F818C819D81281739073CF4E881F981AE
:10459000CF0101969983888310838E819F81019634
:1045A0009F838E83E3CFE885F985812F0995892B39
:1045B000A1F3DACFFA01AA27283051F1203181F195
:1045C000E8946F936E7F6E5F7F4F8F4F9F4FAF4F1B
:1045D000B1E03ED0B4E03CD0670F781F891F9A1F2E
:1045E000A11D680F791F8A1F911DA11D6A0F711DE2
:1045F000811D911DA11D20D009F468943F912AE0EE
:10460000269F11243019305D3193DEF6CF010895D5
:10461000462F4770405D4193B3E00FD0C9F7F6CF06
:10462000462F4F70405D4A3318F0495D31FD4052CE
:10463000419302D0A9F7EACFB4E0A6959795879564
:1046400077956795BA95C9F7009761057105089543
:104650009B01AC010A2E06945795479537952795EF
:10466000BA95C9F7620F731F841F951FA01D089587
:104670002F923F924F925F926F927F928F929F9272
:10468000AF92BF92CF92DF92EF92FF920F931F9360
:10469000CF93DF93CDB7DEB7CA1BDB0B0FB6F89411
:1046A000DEBF0FBECDBF09942A88398848885F8451
:1046B0006E847D848C849B84AA84B984C884DF80C2
:1046C000EE80FD800C811B81AA81B981CE0FD11DA6
:1046D0000FB6F894DEBF0FBECDBFED01089511E017
:1046E000C1E5D1E004C0FE010E9468202196C235D8
:0846F000D107C9F7F894FFCFD0
:1046F8001B072702270201000000000000009D029E
:10470800FA012A02EA025B0239024D0200000000A7
:104718002F0602061807D805FB05E805D90500008D
:1047280000008306FA011807D805DF06F7066B06AE
:1047380052656C6179204F6666004C6F5261205754
:10474800616B650052656C61792032204F6E2000E4
:1047580052656C6179204F6E20006D61632073652E
:1047680074206170706575692025730D0A006D618C
:104778006320736574206170706B65792025730DF3
:104788000A0063006D61632073657420636C617354
:10479800732025730D0A006D6163207365742064AE
:1047A800722025640D0A006D6163207365742063AF
:1047B8006820646379636C6520006D6163206A6FAB
:1047C800696E206F746161006E6F5F667265655F08
:1047D80063680073696C656E740062757379006D47
:1047E80061635F7061757365640064656E696564B3
:1047F800006163636570746564006D61632074783B
:1048080020636E66200025303278006D61635F7426
:10481800785F6F6B006D61635F6F6B00556E636FE0
:104828006E6669726D6564207061636B6574006D96
:10483800616320747820756E636E6620006E6F74F5
:10484800206F6B206D657373616765210061766108
:10485800696C61626C65436F6D3A200052656D61E9
:10486800696E696E67200052656C6179206F6E20F1
:1048780050756C736520626567696E7321005265B7
:104888006D61696E696E673A0052656C61792032B4
:10489800206F6E2050756C736520626567696E7352
:1048A800210052656C61792032204F666600466CA3
:1048B8006F77204D616C66756E6374696F6E006109
:1048C80036306264363733383536306533663265AC
:1048D80037386231643036646530323165623800A9
:1048E80037306233643537656430303233373730C8
:1048F800005365747570002D005265616420496E1F
:1049080074657276616C203A0020637263203A0005
:10491800556E636F6E6669726D6564205061636B76
:10492800657473203A20004661696C656420436FA2
:104938006E6669726D6174696F6E73206265666F09
:1049480072652072656A6F696E203A20006D616336
:104958005F7278200053544F500052656C61792083
:104968004F6E2050756C73650052656C6179204FED
:104978006E2054696D650053544F502032005265C3
:104988006C61792032204F6E2050756C736500522F
:10499800656C61792032204F6E2054696D65004343
:0849A8006F6E666967002E00C6
:107E0000112484B714BE81FFF0D085E080938100F7
:107E100082E08093C00088E18093C10086E0809377
:107E2000C20080E18093C4008EE0C9D0259A86E02C
:107E300020E33CEF91E0309385002093840096BBD3
:107E4000B09BFECF1D9AA8958150A9F7CC24DD24C4
:107E500088248394B5E0AB2EA1E19A2EF3E0BF2EE7
:107E6000A2D0813461F49FD0082FAFD0023811F036
:107E7000013811F484E001C083E08DD089C08234E0
:107E800011F484E103C0853419F485E0A6D080C0E4
:107E9000853579F488D0E82EFF2485D0082F10E0AE
:107EA000102F00270E291F29000F111F8ED06801E7
:107EB0006FC0863521F484E090D080E0DECF843638
:107EC00009F040C070D06FD0082F6DD080E0C81688
:107ED00080E7D80618F4F601B7BEE895C0E0D1E017
:107EE00062D089930C17E1F7F0E0CF16F0E7DF06D8
:107EF00018F0F601B7BEE89568D007B600FCFDCFD4
:107F0000A601A0E0B1E02C9130E011968C91119780
:107F100090E0982F8827822B932B1296FA010C0160
:107F200087BEE89511244E5F5F4FF1E0A038BF0790
:107F300051F7F601A7BEE89507B600FCFDCF97BE46
:107F4000E89526C08437B1F42ED02DD0F82E2BD052
:107F50003CD0F601EF2C8F010F5F1F4F84911BD097
:107F6000EA94F801C1F70894C11CD11CFA94CF0C13
:107F7000D11C0EC0853739F428D08EE10CD085E9AC
:107F80000AD08FE07ACF813511F488E018D01DD067
:107F900080E101D065CF982F8091C00085FFFCCF94
:107FA0009093C60008958091C00087FFFCCF809118
:107FB000C00084FD01C0A8958091C6000895E0E648
:107FC000F0E098E1908380830895EDDF803219F02E
:107FD00088E0F5DFFFCF84E1DECF1F93182FE3DFCA
:107FE0001150E9F7F2DF1F91089580E0E8DFEE27F6
:047FF000FF270994CA
:027FFE00040479
:0400000300007E007B
:00000001FF