:100000000C9452010C94DB140C94B4140C9421162F
:100010000C9421160C9421160C947A010C947A01FC
:100020000C947A010C947A010C947A010C947A0164
:100030000C947A010C9499160C947A010C947A0120
:100040000C946A140C947A010C9438140C941214C5
:100050000C947A010C947A010C947A010C947A0134
:100060000C9402150C947A0150756C7365004C6108
:1000700073742041646472657373203A2000416494
:100080006472657373202D2D00202D2000466F7241
:100090006D61742066726F6D20616464723A200035
:1000A0002041646472657373203A00496E6372651F
:1000B0006D656E742041646472657373203A0053F9
:1000C00061766520436F756E746572203A005361E6
:1000D000766520416464726573733A200000000005
:1000E00000240027002A0000000008000201000090
:1000F0000304070000000000000000526561642056
:10010000436F756E746572203A00526561642041D8
:100110006464726573733A00435243204572726F90
:10012000720056616C6964204352433A0054726114
:100130006E736D6974200053657420496E74657226
:1001400076616C3A200053657420436F756E746558
:10015000723A2000446F776E6C696E6B2053697A37
:10016000653A00496E74657276616C203A002043EE
:100170005243203A002041646472657373203A0050
:10018000536176652055696E743332203A200043FE
:100190006F6E6E656374696F6E204C6F73742100AF
:1001A000436F6E6E656374696F6E204C6F7374007D
:1001B000436F6E6669726D6174696F6E2046616926
:1001C0006C6564203A00436F6E6669726D65640009
:1001D0003D3D3D3D3D3D3D3D3D3D3D3D3D3D3D206C
:1001E0004A6F696E204661696C6564003D3D3D3D26
:1001F0003D3D3D3D3D3D3D3D3D3D3D204A6F696EB0
:100200006564005472616E736D6974205061636B34
:10021000657420005472616E736D697420436F6E53
:100220006669726D6564205061636B657400436F2D
:10023000756E746572203A0052656D61696E696E03
:1002400067203A0041636B203A0052656A6F696E1D
:10025000436F756E746572203A00436F756E7465F6
:1002600072203A0000000000230026002900000050
:100270000000250028002B000404040404040404E6
:100280000202020202020303030303030102040841
:1002900010204080010204081020010204081020F0
:1002A000C0164D2011241FBECFEFD8E0DEBFCDBF5A
:1002B00028E0A2E7B4E001C01D92A635B207E1F73D
:1002C00014E0A0E0B1E0E2E5FAE402C005900D928E
:1002D000A237B107D9F711E0C1E5D1E004C02197F9
:1002E000FE010E944722C035D107C9F70E94681855
:1002F0000C941C250C9400009B01AC01E091AE0510
:10030000F091AF0582E08083211581EE3807410529
:100310005105E9F160E079E08DE390E00E941D2154
:10032000215031094109510956954795379527952F
:10033000E091AA05F091AB051082E091AC05F09137
:10034000AD0520831092B605E091B205F091B3059A
:1003500086E08083E091B005F091B10580818061F5
:100360008083E091B005F091B10580818860808341
:10037000E091B005F091B105808180688083E091C3
:10038000B005F091B10580818F7D80830895E09163
:10039000AE05F091AF05108220E1CACFFC01E60F57
:1003A000F11DAEECB7E01B968C911B9780831A96DB
:1003B0008C911A97818319968C911997828318963C
:1003C0008C91838384E00895FC0145E090E08CE803
:1003D000415089F0619158E0792F7627292F30E03C
:1003E00035952795922F70FF02C0982F922766951A
:1003F000515091F7EDCF892F0895EF92FF920F930F
:100400001F93CF93DF938C017B01D0E0C0E0F70115
:10041000EC0FFD1F6491662361F0D801ED91FC9112
:100420000190F081E02DC8010995892B11F02196EA
:10043000EECFCE01DF91CF911F910F91FF90EF9002
:100440000895AF92BF92CF92DF92EF92FF920F93F7
:100450001F93CF93DF936C017B018B01040F151F5A
:10046000EB015E01AE18BF08C017D10759F06991C2
:10047000D601ED91FC910190F081E02DC601099526
:10048000892B79F7C501DF91CF911F910F91FF90D3
:10049000EF90DF90CF90BF90AF90089508950895AA
:1004A00008950895FC01538D448D252F30E0842F4D
:1004B00090E0821B930B541710F0CF96089501978C
:1004C0000895FC01918D828D981761F0A28DAE0F79
:1004D000BF2FB11D5D968C91928D9F5F9F73928F00
:1004E00090E008958FEF9FEF0895FC01918D828D2C
:1004F000981731F0828DE80FF11D858D90E00895F9
:100500008FEF9FEF0895FC01918D228D892F90E050
:10051000805C9F4F821B91098F73992708958EE904
:1005200095E00E94830221E0892B09F420E0822FCC
:10053000089580E090E0892B29F00E948F028111BC
:100540000C9400000895FC01A48DA80FB92FB11DD3
:10055000A35ABF4F2C91848D90E001968F739927F9
:10056000848FA689B7892C93A089B1898C918370D7
:1005700080648C93938D848D981306C00288F389D0
:10058000E02D80818F7D80830895EF92FF920F93FD
:100590001F93CF93DF93EC0181E0888F9B8D8C8D2F
:1005A00098131AC0E889F989808185FF15C09FB723
:1005B000F894EE89FF896083E889F98980818370E6
:1005C000806480839FBF81E090E0DF91CF911F9195
:1005D0000F91FF90EF900895F62E0B8D10E00F5FB6
:1005E0001F4F0F731127E02E8C8D8E110CC00FB68C
:1005F00007FCFACFE889F989808185FFF5CFCE0124
:100600000E94A302F1CFEB8DEC0FFD2FF11DE35AF9
:10061000FF4FF0829FB7F8940B8FEA89FB898081A6
:100620008062CFCFCF93DF93EC01888D8823B9F020
:10063000AA89BB89E889F9898C9185FD03C08081ED
:1006400086FD0DC00FB607FCF7CF8C9185FFF2CF6A
:10065000808185FFEDCFCE010E94A302E9CFDF911B
:10066000CF91089590E0FC01E951FF4F2491FC01E6
:10067000E457FD4F3491FC01E858FD4FE491EE231F
:10068000C9F0222339F0233001F1A8F4213019F107
:10069000223029F1F0E0EE0FFF1FE259FD4FA59146
:1006A000B4918FB7F894EC91611126C030953E2338
:1006B0003C938FBF08952730A9F02830C9F024302B
:1006C00049F7809180008F7D03C0809180008F77F3
:1006D00080938000DFCF84B58F7784BDDBCF84B576
:1006E0008F7DFBCF8091B0008F778093B000D2CF09
:1006F0008091B0008F7DF9CF3E2BDACFCF93DF937F
:1007000090E0FC01E457FD4F249188589D4FFC0177
:1007100084918823C9F090E0880F991FFC01E3526F
:10072000FF4FA591B491FC01E259FD4FC591D491C1
:1007300061110DC09FB7F8948C91209582238C9302
:100740008881282328839FBFDF91CF91089562304D
:1007500051F49FB7F8943C91822F809583238C931A
:10076000E8812E2BEFCF8FB7F894EC912E2B2C93A2
:100770008FBFEACF3FB7F89480911B0590911C057D
:10078000A0911D05B0911E0526B5A89B05C02F3F61
:1007900019F00196A11DB11D3FBFBA2FA92F982FA7
:1007A0008827BC01CD01620F711D811D911D42E0A2
:1007B000660F771F881F991F4A95D1F708958F926A
:1007C0009F92AF92BF92CF92DF92EF92FF924B0136
:1007D0005C010E94BA036B017C010E94BA036C1990
:1007E0007D098E099F09683E734081059105A8F334
:1007F00021E0821A9108A108B10888EEC80E83E0B2
:10080000D81EE11CF11C81149104A104B10429F744
:10081000FF90EF90DF90CF90BF90AF909F908F9020
:1008200008952FB7F894609117057091180580917D
:10083000190590911A052FBF0895CF92DF92EF927C
:10084000FF920F931F93CF93DF930E9411046B01CC
:100850007C018EE995E00E948302892B89F0C0918A
:100860008D06D0918E06E881F981008111818EE993
:1008700095E00E946102682FCE01F8010995E9CF49
:100880000E9411046C197D098E099F09693E73400D
:1008900081059105F0F2DF91CF911F910F91FF90AB
:1008A000EF90DF90CF9008954F925F926F927F927A
:1008B0008F929F92AF92BF92EF92FF920F931F93EE
:1008C000CF93DF937C01C62F0E9411044B015C0182
:1008D00088EE93E0C89F2001C99F500C1124052C7D
:1008E000000C66087708D0E0C0E0A895CF3FD1059E
:1008F00009F0ACF487010C0F1D1FE801CE19DF09C8
:100900008EE995E00E948302892B49F08EE995E0FB
:100910000E946102F80181938F01A895EECF0E9499
:100920001104681979098A099B0946165706680651
:100930007906D8F6CE01DF91CF911F910F91FF90EC
:10094000EF90BF90AF909F908F907F906F905F904F
:100950004F9008952091F304260F3327331F21323F
:100960003105ECF420917405FC0190E080E0243026
:1009700069F082E00895A091F3042191AC014D52F9
:100980005B4FA40FB52FB11D2C930196861798F3DA
:100990008091F304680F6093F30480E0089581E090
:1009A00008951092740581E08093730510924E05AE
:1009B00061E082E10E94320361E083E10E94320340
:1009C000E9EBF0E080818E7F808380818D7F808362
:1009D00088E48093B80085E48093BC000895CF93A9
:1009E000DF9391E09093D2048823B9F0C091B800CE
:1009F000D091BA008091BC008A7B8093BC0060E0FB
:100A000082E10E94320360E083E10E9432030E948F
:100A1000D104D093BA00C093B800DF91CF9108956C
:100A20008F929F92AF92BF92CF92DF92EF92FF92FE
:100A30000F931F93CF93DF93D0919D05D13208F090
:100A4000D7C0182FC0919C050E94BA036B017C018E
:100A50008091740581116BC082E0809374051093BE
:100A600073058FEF8093720510927105D093700516
:100A7000ACE7B5E0E0E5F5E080E0D81391C0109276
:100A80004F0580914F05CC0FC82BC0934F05809127
:100A90004E05813009F088C010924E050E94BA03BD
:100AA0006B017C0180914F058093BB00809176059E
:100AB00090917705A0917805B0917905892B8A2BC3
:100AC0008B2BA1F00E94BA03009176051091770557
:100AD00020917805309179056C197D098E099F095F
:100AE000061717072807390708F442C08091BC0091
:100AF00083FDD8CF85EC8093BC000E94BA036B01C4
:100B00007C0180917405823009F450C08091720597
:100B10008F3F09F46FC080917205803209F46CC078
:100B200080917205803309F469C084E026C0809109
:100B3000760590917705A0917805B0917905892B7C
:100B40008A2B8B2B09F484CF0E94BA038090760500
:100B500090907705A0907805B09079056C197D0983
:100B60008E099F0986169706A806B90608F070CF69
:100B7000809175050E94EF0485E010927B0510922C
:100B80009D0510927A05DF91CF911F910F91FF90F3
:100B9000EF90DF90CF90BF90AF909F908F9008958F
:100BA0009D9191938F5F69CF85EEA5CF809176055A
:100BB00090917705A0917805B0917905892B8A2BC2
:100BC0008B2B09F49ECF0E94BA03009176051091F9
:100BD000770520917805309179056C197D098E098A
:100BE0009F09061717072807390708F08ACFC0CFD3
:100BF00081E0C3CF80E0C1CF82E0BFCF83E0BDCF33
:100C0000E091280580912705E81730F4F0E0EE54D4
:100C1000FB4F808190E008958FEF9FEF08959091B2
:100C20002805809127052FEF3FEF981748F4E92F0B
:100C3000F0E0EE54FB4F208130E09F5F9093280559
:100C4000C90108958091270590912805891B990B6A
:100C50000895CF92DF92EF92FF920F931F93CF935D
:100C6000DF937C01CB018A0120917A05222389F050
:100C7000EB016B01C40ED51ECC15DD0569F0699141
:100C8000D701ED91FC910190F081E02DC70109950C
:100C9000F3CF642F0E94AA04C801DF91CF911F9166
:100CA0000F91FF90EF90DF90CF900895CF93DF9357
:100CB0001F92CDB7DEB7698320917A052223F9F020
:100CC00020919D05203258F021E030E0FC01338373
:100CD000228390E080E00F90DF91CF910895809182
:100CE0007B05E82FF0E0E458FA4F998190838F5FFD
:100CF00080937B0580939D0581E090E0ECCF61E0DF
:100D0000CE0101960E94AA04F7CFCF93C82F692F76
:100D10008BE396E00E9456066C2F8BE396E0CF9112
:100D20000C94560620912105309122052817390789
:100D300071F490911F0580912005981741F0E09182
:100D40001F05F0E0EE58FB4F808190E008958FEF93
:100D50009FEF0895EF92FF920F931F93CF93DF932E
:100D6000DC015C96ED90FC905D97E114F10479F460
:100D700081E090E013969C938E93129790E080E030
:100D8000DF91CF911F910F91FF90EF9008955196B1
:100D9000ED91FC91529750968C915097982F909589
:100DA0000FB75E962C915E97122F127021FD609501
:100DB000F8942081112319F1282B2083E701219732
:100DC000F1F728E0462F50E0308160FF1AC0382B41
:100DD0003083E7012197F1F7BA01759567952150A6
:100DE00089F7112381F08081892380830FBF5C966E
:100DF0008D919C910197F1F781E090E0C1CF29237B
:100E0000DCCF3923E5CF9081892BEFCF20912105CD
:100E1000309122052817390771F48091200520911F
:100E20001F0590E0805C9F4F821B910960E470E099
:100E30000E943322089590E080E0089520912105DA
:100E40003091220528173907B9F490911F05809138
:100E50002005981789F0E0911F05F0E0EE58FB4F50
:100E6000808120911F0530E02F5F3F4F2F73332784
:100E700020931F0590E008958FEF9FEF089590E075
:100E800080E0089508952F923F924F925F926F9263
:100E90007F928F929F92AF92BF92CF92DF92EF920A
:100EA000FF920F931F93CF93DF9300D000D000D019
:100EB000CDB7DEB77B012A01CB01807C861B970B67
:100EC000805C9F4F9A8389838530910534F08370CD
:100ED0008983811102C094E099839981892F90E0E0
:100EE0009E838D838217930708F073C0281B390BEC
:100EF0001901E3E02E223324369527953695279560
:100F00003901F2E06F0E711CB12CA12C10E000E051
:100F10009301215031093C832B83CD80DE80011564
:100F2000110549F08B819C8161018017910719F0AF
:100F300084E0C82ED12C91E090937A05E0E5E0930F
:100F40009C0510927B0510929D05C7010E948506A5
:100F500042018A0C9B1C9A828982F40161914F01A3
:100F60008BE396E00E9456065401A418B508C4010C
:100F700029813A81821B930B8C159D0574F381E0C6
:100F80000E941005EC0CFD1C64E170E080E090E034
:100F90000E94DF030F5F1F4F6016710609F0BDCF7F
:100FA00026960FB6F894DEBF0FBECDBFDF91CF916E
:100FB0001F910F91FF90EF90DF90CF90BF90AF9077
:100FC0009F908F907F906F905F904F903F902F9069
:100FD0000895312C212C66246394712C95CF8F9227
:100FE0009F92AF92BF92DF92EF92FF920F931F9367
:100FF000CF93DF93CB01D42ED52F790121E020931D
:101000007A0520E520939C0510927B0510929D05A2
:101010000E94850681E00E9410050E94BA034B01E0
:101020005C0180917405811165C0CE2D81E08093B3
:101030007405809373059FEF90937205109271056C
:101040009E0D9093700580934F0580914F05806AA7
:1010500080934F0580914E05813009F094C0109225
:101060004E050E94BA034B015C0180914F058093AD
:10107000BB008091760590917705A0917805B0919D
:101080007905892B8A2B8B2BA1F00E94BA03009142
:1010900076051091770520917805309179056819CA
:1010A00079098A099B09061717072807390708F4E1
:1010B00042C08091BC0083FDD8CF85EC8093BC00FA
:1010C0000E94BA034B015C0180917405813009F4E0
:1010D0005CC0809171058C1710F4C0917105A0E57A
:1010E000B5E0E2EBF4E080E08C1751F19D91919333
:1010F0008F5FFACF8091760590917705A091780562
:10110000B0917905892B8A2B8B2B09F48ACF0E9409
:10111000BA030091760510917705209178053091FA
:101120007905681979098A099B090617170728079D
:10113000390708F076CF809175050E94EF04C0E072
:1011400010922805C09327050D2D1D2FE00EF11ECE
:1011500080912805C81731F08BE396E00E940F06B6
:10116000F80180830F5F1F4FE016F10689F7DF91CA
:10117000CF911F910F91FF90EF90DF90BF90AF90B4
:101180009F908F90089585EE99CF809176059091EC
:101190007705A0917805B0917905892B8A2B8B2B47
:1011A00009F492CF0E94BA03009176051091770559
:1011B0002091780530917905681979098A099B0988
:1011C000061717072807390708F07ECFB4CFCF934B
:1011D000DF93EC0184E1FE0111928A95E9F7188210
:1011E00080E86115710509F080E488838091D20759
:1011F00081110CC08091D307811108C08091D40760
:10120000811104C08091D507882319F088818062FC
:1012100088838091E7079091E8078430910509F071
:1012200058C08881806188838091CE079091CF07D4
:101230008130910509F053C0888184608883672BD1
:1012400009F059C019828091DE078A8363E0CE01DC
:101250000E94CE01E3E0E80FEC0FFD2FF11D90910D
:10126000DD0790839091DC0791839091DB07928357
:101270009091DA079383895FFE01E80FF11D909149
:10128000E40790839091E307918392E0980FC90F50
:10129000D11D18829091D207992311F090E898837C
:1012A0009091D307992319F0988190649883909135
:1012B000D407992319F09881906298839091D5076B
:1012C000992319F09881906198838D5FDF91CF9178
:1012D0000895892B09F0A8CF88818860A4CF823037
:1012E000910519F488818260A9CF039709F0A7CFEF
:1012F00088818160A3CF8091E20789838091E10793
:101300008A838091E0078B838091DF078C8365E07F
:10131000CE010E94CE018B5FAFCF87E398E0909320
:101320008E0680938D06EFE8F6E080E091E0DF0125
:101330009C011D9221503040E1F760E071EE80E0A9
:1013400090E00E947C0161E086E00E947E0361E003
:1013500086E00E94320368EC70E080E090E00C943C
:10136000DF03EF92FF920F931F93CF93DF9300D091
:1013700000D0CDB7DEB78EE995E00E9461028EE91C
:1013800095E00E9461028E010F5F1F4F78018A3342
:1013900041F0F80181938F018EE995E00E9461028E
:1013A000F6CFC7010E946920182F8EE995E00E94B0
:1013B00061028053990B8230910520F4682F812FB0
:1013C0000E9432038EE995E00E9461028A3011F09A
:1013D0008D30C1F78EE995E00E9475028A3021F4C4
:1013E0008EE995E00E9461020F900F900F900F9090
:1013F000DF91CF911F910F91FF90EF900895FB0126
:1014000001900020E9F73197AF01461B570BDC0133
:10141000ED91FC910280F381E02D099460E472E08B
:101420000C94FF090F931F93CF93DF93EC010E945D
:10143000FD018C01CE010E940E0A800F911FDF91E9
:10144000CF911F910F910895CF92DF92EF92FF926B
:101450000F931F9368E670E087E398E00E94120AFA
:10146000C0904605D0904705E0904805F0904905AA
:101470000E9411040091F7071091F8072091F907D5
:101480003091FA07601B710B820B930B6935724028
:101490008105910508F464C00E9411046093FB0764
:1014A0007093FC078093FD079093FE070E94110440
:1014B0006093F7077093F8078093F9079093FA0702
:1014C00080911C08882309F45AC00E94110460937B
:1014D0001D0870931E0880931F0890932008409168
:1014E0001D0850911E0860911F087091200880917E
:1014F000210890912208A0912308B0912408481750
:1015000059076A077B07C0F4841B950BA60BB70B22
:10151000853F9140A105B10578F00E9411046093C8
:10152000F7077093F8078093F9079093FA078FEF06
:10153000C81AD80AE80AF80A80911C0881112AC042
:101540008091210890912208A0912308B09124084D
:1015500080931D0890931E08A0931F08B093200845
:10156000C0924605D0924705E0924805F0924905A1
:101570001F910F91FF90EF90DF90CF9008950E9400
:10158000110460932108709322088093230890939C
:101590002408A5CF10921C08E3CF8F929F92AF92A0
:1015A000BF92EF92FF920F931F93CF93DF93CDB72C
:1015B000DEB7A1970FB6F894DEBF0FBECDBF7C019A
:1015C000FA01CB0119A2223008F42AE08E010F5D46
:1015D0001F4F822E912CB12CA12CBF01A50194018B
:1015E0000E941D21F901CA016A300CF5605DD80125
:1015F0006E938D01232B242B252B79F790E080E02F
:10160000109721F0BD01C7010E94FF09A1960FB6F6
:10161000F894DEBF0FBECDBFDF91CF911F910F9128
:10162000FF90EF90BF90AF909F908F900895695C6E
:10163000DECFCF92DF92EF92FF920F931F93CF9363
:10164000DF9377FF21C06A017B01EC01E881F9811A
:101650000190F081E02D6DE209958C01442755271A
:10166000BA014C195D096E097F092AE0CE010E947A
:10167000CD0A800F911FDF91CF911F910F91FF90A5
:10168000EF90DF90CF9008952AE0DF91CF911F91E6
:101690000F91FF90EF90DF90CF900C94CD0A0F93B5
:1016A0001F93CF93DF93EC01AB01770F660B770BA2
:1016B0000E94190B8C01CE010E940E0A800F911F0F
:1016C000DF91CF911F910F910895AB0170E060E021
:1016D0002AE00C94CD0A0F931F93CF93DF93EC0174
:1016E0000E94650B8C01CE010E940E0A800F911F93
:1016F000DF91CF911F910F9108950F931F93CF9377
:10170000DF93EC012AE00E94CD0A8C01CE010E94F9
:101710000E0A800F911FDF91CF911F910F910895B5
:10172000CF92DF92EF92FF920F931F93CF93DF93AD
:1017300000D000D0CDB7DEB78C016A017B01F98201
:101740006A83DB824C836BEA70E0FC0180819181CB
:101750000E94FD01F80164817581808191810E9460
:10176000650BF801848195810496883EF3E09F071C
:1017700008F049C0F8019583848360EA70E08081B5
:1017800091810E94FD01F8016481758180819181C0
:101790000E946B0B6EEC70E0F801808191810E94D9
:1017A000FD01F80164817581808191810E946B0B3C
:1017B000F801C682D782E086F1866481758124E0D3
:1017C00030E0AE014F5F5F4F828193810E944307FB
:1017D0006FEB70E0F801808191810E94FD01A6010C
:1017E000B701F801808191810E947D0B0F900F90CD
:1017F0000F900F90DF91CF911F910F91FF90EF907D
:10180000DF90CF90089588EC90E0B4CFBF92CF9254
:10181000DF92EF92FF920F931F93CF93DF9300D04D
:1018200000D000D0CDB7DEB78C01B42EC52ED62E99
:10183000E72E79836A835B834C83CE0101960E94F5
:10184000E401F82E1D828E8326E030E0AE014F5F6A
:101850005F4F70E060E0F801828193810E9443074E
:1018600060E871E0F801808191810E94FD012AE029
:101870004B2D5C2D6D2D7E2DF801808191810E9474
:10188000CD0A65E771E0F801808191810E94FD0138
:1018900070E060E0F801808191810E94650B6EE646
:1018A00071E0F801808191810E94FD016F2D70E04F
:1018B000F801808191810E946B0B26960FB6F894F7
:1018C000DEBF0FBECDBFDF91CF911F910F91FF9073
:1018D000EF90DF90CF90BF9008950F931F93CF9319
:1018E000DF938C01D0E0C0E06115710519F00E9412
:1018F000FF09EC01C8010E940E0A8C0F9D1FDF91A9
:10190000CF911F910F910895CF93DF93EC01CC0FEE
:10191000DD1FC80FD91FC751D84F60E08DA10E94AD
:10192000320363EA71E080912608909127080E94B3
:101930006D0C1CA2DF91CF910895CF93DF93C9EE78
:10194000D7E09BA38AA381E08CAF81E090E00E9466
:10195000840C82E090E00E94840C83E090E00E947E
:10196000840C84E090E00E94840C1D821C828FE035
:1019700090E099A388A3DF91CF9108950F931F93CF
:10198000CF93DF938C01C9EED7E07BA36AA381E0FC
:101990008CAFC8010E94840CF801EE0FFF1FE00F0E
:1019A000F11FE751F84F14A21D821C828FE090E0D6
:1019B00099A388A3DF91CF911F910F9108956DEAAC
:1019C00071E080918D0690918E060E946D0C8EE9DB
:1019D00095E00E941203EEE9F5E0A289B3898C91AB
:1019E0008F7E8C93A289B3898C91877F8C93A289F7
:1019F000B3898C918F778C93A289B3898C918F7DD9
:101A00008C93828D818F61E081E00E947E0360E093
:101A100081E00E9432036AE070E080E090E00E9482
:101A2000DF0361E081E00E9432036AE070E080E061
:101A300090E00E94DF0360E071EE80E090E00E94A1
:101A40007C0165E58EE995E00E94C5020C941D04B9
:101A50006115710511F00C94FF0990E080E0089584
:101A6000EF92FF920F931F93CF93DF937C0109EEC8
:101A700017E0EC01CC0FDD1FCE0DDF1DC751D84F95
:101A800061E08DA10E947E0361E08DA10E9432037E
:101A900081E08CA30E941104F801628F738F848F00
:101AA000958F67EB71E085AD96AD0E94280DA7017B
:101AB000FF0C660B770BF80185AD96AD0E94190BF4
:101AC000F80113A212A2DF91CF911F910F91FF9005
:101AD000EF900895CF93DF93FC01EE0FFF1FE80F07
:101AE000F91FE751F84F24A121110EC0EC0162EC5F
:101AF00071E080912608909127080E946D0CCE011C
:101B0000DF91CF910C94300DDF91CF9108950F9319
:101B10001F93CF93DF938C016091F2077091F307CD
:101B200080912608909127080E94650B6FE573E06D
:101B300080912608909127080E94280DC0912608C0
:101B4000D09127084091F10750E070E060E02AE072
:101B5000CE010E94CD0ACE010E940E0A6AED71E00C
:101B600080912608909127080E94280D6091ED072A
:101B70007091EE0780912608909127080E946B0BC8
:101B8000E801CC0FDD1FFE01E00FF11FE751F84F18
:101B900084A1811109C08091ED079091EE07892BF6
:101BA00019F0C8010E94300DC00FD11FC751D84F86
:101BB0008CA1882389F08091ED079091EE07892B05
:101BC00059F470E060E0C8010E94BE0C8FE090E024
:101BD00090930A08809309088091F1078B3340F4B1
:101BE0008F5F8093F107DF91CF911F910F9108953F
:101BF0001092F1078091F2079091F307019690936C
:101C0000F3078093F2078091ED079091EE0700971C
:101C100051F301979093EE078093ED07E4CF0F9374
:101C20001F9380912F0581118DC0E0910908F091DB
:101C30000A08ED30F105A8F4E05EF14F0C9447225C
:101C40002D0E690E6C0E6F0E720E770E7A0E7D0ED3
:101C5000800E870E8C0E910E960E81E090E00E9411
:101C60006A0DE9EEF7E087A1882309F464C081E0FA
:101C70008093080880910808882309F463C00E94B3
:101C800011040091FB071091FC072091FD07309192
:101C9000FE07601B710B820B930B0091FF071091E5
:101CA000000820910108309102080617170728073D
:101CB000390708F047C065EE71E0809126089091E1
:101CC00027080E946D0C81E090E01F910F910C9409
:101CD0009D0C82E090E0C3CF83E090E0C0CF84E031
:101CE00090E0BDCF81E090E00E94870DBACF82E006
:101CF00090E0FACF83E090E0F7CF84E090E0F4CF7B
:101D000063E070E081E090E00E94BE0CAACF63E047
:101D100070E082E090E0F8CF63E070E083E090E074
:101D2000F3CF63E070E084E090E0EECF83E090E0FA
:101D30000E949D0C96CF339687E0E53FF80709F0A7
:101D400092CF98CF1F910F9108952F923F924F926B
:101D50005F926F927F928F929F92AF92BF92CF923B
:101D6000DF92EF92FF920F931F93CF93DF93CDB744
:101D7000DEB7CE54D1090FB6F894DEBF0FBECDBF8B
:101D80002D968FAF2D974A015B0128960CAF1DAFA2
:101D90002EAF3FAF2897109294078091E90790915A
:101DA000EA07A091EB07B091EC072C968CAF9DAFA2
:101DB000AEAFBFAF2C972090ED073090EE0790911B
:101DC000930724969FAF2497911139C10E94DF0C8D
:101DD0000E948D0920E4722E8E010F5F1F4FD801E3
:101DE000E72D1D92EA95E9F78DEB97E09F938F938E
:101DF00086EF91E09F938F931F930F930E947B2216
:101E0000B8018EE995E00E94280DB80180918D06F9
:101E100090918E060E94280D0E941D04D801E72D86
:101E20001D92EA95E9F78CE997E09F938F938AE0FA
:101E300092E09F938F931F930F930E947B22B80190
:101E40008EE995E00E94280D0E941D04D801E72D1F
:101E50001D92EA95E9F78EE192E09F938F9380E2DD
:101E600092E09F938F931F930F930E947B22B80160
:101E70008EE995E00E94280DB80180918D06909121
:101E80008E060E94280D0E941D04D8011D927A948E
:101E9000E9F71F921F9283E392E09F938F931F9322
:101EA0000F930E947B22B8018EE995E00E94280DD5
:101EB000B80180918D0690918E060E94280D0E9497
:101EC0001D040FB6F894DEBF0FBECDBF412C512CC0
:101ED000320163E472E08EE995E00E94280DB301BF
:101EE000A2018EE995E00E94190B6CE973E08EE97E
:101EF00095E00E94280D70E060E08EE995E00E9478
:101F00004F0B64E670E080E090E00E94DF03A8954C
:101F10008EE995E00E948302892BC9F000918D061D
:101F200010918E06D801ED91FC91208131812F9680
:101F30003FAF2EAF2F978EE995E00E946102682F88
:101F4000C8012F96EEADFFAD2F970995E1CFFFEFBA
:101F50004F1A5F0A6F0A7F0A20E14216510461049A
:101F6000710409F0B6CFA89566E572E08EE995E0B8
:101F70000E946D0CEFE8F6E080E091E0DF019C014B
:101F80001D9221503040E1F76FE0CF010E945404D0
:101F90006FE876E080918D0690918E060E946D0C20
:101FA00066E572E080918D0690918E060E946D0C20
:101FB0000E941D0464E672E08FE896E00E946122B0
:101FC000892B09F007C16FE672E08FE896E00E9466
:101FD0006122892B09F0FEC066E772E08FE896E087
:101FE0000E946122892B09F0F5C06BE772E08FE84F
:101FF00096E00E946122892B09F0ECC066E872E04D
:102000008FE896E00E946122892B09F0E3C06DE819
:1020100072E08FE896E00E946122892B09F4DAC011
:102020006CEE71E087E398E00E94120A31E024969A
:102030003FAF249724968FAD249780939307809188
:102040009307882309F48EC18E010F5F1F4F2D96D1
:102050009FAD2D979111C5C06AE572E087E398E0C6
:102060000E94FD01B501A40187E398E00E947D0B69
:102070006AE472E087E398E00E94FD0128964CAD87
:102080005DAD6EAD7FAD289787E398E00E947D0B34
:1020900080910B0890910C089093CF078093CE0706
:1020A0008091090890910A089093E8078093E707C8
:1020B000809119089091160820911308309110080A
:1020C0003093D2072093D3079093D4078093D507FA
:1020D0008092D6079092D707A092D807B092D907DE
:1020E00028968CAD9DADAEADBFAD28978093DA0735
:1020F0009093DB07A093DC07B093DD073092E407F1
:102100002092E307809195078093DE0770E060E0FE
:10211000C8010E94E708982E80910808DE01AF5B95
:10212000BF4F5D01811111C02D96BFAD2D97B1112B
:102130000CC08091960790919707B0E0A0E08C15B5
:102140009D05AE05BF0508F46EC164E172E087E34A
:1021500098E00E94120AF5011182108266E972E08D
:102160008EE995E00E94280D42E050E060E070E0CA
:102170008EE995E00E94190B6CE973E08EE995E019
:102180000E94280D780192EAC92E92E0D92E8E2D58
:10219000801B891508F09BC0D7018D917D011F928E
:1021A0008F93DF92CF92BF92AF920E947B22B501B4
:1021B0008EE995E00E94280DB50180918D069091E1
:1021C0008E060E94FF090F900F900F900F900F90B6
:1021D0000F90DDCF60ED71E087E398E00E94120A76
:1021E00029CF64E472E087E398E00E94FD012C9619
:1021F0004CAD5DAD6EAD7FAD2C9787E398E00E944E
:102200007D0B68E372E087E398E00E94FD01B10175
:1022100087E398E00E946B0B6EE272E087E398E040
:102220000E94FD01B501A40187E398E00E947D0BA7
:1022300080910B0890910C089093CF078093CE0764
:102240008091090890910A089093E8078093E70726
:102250008091190890911608209113083091100868
:102260003093D2072093D3079093D4078093D50758
:1022700028968CAD9DADAEADBFAD28978093DA07A3
:102280009093DB07A093DC07B093DD073092E4075F
:102290002092E3078092D6079092D707A092D807A2
:1022A000B092D9072C968CAD9DADAEADBFAD2C973D
:1022B0008093DF079093E007A093E107B093E207D4
:1022C000809195078093DE0761E070E021CF8091D7
:1022D0008D0690918E060E940E0A8EE995E00E946E
:1022E0000E0AEFE8F6E080E091E0DF019C011D922C
:1022F00021503040E1F76AE0CF010E9454046FE8BA
:1023000076E080918D0690918E060E94280D0E94A5
:102310001D0467EA72E08FE896E00E946122892B33
:1023200041F461EB72E08FE896E00E946122892B14
:1023300099F16DED72E080918D0690918E060E946C
:102340006D0C81E08093940710929B0710929A077E
:10235000109297071092960766EC71E087E398E079
:102360000E94120AC25BDF4F0FB6F894DEBF0FBEA9
:10237000CDBFDF91CF911F910F91FF90EF90DF9034
:10238000CF90BF90AF909F908F907F906F905F9015
:102390004F903F902F9008951092940780919A0744
:1023A00090919B07019690939B0780939A0760EB0F
:1023B00071E087E398E00E94FD0160919A077091B7
:1023C0009B0787E398E00E946B0B80919A0790919E
:1023D0009B07029710F00E94DF0C80919A07909162
:1023E0009B07039708F4BECF60EA71E087E398E0AB
:1023F0000E94120A10929B0710929A071092970758
:10240000109296071092930770E060E082E090E0EF
:102410000E94BE0C6FE871E087E398E00E94120A08
:102420000C9400009FCF68EB72E087E398E00E9475
:102430006D0C80919607909197070F969093970750
:102440008093960763E072E087E398E00E94FD01C5
:10245000609196077091970787E398E00E946B0B55
:10246000D5011D921C926BEC72E08EE995E00E9402
:10247000280D4AE050E060E070E08EE995E00E94AF
:10248000190B6CE973E08EE995E00E94280D780144
:1024900082EAC82E82E0D82E8E2D801B8915F0F49A
:1024A000F70181917F011F928F93DF92CF92BF92AC
:1024B000AF920E947B22B5018EE995E00E94280D23
:1024C000B50180918D0690918E060E94FF090F90B4
:1024D0000F900F900F900F900F90DECF80918D0690
:1024E00090918E060E940E0A8EE995E00E940E0AD7
:1024F000EFE8F6E080E091E0DF019C011D922150C1
:102500003040E1F765E0CF010E9454046FE876E0C7
:1025100080918D0690918E060E94280D0E941D04C8
:1025200067EA72E08FE896E00E94612200918D06D2
:1025300010918E06892B41F461EB72E08FE896E0F2
:102540000E946122892BB1F081E0809395076DEDA7
:1025500072E0C8010E946D0C69EE72E087E398E0BA
:102560000E94280D6091950770E087E398E00E9433
:102570004F0BF8CE69ED72E0C8010E946D0C0E940D
:10258000DF0CEACF2F923F924F925F926F927F9231
:102590008F929F92AF92BF92CF92DF92EF92FF9273
:1025A0000F931F93CF93DF9300D000D0CDB7DEB74A
:1025B0008C016EE770E0FC01808191810E94120A1B
:1025C000212C312C210148EC642E712C58ECA52EC5
:1025D000B12CCE0101964C01F40184E011928A9550
:1025E000E9F724E030E0A401B501F801828193818C
:1025F0000E94EF07C980D12CF12CE12CFC2CEE2499
:10260000DD24CC248A8190E0B0E0A0E0DC019927B1
:1026100088278C0D9D1DAE1DBF1D2C81820F911D25
:10262000A11DB11DCB80D12CF12CE12CFE2CED2C69
:10263000DC2CCC24C80ED91EEA1EFB1EB501F80105
:10264000808191810E94650B6CE973E0F8018081C3
:1026500091810E94280DB701A601F8018081918126
:102660000E947D0BC214D304E404F50440F0C114AD
:10267000D104E104F10419F0160127013501F4E059
:10268000AF0EB11C8CEEA81683E0B80609F0A4CFFB
:102690006EE670E0F801808191810E94FD01B30136
:1026A000F801808191810E946B0BF8016482758230
:1026B000C682D782E086F186C3010F900F900F90FB
:1026C0000F90DF91CF911F910F91FF90EF90DF90CE
:1026D000CF90BF90AF909F908F907F906F905F90C2
:1026E0004F903F902F900895AF92BF92CF92DF927C
:1026F000EF92FF920F931F93CF93DF93CDB7DEB787
:10270000CA5FD1090FB6F894DEBF0FBECDBF8C01F2
:10271000CE0101965C018AEFF50111928A95E9F7E5
:1027200088ECE82EF12C6DE870E0F8018081918151
:102730000E94FD01B701F801808191810E94650B23
:1027400069E870E0F801808191810E94FD016701D4
:10275000FAEFCF0ED11CB601F801808191810E9461
:102760006B0B2AEF30E0A501B7018DE295E00E94E6
:102770004307B601F801808191810E946B0B7601BD
:10278000F0EBCF16F4E0DF0671F6C8010E94C2122A
:10279000C650DF4F0FB6F894DEBF0FBECDBFDF913E
:1027A000CF911F910F91FF90EF90DF90CF90BF904E
:1027B000AF90089585ED8093BC008091760590914F
:1027C0007705A0917805B09179050796A11DB11DF7
:1027D00023E0B695A795979587952A95D1F72091EF
:1027E000BC0024FD03C01092740508954091760545
:1027F000509177056091780570917905452B462BAE
:10280000472B69F30097A105B10541F025E32A950F
:10281000F1F700000197A109B109E1CF8091750599
:102820000C94EF041F920F920FB60F9211242F9366
:102830003F934F935F936F937F938F939F93AF9348
:10284000BF93EF93FF938EE995E00E94A302FF915F
:10285000EF91BF91AF919F918F917F916F915F9118
:102860004F913F912F910F900FBE0F901F90189591
:102870001F920F920FB60F9211242F938F939F9355
:10288000EF93FF93E091AE05F091AF058081E09169
:10289000B405F091B50582FD1BC090818091B7050C
:1028A0008F5F8F732091B805821741F0E091B705D3
:1028B000F0E0E256FA4F958F8093B705FF91EF91C4
:1028C0009F918F912F910F900FBE0F901F90189591
:1028D0008081F4CF1F920F920FB60F9211242F9385
:1028E0003F938F939F93AF93BF93809117059091E0
:1028F0001805A0911905B0911A053091160523E02D
:10290000230F2D3758F50196A11DB11D20931605F3
:102910008093170590931805A0931905B0931A0595
:1029200080911B0590911C05A0911D05B0911E057D
:102930000196A11DB11D80931B0590931C05A093CA
:102940001D05B0931E05BF91AF919F918F913F914F
:102950002F910F900FBE0F901F90189526E8230F10
:102960000296A11DB11DD2CF1F920F920FB60F92EA
:1029700011242F933F934F935F936F937F938F9384
:102980009F93AF93BF93EF93FF93E0910401F09176
:1029900005010995FF91EF91BF91AF919F918F91A3
:1029A0007F916F915F914F913F912F910F900FBE4B
:1029B0000F901F9018951F920F920FB60F9211242F
:1029C0002F933F934F935F936F937F938F939F9337
:1029D000AF93BF93EF93FF93E0910201F091030156
:1029E0000995FF91EF91BF91AF919F918F917F9149
:1029F0006F915F914F913F912F910F900FBE0F906C
:102A00001F9018951F920F920FB60F9211242F93BB
:102A10003F934F935F936F937F938F939F93AF9366
:102A2000BF93EF93FF938091B900887F803609F4BC
:102A30004AC0F0F5883209F4A7C018F5803109F4CE
:102A40009BC0B8F4882309F4F9C0883009F494C015
:102A5000FF91EF91BF91AF919F918F917F916F9176
:102A60005F914F913F912F910F900FBE0F901F904C
:102A70001895883109F488C0803251F78093720527
:102A800014C0803409F49DC040F48033B9F3883316
:102A9000F9F68093720585ECB0C0803509F485C0E5
:102AA000883509F496C0883499F60E94DA13D0CF9D
:102AB000883909F48CC038F5883729F050F4883605
:102AC00011F0803729F683E0809374051092150584
:102AD00057C0883809F47BC0803919F0803809F074
:102AE000B7CF80911505803208F071C0E0911505CF
:102AF00081E08E0F809315058091BB00F0E0EB50D4
:102B0000FB4F80833DC0803B39F0E0F4803A09F40C
:102B100079C0883A09F09CCF84E0809374051092C4
:102B2000F4041092F304E0912505F091260509952F
:102B30008091F30481110FC081E08093F30410921F
:102B4000D30409C0803C09F4A6CF883C09F4A3CF84
:102B5000883B09F07DCFE091F40481E08E0F8093F3
:102B6000F404F0E0ED52FB4F80818093BB00909124
:102B7000F4048091F30429C080914F058093BB0039
:102B800085EC8093BC0064CF9091710580917005B5
:102B9000981758F5E091710581E08E0F80937105CB
:102BA000F0E0E05BFA4F8081E9CFE091710581E0D0
:102BB0008E0F809371058091BB00F0E0E05BFA4FCF
:102BC000808390917105809170059817C8F285E80F
:102BD000D8CFE091710581E08E0F809371058091CF
:102BE000BB00F0E0E05BFA4F8083809173058111B8
:102BF0005CCF81E080934E0584EA8093BC00109204
:102C0000740526CF85EC8093BC00109274058091EA
:102C10001505803230F4E0911505F0E0EB50FB4FE4
:102C200010826091150570E0E0912305F091240574
:102C300085EF94E00995109215050ACF1092720560
:102C400034CF1F920F920FB60F9211242F933F9300
:102C50004F935F936F937F938F939F93AF93BF93A4
:102C6000EF93FF93E0912105F0912205309749F011
:102C7000A685B7858585968D91FF14C09C91892383
:102C8000A1F4FF91EF91BF91AF919F918F917F91AF
:102C90006F915F914F913F912F910F900FBE0F90C9
:102CA0001F9018959C91892361F7A389B4899C9101
:102CB0008589809589238C93868997890197F1F777
:102CC000608D718DA685B785558538E020E0CB01F4
:102CD0000197F1F7822F90E095958795282F4C91D9
:102CE000452309F02068315091F7868D81FD2095AC
:102CF0008091200590E001968F73992730911F05F0
:102D0000381799F0A0912005B0E0AE58BB4F2C9336
:102D100080932005828D938D0197F1F7A389B48963
:102D20008C919589892B8C93ACCF868D8160868F11
:102D3000F1CF1F920F920FB60F9211242F933F9352
:102D40004F935F936F937F938F939F93AF93BF93B3
:102D5000EF93FF93E0910001F09101010995FF913C
:102D6000EF91BF91AF919F918F917F916F915F9103
:102D70004F913F912F910F900FBE0F901F9018957C
:102D80001092A1051092A00548EE53E060E070E0BB
:102D90004093A2055093A3056093A4057093A505E5
:102DA00081E791E090939F0580939E0585EC90E0EC
:102DB0009093AB058093AA0584EC90E09093AD05C9
:102DC0008093AC0580EC90E09093AF058093AE05C6
:102DD00081EC90E09093B1058093B00582EC90E097
:102DE0009093B3058093B20586EC90E09093B5057F
:102DF0008093B4051092B7051092B8051092B905EA
:102E00001092BA0510923E0610923D0640933F067E
:102E100050934006609341067093420683E891E028
:102E200090933C0680933B0610924D0610924E06FE
:102E300010924F06109250061092510610925206B0
:102E40001092530610925406109255061092560690
:102E500010925706109258061092590610925A0670
:102E600010925B0610925C061092900710928F07EA
:102E7000109293071092940710929507109297075B
:102E800010929607109299071092980710929B073C
:102E900010929A0781E2E8EFF2E0ACE9B7E0019026
:102EA0000D928A95E1F781E1E9E1F3E0ADEBB7E05E
:102EB00001900D928A95E1F71092D2071092D307F4
:102EC0001092D4071092D5071092D6071092D70708
:102ED0001092D8071092D9071092DA071092DB07E8
:102EE0001092DC071092DD071092DE071092DF07C8
:102EF0001092E0071092E1071092E2071092E407A7
:102F00001092E3071092E9071092EA071092EB077C
:102F10001092EC071092EE071092ED071092F00756
:102F20001092EF071092F1071092F3071092F20738
:102F30001092F4071092F6071092F5071092F70717
:102F40001092F8071092F9071092FA071092FB07F7
:102F50001092FC071092FD071092FE0780E497E79D
:102F6000ABE1B0E08093FF0790930008A0930108C5
:102F7000B0930208109203081092040810920508FA
:102F80001092060810920708109208088FE090E04F
:102F900090930A0880930908EAE0F1E0ADE0B8E018
:102FA00001900D928A95E1F791E090931C081092A0
:102FB0001D0810921E0810921F08109220081092EF
:102FC00021081092220810922308109224081092CF
:102FD000250810922C0810922D0810922E0810929D
:102FE0002F08109230081092310810923208109277
:102FF0003308109234081092350810923608109257
:103000003A081092390840933B0850933C0860936B
:103010003D0870933E0825E931E03093380820934D
:10302000370810924E0810924D08109250081092D6
:103030004F081092520810925108109254081092A2
:103040005308809155088E7F8D7F80935508869513
:103050008170682F692788E00E94320361E088E070
:103060000E947E03E4E9F2E0E491E0934708E0E89F
:10307000F2E0E491F0E0EE0FFF1FE259FD4F859181
:103080009491909349088093480860E086E00E94FC
:103090007E038091550881FD04C061E086E00E94B6
:1030A000320386E080934308E2E9F2E0E491E093A2
:1030B0004408EEE7F2E0E491F0E0EE0FFF1FEC5978
:1030C000FD4F85919491909346088093450808950B
:1030D000CF93DF93CDB7DEB7C956D1090FB6F894B9
:1030E000DEBF0FBECDBF789484B5826084BD84B549
:1030F000816084BD85B5826085BD85B5816085BDF3
:1031000080916E00816080936E00109281008091AA
:103110008100826080938100809181008160809332
:103120008100809180008160809380008091B10057
:1031300084608093B1008091B00081608093B00082
:1031400080917A00846080937A0080917A00826016
:1031500080937A0080917A00816080937A008091D8
:103160007A00806880937A001092C10010928906DC
:1031700010928A0610928B0610928C0610924906C5
:1031800010924A0610924B0610924C060E941104AF
:103190004B015C017C016B0128EBC20E2BE0D21EBF
:1031A000E11CF11C0E941104681579058A059B0534
:1031B00028F0C616D706E806F906A0F768EE73E011
:1031C00080E090E00E94DF0360E072EC81E090E03C
:1031D0000E947C010E9411046093490670934A0684
:1031E00080934B0690934C066AE273E08EE995E07B
:1031F0000E94280D0E9411044B015C017C016B01AF
:103200004AE0C40ED11CE11CF11C0E941104681597
:1032100079058A059B0528F0C616D706E806F90643
:10322000A0F781E080935D060E9411046093490637
:1032300070934A0680934B0690934C066BE373E0C1
:103240008EE995E00E94280D88E199E20FB6F89486
:10325000A895809360000FBE9093600061E08AE0C3
:103260000E947E0361E08AE00E94320310925208BD
:10327000109251081092500810924F0810924E0868
:1032800010924D088DE991E0909354088093530873
:1032900090914308963108F047C02DEB30E0309311
:1032A0004E0820934D082BE931E0309350082093CD
:1032B0004F082CE231E030935208209351082091BE
:1032C000680084E0983048F031E09E3008F430E047
:1032D00081E001C0880F3A95EAF7822B809368005D
:1032E0002DE630E0983050F02BE630E09E3030F0A4
:1032F0002CE630E0963110F030E020E030934B08BF
:1033000020934A08292F30E0983008F044C381E028
:1033100001C0880F9A95EAF780934C088091530872
:10332000909154080197F1F78091510890915208BB
:10333000892B49F1E0912105F091220558E0E7330E
:10334000F50709F1309739F0A389B4899C918589F3
:10335000809589238C93809155088E7F80935508A2
:103360001092200510921F0587E398E090932205A4
:1033700080932105E0914A08F0914B08808190915B
:103380004C08892B808362E473E087E398E00E9415
:103390006D0C0E948D0907E318E010932E05009331
:1033A0002D05109228051092270510927B0510928A
:1033B0009D050E94D10480E592E0909326058093BC
:1033C000250581E592E090932405809323051093D1
:1033D0003D0500933C058DE295E090933F05809379
:1033E0003E058CE395E00E94C212109327080093DB
:1033F00026088EEC97E090932908809328088CE3A8
:1034000095E090932B0880932A08A89519821A8238
:103410001B821C8200914005109141056AE071E019
:1034200080913C0590913D050E94FD01B80180917D
:103430003C0590913D050E946B0B24E030E0CE01ED
:1034400001964C01AC01B80180913E0590913F0579
:103450000E94EF07C980D12CF12CE12CFC2CEE242A
:10346000DD24CC244A8150E070E060E0BA015527A9
:1034700044274C0D5D1D6E1D7F1D8C81480F511D15
:10348000611D711D8B8190E0B0E0A0E0CC24D82EAE
:10349000E92EFA2EC40ED51EE61EF71EC092420576
:1034A000D0924305E0924405F09245056BEF70E041
:1034B00080913C0590913D050E94FD01B701A60158
:1034C00080913C0590913D050E947D0BC092460580
:1034D000D0924705E0924805F092490586E0D40174
:1034E0001D928A95E9F726E030E0A40170E060E0E3
:1034F00080913E0590913F050E94EF074980512C35
:10350000712C612C742C6624552444248A8190E00B
:10351000B0E0A0E0DC0199278827840D951DA61D49
:10352000B71D2C81820F911DA11DB11D4B80512C07
:10353000712C612C762C652C542C4424480E591E79
:103540006A1E7B1EED80F12CFE2CEE248E81E80E8F
:10355000F11CC4010E94E401C82ED12C80913C05CD
:1035600090913D05EC14FD0409F022C262E271E085
:103570000E94FD01B70180913C0590913D050E949C
:10358000650B68E473E080913C0590913D050E94D5
:10359000280DB70180913C0590913D050E946B0B71
:1035A00011E06AE473E080913C0590913D050E9432
:1035B000280D2AE0B301A20180913C0590913D05C0
:1035C0000E94CD0A6AE573E080913C0590913D052B
:1035D0000E94280D612F70E080913C0590913D057F
:1035E0000E944F0B112339F0BDE24B16B1E05B0690
:1035F0006104710468F444EB50E060E070E08CE337
:1036000095E00E94060C54EB452E512C612C712C38
:103610004092340550923505609236057092370518
:1036200060EC78EA80E090E0A30192010E941D2105
:10363000CA01B9010E948F2020E030E040E05FE342
:103640000E9491210E94FD21609330057093310505
:10365000809332059093330560E674E580E090E056
:10366000A30192010E941D21CA01B9010E948F206D
:1036700020E030E040E05FE30E9491210E94FD21C4
:103680006093290570932A0580932B0590932C0550
:1036900061E673E087E398E00E94280D40913005D1
:1036A00050913105609132057091330587E398E0C0
:1036B0000E947D0B68E773E087E398E00E94280D85
:1036C0004091290550912A0560912B0570912C0598
:1036D00087E398E00E947D0B80E180938100109247
:1036E000800082E19AE7909387008093860084E1CE
:1036F000809381008FE09EE0909301018093000110
:1037000081E080936F0062E083E00E947E0368EEB8
:1037100073E080E090E00E94DF0384E29AE09093FF
:1037200005018093040180916900837F8460809308
:103730006900E99A68EE73E080E090E00E94DF03A0
:1037400040914605509147056091480570914905A3
:10375000C0903005D0903105E0903205F0903305EF
:103760000091060110910701209108013091090193
:1037700080E00E94A50E5E01E5E5AE0EB11C0E9440
:103780001104672B682B692B09F42EC10E941104C8
:1037900000914A0510914B0520914C0530914D0543
:1037A000601771078207930708F47BC300914A05ED
:1037B00010914B0520914C0530914D056B017C011A
:1037C000C01AD10AE20AF30A970186010A3F1105DD
:1037D0002105310508F410C160934A0570934B052B
:1037E00080934C0590934D0584EF91E0A0E0B0E00C
:1037F0008093550690935606A0935706B0935806AB
:103800001092590610925A0610925B0610925C06AE
:1038100080914D0690914E06A0914F06B0915006B2
:103820008093510690935206A0935306B09354068A
:103830000E94110460934D0670934E0680934F06CC
:10384000909350068EE995E00E947502843611F43B
:103850000E94B1090E9411046093490670934A06C0
:1038600080934B0690934C060E9411046B017C01DF
:103870006EE973E08EE995E00E94280D2AE041E0B0
:1038800050E060E070E08EE995E00E94CD0A65EAC4
:1038900073E08EE995E00E94280D2AE0B701A601A9
:1038A0008EE995E00E94CD0A6FE573E08EE995E020
:1038B0000E94280D80914D0690914E06A0914F06D2
:1038C000B0915006B701A601481B590B6A0B7B0B40
:1038D0002AE08EE995E00E94CD0A6FE573E08EE95B
:1038E00095E00E94280D40914D0650914E06609142
:1038F0004F06709150068091510690915206A0910A
:103900005306B0915406481B590B6A0B7B0B2AE0F7
:103910008EE995E00E94CD0A69EA73E08EE995E0B0
:103920000E94280D0E941104AB01BC012AE08EE91F
:1039300095E00E94CD0A6BEA73E08EE995E00E9463
:103940006D0C0E9411046B017C012B013C0192E083
:10395000490E511C611C711C0E9411046C157D05DF
:103960008E059F0528F04616570668067906A0F7CB
:103970008EE995E00E947502843611F40E94B10927
:103980000E94110460934D0670934E0680934F067B
:103990009093500631C09E3040F42850310981E0A8
:1039A00001C0880F2A95EAF7B7CC2E503109F7CF1E
:1039B00068E171E00E94FD01B60180913C059091A3
:1039C0003D050E94650B68E473E080913C05909191
:1039D0003D050E94280DB70180913C0590913D0561
:1039E0000E946B0B10E0DDCD0E9411046230710566
:1039F0008105910508F0CACE809146059091470552
:103A0000A0914805B091490581309D42A143B14044
:103A100008F450C2109246051092470510924805CE
:103A2000109249058CE395E00E9474130E941104E2
:103A3000009138051091390520913A0530913B05E8
:103A40006B017C01C01AD10AE20AF30A2091340505
:103A5000309135054091360550913705A8EEB3E019
:103A60000E943F216C157D058E059F0538F08091E1
:103A70003608882309F439C21092360863E671E0EB
:103A800087E398E00E94FD0140913405509135058F
:103A9000609136057091370587E398E00E947D0BB1
:103AA0000091060110910701209108013091090150
:103AB0000F5F1F4F2F4F3F4F0093060110930701D9
:103AC0002093080130930901409146055091470524
:103AD0006091480570914905C0903005D09031053E
:103AE000E0903205F090330580E00E94A50E0E9420
:103AF0001104609338057093390580933A059093CB
:103B00003B05D501E4E11D92EA95E9F761E08FE814
:103B100096E00E94540462EB73E08FE896E00E9406
:103B200061227C01009709F4F8C107960E94692080
:103B3000E4E0F0E08436910530F4E3E0F0E00A9749
:103B400010F4E2E0F0E0BF016A56794FEE0DFF1D80
:103B5000F12CE12C30E020E020FD35C0808547814C
:103B600090ED940F9A3060F09FEB940F963008F42C
:103B7000C4C19FE9940F963008F0C1C199EA940F2F
:103B800040EDC42EC80EAA96CFAEAA974C2D4A304F
:103B900048F04FEB480F463008F0B5C18753AA965E
:103BA0008FAFAA979295907FAA965FADAA97950F2F
:103BB000243131052CF4A5014E0D5F1DDA019C93D3
:103BC000BFEFEB1AFB0ADB018D91BD018D3019F4BB
:103BD0008C918A3041F031962F5F3F4F2115B1E033
:103BE0003B0709F0B9CFEFE8F6E0DF0140E051E034
:103BF0001D9241505040E1F7E114F10409F4B5C0C1
:103C000051E0E51AF10809F4B0C081E080932F0576
:103C100064E571E087E398E00E94FD01B70187E366
:103C200098E00E944F0B84E5E9E1F1E0D4010190B6
:103C30000D928A95E1F77401D701EC91EA0DFB2D05
:103C4000F11D808111969C911197892309F468C117
:103C500014966D917C9180912608909127080E947E
:103C60006D0CF7012280338030920A0820920908F7
:103C7000F501818190E0B0E0A0E0B82FAA27992754
:103C80008827428150E070E060E0BA015527442760
:103C9000840F951FA61FB71F2481820F911DA11DA0
:103CA000B11D438150E070E060E0762F652F542F06
:103CB0004427840F951FA61FB71F8093E907909391
:103CC000EA07A093EB07B093EC07F8E02F16310456
:103CD00008F03DC10E9411046093FB077093FC073C
:103CE0008093FD079093FE071092F1071092F3075F
:103CF0001092F207D50115968C91159790E0982FA8
:103D0000882716962C91820F911D9093EE07809331
:103D1000ED0710922F050E9411046B017C010E9497
:103D200011046C197D098E099F09693B7B4081054F
:103D30009105A8F3409146055091470560914805CB
:103D400070914905C0903005D0903105E090320562
:103D5000F0903305009106011091070120910801B0
:103D60003091090181E00E94A50E80910708882307
:103D700009F486C1E9988EE492E09093050180935E
:103D8000040110926F0080912C08882309F440C030
:103D900066E471E080912608909127080E94FD0159
:103DA00040912E0850912F08609130087091310891
:103DB00080912608909127080E947D0B80912A0807
:103DC00090912B080E94741380912A0890912B08DF
:103DD00040912E0850912F08609130087091310861
:103DE000DC0116960D911D912D913C91199740176C
:103DF00051076207730711F00E94900B10922C0874
:103E000010922E0810922F0810923008109231084C
:103E100080912D08882371F167E371E08091260875
:103E2000909127080E94FD0140913208509133087B
:103E30006091340870913508809126089091270888
:103E40000E947D0B409132085091330860913408F4
:103E50007091350880912A0890912B080E94060CD9
:103E600010923208109233081092340810923508DC
:103E700010922D08109207088FE090E090930A08A6
:103E8000809309086AEB73E08091260890912708D7
:103E90000E946D0C68EE73E080E090E00E94DF030A
:103EA000F1CF60934A0570934B0580934C05909336
:103EB0004D057CCC409146055091470560914805E1
:103EC000709149058091420590914305A091440568
:103ED000B0914505481759076A077B0709F4A6CD35
:103EE0008CE395E00E94900BA1CD8091250888235A
:103EF00009F407CE10922508C1CD99EC40CEAA96C0
:103F00009FADAA973DCE4FE9480F463010F4875534
:103F100046CEAA969FAFAA9745CEF12CE12C63CE50
:103F2000F6E0EF0EF11CAE14BF0409F085CED5010A
:103F30008C9183FF99CE6DE271E08091260890917B
:103F400027080E94120A81E0809336088DCEBDE0DA
:103F50002B16310409F0DDCE90E080E00E949D0C2C
:103F6000F501808191E0282F287083FF90E09093E5
:103F70002C0891E0382F347082FF90E090932D0848
:103F800081E080930708222309F478C0D5011596B3
:103F90008C9190E0B0E0A0E0B82FAA27992788275D
:103FA000F501468150E070E060E0BA0155274427F2
:103FB000840F951FA61FB71F2085820F911DA11D7D
:103FC000B11D478150E070E060E0762F652F542FDF
:103FD0004427840F951FA61FB71F80932E08909328
:103FE0002F08A0933008B093310829E0332309F457
:103FF00090CE30E0F501E20FF31F808190E0B0E059
:10400000A0E0B82FAA2799278827E8E5F0E0EC0F71
:10401000FD1FE20FF31F4081840F911DA11DB11DF3
:10402000E6E5F0E0EC0FFD1FE20FF31F408150E0EA
:1040300070E060E0BA0155274427840F951FA61F42
:10404000B71FF7E5CF2ED12CCC0EDD1E2C0D3D1D5C
:10405000F901408150E070E060E0762F652F542F29
:104060004427840F951FA61FB71F80933208909393
:104070003308A0933408B09335084BCE25E0B6CF73
:10408000E0E0F0E0EF2B09F47ACB0E948F02882366
:1040900009F475CB0E94000072CB85E991E0909302
:1040A0003808809337088091210590912205875325
:1040B000984071F4E0914A08F0914B08908180910A
:1040C0004C08809589238083109222051092210547
:1040D0000895FC0188279927E89421912032E9F37B
:1040E000293010F02E30C8F32B3241F02D3239F444
:1040F000689404C00E948720820F911D2191205353
:104100002A30C0F31EF4909581959F4F08957AE070
:10411000979F902D879F802D910D11240895E894ED
:1041200009C097FB3EF490958095709561957F4FFF
:104130008F4F9F4F9923A9F0F92F96E9BB279395AD
:10414000F695879577956795B795F111F8CFFAF4BD
:10415000BB0F11F460FF1BC06F5F7F4F8F4F9F4FEE
:1041600016C0882311F096E911C0772321F09EE84C
:10417000872F762F05C0662371F096E8862F70E0B2
:1041800060E02AF09A95660F771F881FDAF7880F8C
:104190009695879597F9089597F99F6780E870E05D
:1041A00060E008959FEF80EC089500240A941616AD
:1041B000170618060906089500240A941216130615
:1041C000140605060895092E0394000C11F48823A3
:1041D00052F0BB0F40F4BF2B11F460FF04C06F5FBF
:1041E0007F4F8F4F9F4F089557FD9058440F551F95
:1041F00059F05F3F71F04795880F97FB991F61F069
:104200009F3F79F087950895121613061406551FDF
:10421000F2CF4695F1DF08C0161617061806991F4B
:10422000F1CF86957105610508940895E894BB2740
:1042300066277727CB0197F90895A1E21A2EAA1BCA
:10424000BB1BFD010DC0AA1FBB1FEE1FFF1FA21746
:10425000B307E407F50720F0A21BB30BE40BF50B43
:10426000661F771F881F991F1A9469F760957095CC
:10427000809590959B01AC01BD01CF0108950E94EE
:104280008121A59F900DB49F900DA49F800D911D3D
:10429000112408952F923F924F925F926F927F92D6
:1042A0008F929F92AF92BF92CF92DF92EF92FF9246
:1042B0000F931F93CF93DF93CDB7DEB7CA1BDB0BF2
:1042C0000FB6F894DEBF0FBECDBF09942A88398897
:1042D00048885F846E847D848C849B84AA84B9849E
:1042E000C884DF80EE80FD800C811B81AA81B981AA
:1042F000CE0FD11D0FB6F894DEBF0FBECDBFED01BE
:104300000895A29FB001B39FC001A39F700D811DAE
:104310001124911DB29F700D811D1124911D0895CE
:104320005058BB27AA270E94A8210C94E3200E9482
:10433000D52038F00E94DC2020F039F49F3F19F49A
:1043400026F40C94D2200EF4E095E7FB0C94CC20DC
:10435000E92F0E94F42058F3BA1762077307840705
:10436000950720F079F4A6F50C9416210EF4E0954B
:104370000B2EBA2FA02D0B01B90190010C01CA011F
:10438000A0011124FF27591B99F0593F50F4503ECA
:1043900068F11A16F040A22F232F342F4427585FBC
:1043A000F3CF469537952795A795F0405395C9F7D4
:1043B0007EF41F16BA0B620B730B840BBAF091508C
:1043C000A1F0FF0FBB1F661F771F881FC2F70EC02B
:1043D000BA0F621F731F841F48F4879577956795FE
:1043E000B795F7959E3F08F0B0CF9395880F08F0EA
:1043F0009927EE0F9795879508950E940422689457
:10440000B1110C94172108950E94FC2088F09F5749
:1044100098F0B92F9927B751B0F0E1F0660F771FE8
:10442000881F991F1AF0BA95C9F714C0B13091F0DE
:104430000E941621B1E008950C941621672F782F61
:104440008827B85F39F0B93FCCF3869577956795A3
:10445000B395D9F73EF490958095709561957F4F0F
:104460008F4F9F4F089597FB072E16F4009407D0A7
:1044700077FD09D00E944D2207FC05D03EF49095AF
:1044800081959F4F0895709561957F4F0895EE0F28
:10449000FF1F0590F491E02D0994AA1BBB1B51E16D
:1044A00007C0AA1FBB1FA617B70710F0A61BB70BA4
:1044B000881F991F5A95A9F780959095BC01CD0149
:1044C0000895FB0151915523A9F0BF01DC014D91E5
:1044D00045174111E1F759F4CD010190002049F051
:1044E0004D9140154111C9F3FB014111EFCF81E01E
:1044F00090E001970895AEE0B0E0E1E8F2E20C94BC
:1045000058210D891E8986E08C831A8309838FEFD9
:104510009FE79E838D83AE01475E5F4F6F89788DE5
:10452000CE0101960E949E222F813885020F131F13
:10453000F80110822E96E4E00C947421ABE0B0E018
:10454000E4EAF2E20C944A217C013B018A01FC017D
:1045500017821682838181FFC8C1CE0101965C015A
:10456000F7019381F30193FD859193FF81913F01C1
:10457000882309F453C1853239F493FD859193FF63
:1045800081913F01853229F4B70190E00E948E2489
:10459000E7CF912C212C312CFFE1F31538F08B3231
:1045A00011F190F4803209F1833229F137FC3CC0DB
:1045B00020ED280F2A3050F536FE20C08AE0989E64
:1045C000200D1124922E06C08D3291F0803371F7A8
:1045D000689430F8F30193FD859193FF81913F0139
:1045E0008111DACF21C0689431F8689432F8F2CFA3
:1045F000689433F8EFCF689434F8ECCFEAE02E9E5D
:10460000200D1124222E689435F8E4CF8E3229F43F
:1046100036FC04C1689436F8DDCF8C3619F4689402
:1046200037F8D8CF8836B1F2982F9F7D95549330C4
:10463000E0F08336A1F18337C1F1833509F063C01F
:104640002801F2E04F0E511CF801C080D180692D85
:1046500070E036FC02C06FEF7FEFC6010E94782445
:104660004C01689437F882010AC00C5F1F4FFFE3CA
:10467000F98388248394912C6501E89437F833FEFC
:104680002DC0522C8114910471F5552009F468CF86
:10469000B70180E290E00E948E245A94F6CFF80190
:1046A000808189830E5F1F4FE4CF2801F2E04F0E17
:1046B000511CF801C080D180692D70E036FC02C029
:1046C0006FEF7FEFC6010E9483244C018201D5CF9A
:1046D000B70180E290E00E948E242A9428141904E5
:1046E00009F0B0F7CECFF60137FC859137FE819106
:1046F0006F01B70190E00E948E2451105A94F1E0AE
:104700008F1A9108BFCF843619F0893609F077C027
:10471000F80137FE6BC060817181828193810C5FEB
:104720001F4FF32DFF763F2E97FF09C09095809580
:10473000709561957F4F8F4F9F4F689437F82AE0AF
:1047400030E0A5010E94BE24C82ECA188C2C432C30
:1047500036FE0CC0E89440F8C91440F434FE05C09D
:1047600032FC03C0F32DFE7E4F2E892C44FE95C0F3
:10477000FE01EC0DF11D8081803309F087C0242DEE
:10478000297E422E842D8870582E43FC95C040FE11
:104790008FC09C2C821418F42C0C922C981844FE78
:1047A00091C0B70180E390E00E948E2442FE09C0D0
:1047B00088E790E041FE02C088E590E0B7010E94E2
:1047C0008E24C91408F48AC0CA94D12C9FEFC91A48
:1047D000D90ACA0CDB1CF60182916F01B70190E087
:1047E0000E948E24AC14BD04B1F74FCF608171815B
:1047F000072E000C880B990B0E5F1F4F92CFD32C06
:10480000E894D4F82AE030E0853739F1232D297F68
:10481000D22E8F3601F148F48835A9F0F701868150
:1048200097812B96E2E10C946621803749F0883716
:10483000A9F7D4FE02C06894D2F820E130E00DC0A0
:104840006894D4F8F6CF34FE03C0822F8660D82E49
:1048500020E132E002C028E030E0F801D7FE0FC0CE
:1048600060817181828193810C5F1F4FA5010E943D
:10487000BE24C82ECA183D2CE89437F867CF608153
:10488000718190E080E00E5F1F4FF0CF42FC02C0CC
:10489000839478CF8394839475CF842D867809F49C
:1048A00071CFF6CFB70180E290E00E948E2483940E
:1048B0008214C0F3512C73CF522C5818821408F470
:1048C0006ECFF8CF842D867809F47BCF8BE241FE42
:1048D00080E247FC8DE2B70190E071CFB70180E341
:1048E00090E00E948E249A946CCF8FEF9FEF99CF27
:1048F000FC010590615070400110D8F780959095AB
:104900008E0F9F1F0895FC016150704001900110AF
:10491000D8F7809590958E0F9F1F08950F931F9342
:10492000CF93DF93182F092FEB018B8181FD09C0F5
:104930001FEF0FEF812F902FDF91CF911F910F91DC
:10494000089582FF14C02E813F818C819D8128179C
:1049500039073CF4E881F981CF0101969983888376
:1049600010838E819F8101969F838E83E3CFE8859C
:10497000F985812F0995892BA1F3DACFFA01AA27AE
:10498000283051F1203181F1E8946F936E7F6E5F92
:104990007F4F8F4F9F4FAF4FB1E03ED0B4E03CD040
:1049A000670F781F891F9A1FA11D680F791F8A1F23
:1049B000911DA11D6A0F711D811D911DA11D20D08A
:1049C00009F468943F912AE0269F11243019305D44
:1049D0003193DEF6CF010895462F4770405D419335
:1049E000B3E00FD0C9F7F6CF462F4F70405D4A3382
:1049F00018F0495D31FD4052419302D0A9F7EACF4A
:104A0000B4E0A6959795879577956795BA95C9F778
:104A100000976105710508959B01AC010A2E06946B
:104A20005795479537952795BA95C9F7620F731F24
:104A3000841F951FA01D089511E0C1E5D1E004C0B9
:104A4000FE010E9447222196C235D107C9F7F8948A
:024A5000FFCF96
:104A520042074E024E020100000000000000040066
:104A620000050000070000090000800000BC0300F0
:104A7200400400CC0300200800DA0301800100DFBB
:104A82000301400500F103012009000104011002A5
:104A9200000804010806001A0401040A002A04019D
:104AA200020300310401010700430402800B00539A
:104AB2000402400C005A0400100D006A04000000B9
:104AC20000C5022102520212038302610275020032
:104AD200000000560629063F074F0222060F060075
:104AE2000600000000AA0621023F074F0206071E29
:104AF20007920652656C6179204F6666004C6F52D0
:104B0200612057616B650052656C6179204F6E3A86
:104B1200200052656C6179206F6E2053776974634F
:104B22006820626567696E73210052656D61696E06
:104B3200696E673A00466C6F77204D616C66756EE0
:104B42006374696F6E006D616320736574206170B8
:104B5200706575692025730D0A006D6163207365A8
:104B620074206170706B65792025730D0A006300F3
:104B72006D61632073657420636C617373202573A8
:104B82000D0A006D616320736574206472202564D0
:104B92000D0A006D6163207365742063682064638D
:104BA20079636C6520006D6163206A6F696E206FA6
:104BB200746161006E6F5F667265655F6368007342
:104BC200696C656E740062757379006D61635F7004
:104BD20061757365640064656E6965640061636331
:104BE2006570746564006D616320747820636E661D
:104BF200200025303278006D61635F74785F6F6BDF
:104C0200006D61635F6F6B00556E636F6E666972F4
:104C12006D6564207061636B6574006D61632074FF
:104C22007820756E636E6620006E6F74206F6B2045
:104C32006D6573736167652100617661696C61629C
:104C42006C65436F6D3A20006136306264363733EB
:104C5200383536306533663265373862316430361E
:104C6200646530323165623800373062336435371B
:104C720065643030323337373000564D4450565F1A
:104C8200317C315F564D4450560A00564D445052C5
:104C92005F005365747570002D0052656164204990
:104CA2006E74657276616C203A0020637263203AFA
:104CB20000556E636F6E6669726D65642050616344
:104CC2006B657473203A20004661696C6564204309
:104CD2006F6E6669726D6174696F6E73206265666C
:104CE2006F72652072656A6F696E203A2000564DB8
:104CF2004450455F003A323A007C005F564D4450C2
:104D020045006D61635F727820002E0052656C6110
:104D120079204F6E205377697463680052656C6125
:104D220079204F6E2054696D650053544F500052E4
:104D3200656C61792032204F6E2053776974636805
:104D42000052656C61792032204F6E2054696D6586
:104D52000053544F5020320052656C617920332049
:104D62004F6E205377697463680052656C617920D5
:104D720033204F6E2054696D650053544F502033D9
:104D82000052656C61792034204F6E20537769742C
:104D920063680052656C61792034204F6E2054693B
:104DA2006D650053544F5020340053544F502041EE
:104DB2004C4C2052454C41595300436F6E66696713
:024DC2000000EF
:107E0000112484B714BE81FFF0D085E080938100F7
:107E100082E08093C00088E18093C10086E0809377
:107E2000C20080E18093C4008EE0C9D0259A86E02C
:107E300020E33CEF91E0309385002093840096BBD3
:107E4000B09BFECF1D9AA8958150A9F7CC24DD24C4
:107E500088248394B5E0AB2EA1E19A2EF3E0BF2EE7
:107E6000A2D0813461F49FD0082FAFD0023811F036
:107E7000013811F484E001C083E08DD089C08234E0
:107E800011F484E103C0853419F485E0A6D080C0E4
:107E9000853579F488D0E82EFF2485D0082F10E0AE
:107EA000102F00270E291F29000F111F8ED06801E7
:107EB0006FC0863521F484E090D080E0DECF843638
:107EC00009F040C070D06FD0082F6DD080E0C81688
:107ED00080E7D80618F4F601B7BEE895C0E0D1E017
:107EE00062D089930C17E1F7F0E0CF16F0E7DF06D8
:107EF00018F0F601B7BEE89568D007B600FCFDCFD4
:107F0000A601A0E0B1E02C9130E011968C91119780
:107F100090E0982F8827822B932B1296FA010C0160
:107F200087BEE89511244E5F5F4FF1E0A038BF0790
:107F300051F7F601A7BEE89507B600FCFDCF97BE46
:107F4000E89526C08437B1F42ED02DD0F82E2BD052
:107F50003CD0F601EF2C8F010F5F1F4F84911BD097
:107F6000EA94F801C1F70894C11CD11CFA94CF0C13
:107F7000D11C0EC0853739F428D08EE10CD085E9AC
:107F80000AD08FE07ACF813511F488E018D01DD067
:107F900080E101D065CF982F8091C00085FFFCCF94
:107FA0009093C60008958091C00087FFFCCF809118
:107FB000C00084FD01C0A8958091C6000895E0E648
:107FC000F0E098E1908380830895EDDF803219F02E
:107FD00088E0F5DFFFCF84E1DECF1F93182FE3DFCA
:107FE0001150E9F7F2DF1F91089580E0E8DFEE27F6
:047FF000FF270994CA
:027FFE00040479
:0400000300007E007B
:00000001FF