:100000000C9452010C9486140C945F140C94CC152F
:100010000C94CC150C94CC150C947A010C947A01A8
:100020000C947A010C947A010C947A010C947A0164
:100030000C947A010C9444160C947A010C947A0175
:100040000C9415140C947A010C94E3130C94BD13C6
:100050000C947A010C947A010C947A010C947A0134
:100060000C94AD140C947A0150756C7365004C615E
:1000700073742041646472657373203A2000416494
:100080006472657373202D2D00202D2000466F7241
:100090006D61742066726F6D20616464723A200035
:1000A0002041646472657373203A00496E6372651F
:1000B0006D656E742041646472657373203A0053F9
:1000C00061766520436F756E746572203A005361E6
:1000D000766520416464726573733A200000000005
:1000E00000240027002A0000000008000201000090
:1000F0000304070000000000000000526561642056
:10010000436F756E746572203A00526561642041D8
:100110006464726573733A00435243204572726F90
:10012000720056616C6964204352433A0054726114
:100130006E736D6974200053657420496E74657226
:1001400076616C3A200053657420436F756E746558
:10015000723A2000446F776E6C696E6B2053697A37
:10016000653A00496E74657276616C203A002043EE
:100170005243203A002041646472657373203A0050
:10018000536176652055696E743332203A200043FE
:100190006F6E6669726D656400436F6E6E65637441
:1001A000696F6E204C6F73742100436F6E6E6563D0
:1001B00074696F6E204C6F737400436F6E66697262
:1001C0006D6174696F6E204661696C6564203A00E8
:1001D0003D3D3D3D3D3D3D3D3D3D3D3D3D3D3D206C
:1001E0004A6F696E204661696C6564003D3D3D3D26
:1001F0003D3D3D3D3D3D3D3D3D3D3D204A6F696EB0
:100200006564005472616E736D6974205061636B34
:10021000657420005472616E736D697420436F6E53
:100220006669726D6564205061636B657400436F2D
:10023000756E746572203A0052656D61696E696E03
:1002400067203A0041636B203A0052656A6F696E1D
:10025000436F756E746572203A00436F756E7465F6
:1002600072203A0000000000230026002900000050
:100270000000250028002B000404040404040404E6
:100280000202020202020303030303030102040841
:1002900010204080010204081020010204081020F0
:1002A0006B16851E11241FBECFEFD8E0DEBFCDBF79
:1002B00013E0A0E0B1E0E2ECF6E402C005900D929C
:1002C000A23BB107D9F727E0A2EBB3E001C01D9232
:1002D000AC33B207E1F711E0C1E5D1E004C02197EA
:1002E000FE010E944D20C035D107C9F70E94E917D1
:1002F0000C9454230C940000EAEDF4E0A089B18939
:1003000082E08C93A089B1891C92A485B5851C924A
:10031000A685B78580E18C93108EA489B58986E087
:100320008C93A289B3898C9180618C93A289B389C3
:100330008C9188608C93A289B3898C9180688C930E
:100340000288F389E02D80818F7D80830895FC01F0
:10035000E60FF11DA4ECB6E019968C9119978083F5
:1003600018968C911897818317968C911797828392
:1003700016968C91838384E00895FC0145E090E01B
:100380008CE8415089F0619158E0792F7627292F28
:1003900030E035952795922F70FF02C0982F922755
:1003A0006695515091F7EDCF892F0895EF92FF9206
:1003B0000F931F93CF93DF938C017B01D0E0C0E0BC
:1003C000F701EC0FFD1F6491662361F0D801ED91F8
:1003D000FC910190F081E02DC8010995892B11F065
:1003E0002196EECFCE01DF91CF911F910F91FF901B
:1003F000EF900895AF92BF92CF92DF92EF92FF926B
:100400000F931F93CF93DF936C017B018B01040F3C
:10041000151FEB015E01AE18BF08C017D10759F0D8
:100420006991D601ED91FC910190F081E02DC6011A
:100430000995892B79F7C501DF91CF911F910F9114
:10044000FF90EF90DF90CF90BF90AF900895089508
:1004500008950895FC01538D448D252F30E0842F9D
:1004600090E0821B930B541710F0CF9608950197DC
:100470000895FC01918D828D981761F0A28DAE0FC9
:10048000BF2FB11D5D968C91928D9F5F9F73928F50
:1004900090E008958FEF9FEF0895FC01918D828D7C
:1004A000981731F0828DE80FF11D858D90E0089549
:1004B0008FEF9FEF0895FC01918D228D892F90E0A1
:1004C000805C9F4F821B91098F73992708958AED55
:1004D00094E00E945B0221E0892B09F420E0822F46
:1004E000089580E090E0892B29F00E946702811135
:1004F0000C9400000895FC01A48DA80FB92FB11D24
:10050000A35ABF4F2C91848D90E001968F73992749
:10051000848FA689B7892C93A089B1898C91837027
:1005200080648C93938D848D981306C00288F38920
:10053000E02D80818F7D80830895EF92FF920F934D
:100540001F93CF93DF93EC0181E0888F9B8D8C8D7F
:1005500098131AC0E889F989808185FF15C09FB773
:10056000F894EE89FF896083E889F9898081837036
:10057000806480839FBF81E090E0DF91CF911F91E5
:100580000F91FF90EF900895F62E0B8D10E00F5F06
:100590001F4F0F731127E02E8C8D8E110CC00FB6DC
:1005A00007FCFACFE889F989808185FFF5CFCE0174
:1005B0000E947B02F1CFEB8DEC0FFD2FF11DE35A72
:1005C000FF4FF0829FB7F8940B8FEA89FB898081F7
:1005D0008062CFCFCF93DF93EC01888D8823B9F071
:1005E000AA89BB89E889F9898C9185FD03C080813E
:1005F00086FD0DC00FB607FCF7CF8C9185FFF2CFBB
:10060000808185FFEDCFCE010E947B02E9CFDF9193
:10061000CF91089590E0FC01E951FF4F2491FC0136
:10062000E457FD4F3491FC01E858FD4FE491EE236F
:10063000C9F0222339F0233001F1A8F4213019F157
:10064000223029F1F0E0EE0FFF1FE259FD4FA59196
:10065000B4918FB7F894EC91611126C030953E2388
:100660003C938FBF08952730A9F02830C9F024307B
:1006700049F7809180008F7D03C0809180008F7743
:1006800080938000DFCF84B58F7784BDDBCF84B5C6
:100690008F7DFBCF8091B0008F778093B000D2CF59
:1006A0008091B0008F7DF9CF3E2BDACFCF93DF93CF
:1006B00090E0FC01E457FD4F249188589D4FFC01C8
:1006C00084918823C9F090E0880F991FFC01E352C0
:1006D000FF4FA591B491FC01E259FD4FC591D49112
:1006E00061110DC09FB7F8948C91209582238C9353
:1006F0008881282328839FBFDF91CF91089562309E
:1007000051F49FB7F8943C91822F809583238C936A
:10071000E8812E2BEFCF8FB7F894EC912E2B2C93F2
:100720008FBFEACF3FB7F89480915B0490915C044F
:10073000A0915D04B0915E0426B5A89B05C02F3F33
:1007400019F00196A11DB11D3FBFBA2FA92F982FF7
:100750008827BC01CD01620F711D811D911D42E0F2
:10076000660F771F881F991F4A95D1F708958F92BA
:100770009F92AF92BF92CF92DF92EF92FF924B0186
:100780005C010E9492036B017C010E9492036C1930
:100790007D098E099F09683E734081059105A8F384
:1007A00021E0821A9108A108B10888EEC80E83E002
:1007B000D81EE11CF11C81149104A104B10429F795
:1007C000FF90EF90DF90CF90BF90AF909F908F9071
:1007D00008952FB7F8946091570470915804809150
:1007E000590490915A042FBF0895CF92DF92EF924F
:1007F000FF920F931F93CF93DF930E94E9036B0146
:100800007C018AED94E00E945B02892B89F0C09103
:100810008305D0918405E881F981008111818AEDF9
:1008200094E00E943902682FCE01F8010995E9CFC2
:100830000E94E9036C197D098E099F09693E734086
:1008400081059105F0F2DF91CF911F910F91FF90FB
:10085000EF90DF90CF9008954F925F926F927F92CA
:100860008F929F92AF92BF92EF92FF920F931F933E
:10087000CF93DF937C01C62F0E94E9034B015C01FB
:1008800088EE93E0C89F2001C99F500C1124052CCD
:10089000000C66087708D0E0C0E0A895CF3FD105EE
:1008A00009F0ACF487010C0F1D1FE801CE19DF0918
:1008B0008AED94E00E945B02892B49F08AED94E076
:1008C0000E943902F80181938F01A895EECF0E9412
:1008D000E903681979098A099B09461657066806CB
:1008E0007906D8F6CE01DF91CF911F910F91FF903D
:1008F000EF90BF90AF909F908F907F906F905F90A0
:100900004F90089520913304260F3327331F21324F
:100910003105ECF42091B004FC0190E080E024303B
:1009200069F082E00895A09133042191AC014D5EFD
:100930005B4FA40FB52FB11D2C930196861798F32A
:1009400080913304680F6093330480E0089581E060
:1009500008951092B00481E08093AF0410928A044D
:1009600061E082E10E940A0361E083E10E940A03E0
:10097000E9EBF0E080818E7F808380818D7F8083B2
:1009800088E48093B80085E48093BC000895CF93F9
:10099000DF9391E0909312048823B9F0C091B800DE
:1009A000D091BA008091BC008A7B8093BC0060E04B
:1009B00082E10E940A0360E083E10E940A030E9430
:1009C000A904D093BA00C093B800DF91CF910895E5
:1009D0008F929F92AF92BF92CF92DF92EF92FF924F
:1009E0000F931F93CF93DF93D091D904D13208F0A6
:1009F000D7C0182FC091D8040E9492036B017C01CC
:100A00008091B00481116BC082E08093B004109398
:100A1000AF048FEF8093AE041092AD04D093AC047A
:100A2000A8EBB4E0ECE8F4E080E0D81391C01092B9
:100A30008B0480918B04CC0FC82BC0938B048091C6
:100A40008A04813009F088C010928A040E949203BF
:100A50006B017C0180918B048093BB008091B20478
:100A60009091B304A091B404B091B504892B8A2B62
:100A70008B2BA1F00E9492030091B2041091B30459
:100A80002091B4043091B5046C197D098E099F0939
:100A9000061717072807390708F442C08091BC00E1
:100AA00083FDD8CF85EC8093BC000E9492036B013C
:100AB0007C018091B004823009F450C08091AE0472
:100AC0008F3F09F46FC08091AE04803209F46CC08E
:100AD0008091AE04803309F469C084E026C080911F
:100AE000B2049091B304A091B404B091B504892BE1
:100AF0008A2B8B2B09F484CF0E9492038090B2043E
:100B00009090B304A090B404B090B5046C197D0922
:100B10008E099F0986169706A806B90608F070CFB9
:100B20008091B1040E94C70485E01092B70410922E
:100B3000D9041092B604DF91CF911F910F91FF90CD
:100B4000EF90DF90CF90BF90AF909F908F900895DF
:100B50009D9191938F5F69CF85EEA5CF8091B2046F
:100B60009091B304A091B404B091B504892B8A2B61
:100B70008B2B09F49ECF0E9492030091B204109136
:100B8000B3042091B4043091B5046C197D098E0929
:100B90009F09061717072807390708F08ACFC0CF23
:100BA00081E0C3CF80E0C1CF82E0BFCF83E0BDCF83
:100BB0000895E091680480916704E81730F4F0E04C
:100BC000EE50FC4F808190E008958FEF9FEF0895E5
:100BD00090916804809167042FEF3FEF981748F4D5
:100BE000E92FF0E0EE50FC4F208130E09F5F9093C2
:100BF0006804C90108958091670490916804891B75
:100C0000990B0895CF92DF92EF92FF920F931F936B
:100C1000CF93DF937C01CB018A012091B60422237C
:100C200089F0EB016B01C40ED51ECC15DD0569F012
:100C30006991D701ED91FC910190F081E02DC70100
:100C40000995F3CF642F0E948204C801DF91CF91F0
:100C50001F910F91FF90EF90DF90CF900895CF9369
:100C6000DF931F92CDB7DEB769832091B6042223AC
:100C7000F9F02091D904203258F021E030E0FC0155
:100C80003383228390E080E00F90DF91CF9108952D
:100C90008091B704E82FF0E0E854FB4F99819083EE
:100CA0008F5F8093B7048093D90481E090E0ECCF0C
:100CB00061E0CE0101960E948204F7CFCF93C82F46
:100CC000692F87E795E00E942F066C2F87E795E054
:100CD000CF910C942F062091610430916204281763
:100CE000390771F490915F0480916004981741F086
:100CF000E0915F04F0E0EE54FC4F808190E00895B5
:100D00008FEF9FEF0895EF92FF920F931F93CF9372
:100D1000DF93DC015C96ED90FC905D97E114F104AB
:100D200079F481E090E013969C938E93129790E073
:100D300080E0DF91CF911F910F91FF90EF90089588
:100D40005196ED91FC91529750968C915097982F17
:100D500090950FB75E962C915E97122F127021FD21
:100D60006095F8942081112319F1282B2083E70145
:100D70002197F1F728E0462F50E0308160FF1AC03C
:100D8000382B3083E7012197F1F7BA017595679504
:100D9000215089F7112381F08081892380830FBF3F
:100DA0005C968D919C910197F1F781E090E0C1CF25
:100DB0002923DCCF3923E5CF9081892BEFCF2091F8
:100DC0006104309162042817390771F4809160043E
:100DD00020915F0490E0805C9F4F821B910960E44A
:100DE00070E00E94F81F089590E080E0089520913F
:100DF00061043091620428173907B9F490915F04B7
:100E000080916004981789F0E0915F04F0E0EE545F
:100E1000FC4F808120915F0430E02F5F3F4F2F73A4
:100E2000332720935F0490E008958FEF9FEF08959C
:100E300090E080E0089508952F923F924F925F9244
:100E40006F927F928F929F92AF92BF92CF92DF92DA
:100E5000EF92FF920F931F93CF93DF9300D000D0B8
:100E600000D0CDB7DEB77B012A01CB01807C861B89
:100E7000970B805C9F4F9A8389838530910534F06E
:100E800083708983811102C094E099839981892FAD
:100E900090E09E838D838217930708F073C0281B10
:100EA000390B1901E3E02E22332436952795369528
:100EB00027953901F2E06F0E711CB12CA12C10E0C6
:100EC00000E09301215031093C832B83CD80DE80EB
:100ED0000115110549F08B819C81610180179107F3
:100EE00019F084E0C82ED12C91E09093B604E0E58F
:100EF000E093D8041092B7041092D904C7010E945D
:100F00005E0642018A0C9B1C9A828982F4016191DF
:100F10004F0187E795E00E942F065401A418B508F9
:100F2000C40129813A81821B930B8C159D0574F3B2
:100F300081E00E94E804EC0CFD1C64E170E080E0BC
:100F400090E00E94B7030F5F1F4F6016710609F013
:100F5000BDCF26960FB6F894DEBF0FBECDBFDF9192
:100F6000CF911F910F91FF90EF90DF90CF90BF90A6
:100F7000AF909F908F907F906F905F904F903F9039
:100F80002F900895312C212C66246394712C95CFD9
:100F90008F929F92AF92BF92DF92EF92FF920F9348
:100FA0001F93CF93DF93CB01D42ED52F790121E06E
:100FB0002093B60420E52093D8041092B704109231
:100FC000D9040E945E0681E00E94E8040E94920318
:100FD0004B015C018091B004811165C0CE2D81E090
:100FE0008093B0048093AF049FEF9093AE0410926F
:100FF000AD049E0D9093AC0480938B0480918B0480
:10100000806A80938B0480918A04813009F094C0B7
:1010100010928A040E9492034B015C0180918B0420
:101020008093BB008091B2049091B304A091B4046A
:10103000B091B504892B8A2B8B2BA1F00E949203CF
:101040000091B2041091B3042091B4043091B5041E
:10105000681979098A099B090617170728073907AC
:1010600008F442C08091BC0083FDD8CF85EC80930A
:10107000BC000E9492034B015C018091B00481305E
:1010800009F45CC08091AD048C1710F4C091AD04DC
:10109000ACE8B4E0E2EFF3E080E08C1751F19D9111
:1010A00091938F5FFACF8091B2049091B304A09195
:1010B000B404B091B504892B8A2B8B2B09F48ACF09
:1010C0000E9492030091B2041091B3042091B404E1
:1010D0003091B504681979098A099B090617170721
:1010E0002807390708F076CF8091B1040E94C70421
:1010F000C0E010926804C09367040D2D1D2FE00E10
:10110000F11E80916804C81731F087E795E00E94CE
:10111000E805F80180830F5F1F4FE016F10689F79D
:10112000DF91CF911F910F91FF90EF90DF90BF90D3
:10113000AF909F908F90089585EE99CF8091B204E3
:101140009091B304A091B404B091B504892B8A2B7B
:101150008B2B09F492CF0E9492030091B20410915C
:10116000B3042091B4043091B504681979098A094F
:101170009B09061717072807390708F07ECFB4CF59
:10118000CF93DF93EC0184E1FE0111928A95E9F798
:10119000188280E86115710509F080E488838091E8
:1011A000C806811104C08091C906882319F088817E
:1011B000806288838091DB069091DC068130910506
:1011C00009F04AC08881806188838091C40690912B
:1011D000C5068130910509F045C088818460888307
:1011E000672B09F04BC019828091D2068A8363E095
:1011F000CE010E94A701E3E0E80FEC0FFD2FF11DE7
:101200009091D10690839091D00691839091CF06D2
:1012100092839091CE069383895FFE01E80FF11DC2
:101220009091D80690839091D706918392E0980F81
:10123000C90FD11D18829091C806992311F090E82A
:1012400098839091C906992319F0988190649883A6
:101250008D5FDF91CF910895892B09F0B6CF8881FA
:101260008860B2CF8230910519F488818260B7CF4F
:10127000039709F0B5CF88818160B1CF8091D60600
:1012800089838091D5068A838091D4068B8380914F
:10129000D3068C8365E0CE010E94A7018B5FBDCF92
:1012A0008DE197E09093840580938305E5E8F5E070
:1012B00080E091E0DF019C011D9221503040E1F778
:1012C0000E947C0161E086E00E94560361E086E0B6
:1012D0000E940A0368EC70E080E090E00C94B70391
:1012E000FB0101900020E9F73197AF01461B570B36
:1012F000DC01ED91FC910280F381E02D099464EB17
:1013000071E00C9470090F931F93CF93DF93EC015E
:101310000E94D6018C01CE010E947F09800F911F8F
:10132000DF91CF911F910F910895CF92DF92EF92AD
:10133000FF920F931F9368E670E08DE197E00E94A3
:101340008309C0908604D0908704E0908804F090D0
:1013500089040E94E9030091EB061091EC062091AC
:10136000ED063091EE06601B710B820B930B693515
:1013700072408105910508F464C00E94E9036093FE
:10138000EF067093F0068093F1069093F2060E94A8
:10139000E9036093EB067093EC068093ED0690935F
:1013A000EE0680910207882309F45AC00E94E903DF
:1013B00060930307709304078093050790930607D3
:1013C000409103075091040760910507709106074B
:1013D0008091070790910807A0910907B0910A072B
:1013E000481759076A077B07C0F4841B950BA60BA7
:1013F000B70B853F9140A105B10578F00E94E90344
:101400006093EB067093EC068093ED069093EE06E6
:101410008FEFC81AD80AE80AF80A809102078111EA
:101420002AC08091070790910807A0910907B09101
:101430000A078093030790930407A0930507B093CE
:101440000607C0928604D0928704E0928804F09246
:1014500089041F910F91FF90EF90DF90CF90089536
:101460000E94E903609307077093080780930907B8
:1014700090930A07A5CF10920207E3CF8F929F9215
:10148000AF92BF92EF92FF920F931F93CF93DF9390
:10149000CDB7DEB7A1970FB6F894DEBF0FBECDBFB4
:1014A0007C01FA01CB0119A2223008F42AE08E0156
:1014B0000F5D1F4F822E912CB12CA12CBF01A501D5
:1014C00094010E940C20F901CA016A300CF5605D9C
:1014D000D8016E938D01232B242B252B79F790E0D7
:1014E00080E0109721F0BD01C7010E947009A1960C
:1014F0000FB6F894DEBF0FBECDBFDF91CF911F9125
:101500000F91FF90EF90BF90AF909F908F900895B4
:10151000695CDECFAB0170E060E02AE00C943E0A2B
:101520000F931F93CF93DF93EC010E948A0A8C01E3
:10153000CE010E947F09800F911FDF91CF911F91F3
:101540000F910895BF92CF92DF92EF92FF920F9387
:101550001F93CF93DF9300D000D000D0CDB7DEB77C
:101560008C01B42EC52ED62EE72E79836A835B8339
:101570004C83CE0101960E94BD01F82E1D828E8300
:1015800026E030E0AE014F5F5F4F70E060E0F801B1
:10159000828193810E941C0760E871E0F8018081DC
:1015A00091810E94D6012AE04B2D5C2D6D2D7E2D60
:1015B000F801808191810E943E0A65E771E0F8019F
:1015C000808191810E94D60170E060E0F801808105
:1015D00091810E948A0A6EE671E0F8018081918112
:1015E0000E94D6016F2D70E0F801808191810E94E8
:1015F000900A26960FB6F894DEBF0FBECDBFDF91DE
:10160000CF911F910F91FF90EF90DF90CF90BF90FF
:101610000895CF92DF92EF92FF920F931F93CF9393
:10162000DF9377FF21C06A017B01EC01E881F9813A
:101630000190F081E02D6DE209958C01442755273A
:10164000BA014C195D096E097F092AE0CE010E949A
:101650003E0A800F911FDF91CF911F910F91FF9054
:10166000EF90DF90CF9008952AE0DF91CF911F9106
:101670000F91FF90EF90DF90CF900C943E0A0F9364
:101680001F93CF93DF93EC01AB01770F660B770BC2
:101690000E94090B8C01CE010E947F09800F911FCF
:1016A000DF91CF911F910F9108950F931F93CF93C7
:1016B000DF93EC012AE00E943E0A8C01CE010E94D9
:1016C0007F09800F911FDF91CF911F910F91089596
:1016D000CF92DF92EF92FF920F931F93CF93DF93FE
:1016E00000D000D0CDB7DEB78C016A017B01F98252
:1016F0006A83DB824C836BEA70E0FC01808191811C
:101700000E94D601F80164817581808191810E94D7
:101710008A0AF801848195810496883EF3E09F0748
:1017200008F049C0F8019583848360EA70E0808105
:1017300091810E94D601F801648175818081918137
:101740000E94900A6EEC70E0F801808191810E9405
:10175000D601F80164817581808191810E94900A8F
:10176000F801C682D782E086F1866481758124E023
:1017700030E0AE014F5F5F4F828193810E941C0772
:101780006FEB70E0F801808191810E94D601A60183
:10179000B701F801808191810E94550B0F900F9045
:1017A0000F900F90DF91CF911F910F91FF90EF90CD
:1017B000DF90CF90089588EC90E0B4CF0F931F9303
:1017C000CF93DF938C01D0E0C0E06115710519F073
:1017D0000E947009EC01C8010E947F098C0F9D1FB7
:1017E000DF91CF911F910F910895CF93DF93CDEDAE
:1017F000D6E09CA38BA381E08EA760E087E00E94E7
:101800000A0360E471E08FA598A90E94DE0B1E8E8A
:101810001D821C8288E090E09AA389A3DF91CF917A
:1018200008956AE471E080918305909184050E9497
:10183000DE0B8AED94E00E94EA02EAEDF4E0A28970
:10184000B3898C918F7E8C93A289B3898C91877F89
:101850008C93A289B3898C918F778C93A289B38959
:101860008C918F7D8C93828D818F61E081E00E94CD
:10187000560360E081E00E940A036AE070E080E0C5
:1018800090E00E94B70361E081E00E940A036AE0F1
:1018900070E080E090E00E94B7030E947C0165E563
:1018A0008AED94E00E949D020C94F5036115710588
:1018B00011F00C94700990E080E00895CF93DF93CD
:1018C00061E089E00E94560361E089E00E940A031A
:1018D000CDEDD6E081E08F8F0E94E9036A8F7B8F88
:1018E0008C8F9D8F64E571E08FA598A90E94560C9E
:1018F0001CA21BA2DF91CF910895CF93DF9361E0EB
:1019000087E00E94560361E087E00E940A03CDED64
:10191000D6E081E08E8F0E94E9036A8F7B8F8C8FE7
:101920009D8F60E671E08FA598A90E94560C1CA2BD
:101930001BA2DF91CF9108952F923F924F925F9219
:101940006F927F928F929F92AF92BF92CF92DF92CF
:10195000EF92FF920F931F93CF93DF93CDB7DEB734
:10196000CE54D1090FB6F894DEBF0FBECDBF2D9671
:101970008FAF2D974A015B0128960CAF1DAF2EAF9C
:101980003FAF289710928A068091DD069091DE067F
:10199000A091DF06B091E0062C968CAF9DAFAEAF64
:1019A000BFAF2C972090E1063090E2069091890617
:1019B00024969FAF2497911139C10E94110C0E9467
:1019C000500920E4722E8E010F5F1F4FD801E72DC2
:1019D0001D92EA95E9F783EB96E09F938F938AE651
:1019E00091E09F938F931F930F930E947C20B801E7
:1019F0008AED94E00E94560CB80180918305909185
:101A000084050E94560C0E94F503D801E72D1D9213
:101A1000EA95E9F782E996E09F938F938EE791E04C
:101A20009F938F931F930F930E947C20B8018AEDA0
:101A300094E00E94560C0E94F503D801E72D1D92F8
:101A4000EA95E9F782E991E09F938F9384E991E029
:101A50009F938F931F930F930E947C20B8018AED70
:101A600094E00E94560CB801809183059091840502
:101A70000E94560C0E94F503D8011D927A94E9F752
:101A80001F921F9287EA91E09F938F931F930F936A
:101A90000E947C20B8018AED94E00E94560CB801A7
:101AA00080918305909184050E94560C0E94F50355
:101AB0000FB6F894DEBF0FBECDBF412C512C3201C2
:101AC00067EB71E08AED94E00E94560CB301A2012D
:101AD0008AED94E00E94090B62E573E08AED94E0E0
:101AE0000E94560C70E060E08AED94E00E943F0B8B
:101AF00064E670E080E090E00E94B703A8958AED6C
:101B000094E00E945B02892BC9F00091830510913B
:101B10008405D801ED91FC91208131812F963FAF52
:101B20002EAF2F978AED94E00E943902682FC801EA
:101B30002F96EEADFFAD2F970995E1CFFFEF4F1A2E
:101B40005F0A6F0A7F0A20E14216510461047104A2
:101B500009F0B6CFA8956AEC71E08AED94E00E9496
:101B6000DE0BE5E8F5E080E091E0DF019C011D92ED
:101B700021503040E1F76FE0CF010E942C0465E86E
:101B800075E080918305909184050E94DE0B6AECDC
:101B900071E080918305909184050E94DE0B0E9484
:101BA000F50368ED71E085E895E00E946220892BDD
:101BB00009F003C163EE71E085E895E00E946220C0
:101BC000892B09F0FAC06AEE71E085E895E00E9481
:101BD0006220892B09F0F1C06FEE71E085E895E095
:101BE0000E946220892B09F0E8C06AEF71E085E865
:101BF00095E00E946220892B09F0DFC061E072E06D
:101C000085E895E00E946220892B09F4D6C06CEE2D
:101C100071E08DE197E00E94830931E024963FAFA7
:101C2000249724968FAD2497809389068091890606
:101C3000882309F482C18E010F5F1F4F2D969FAD3F
:101C40002D979111C1C06AE572E08DE197E00E9485
:101C5000D601B501A4018DE197E00E94550B6AE41D
:101C600072E08DE197E00E94D60128964CAD5DAD03
:101C70006EAD7FAD28978DE197E00E94550B809166
:101C80000007909101079093C5068093C406809148
:101C9000FE069091FF069093DC068093DB06809110
:101CA000FC069091FB069093C8068093C90680922B
:101CB000CA069092CB06A092CC06B092CD0628968A
:101CC0008CAD9DADAEADBFAD28978093CE06909301
:101CD000CF06A093D006B093D1063092D8062092BA
:101CE000D70680918B068093D20670E060E0C80131
:101CF0000E94C008982E8091FB06DE01AF5BBF4FAB
:101D00005D01811115C08091FC06811111C02D96D5
:101D1000BFAD2D97B1110CC080918C0690918D06AE
:101D2000B0E0A0E08C159D05AE05BF0508F464C1C8
:101D300064E172E08DE197E00E948309F501118270
:101D400010826AE072E08AED94E00E94560C42E054
:101D500050E060E070E08AED94E00E94090B62E5DB
:101D600073E08AED94E00E94560C780196E1C92E4A
:101D700092E0D92E8E2D801B891508F093C0D701D3
:101D80008D917D011F928F93DF92CF92BF92AF9280
:101D90000E947C20B5018AED94E00E94560CB501AA
:101DA00080918305909184050E9470090F900F9097
:101DB0000F900F900F900F90DDCF60ED71E08DE1EF
:101DC00097E00E9483092DCF64E472E08DE197E0F3
:101DD0000E94D6012C964CAD5DAD6EAD7FAD2C97BB
:101DE0008DE197E00E94550B68E372E08DE197E08A
:101DF0000E94D601B1018DE197E00E94900A6EE247
:101E000072E08DE197E00E94D601B501A4018DE159
:101E100097E00E94550B80910007909101079093E5
:101E2000C5068093C4068091FE069091FF069093AC
:101E3000DC068093DB068091FC069091FB06909374
:101E4000C8068093C90628968CAD9DADAEADBFADDA
:101E500028978093CE069093CF06A093D006B09398
:101E6000D1063092D8062092D7068092CA06909268
:101E7000CB06A092CC06B092CD062C968CAD9DAD33
:101E8000AEADBFAD2C978093D3069093D406A093AC
:101E9000D506B093D60680918B068093D20661E07A
:101EA00070E025CF80918305909184050E947F0981
:101EB0008AED94E00E947F09E5E8F5E080E091E09A
:101EC000DF019C011D9221503040E1F76AE0CF0113
:101ED0000E942C0465E875E080918305909184054B
:101EE0000E94560C0E94F5036BE172E085E895E0D4
:101EF0000E946220892B41F465E272E085E895E05A
:101F00000E946220892B99F161E572E0809183053E
:101F1000909184050E94DE0B81E080938A061092E6
:101F200091061092900610928D0610928C066FE822
:101F300071E08DE197E00E948309C25BDF4F0FB62D
:101F4000F894DEBF0FBECDBFDF91CF911F910F91EF
:101F5000FF90EF90DF90CF90BF90AF909F908F90C9
:101F60007F906F905F904F903F902F9008951092C8
:101F70008A06809190069091910601969093910621
:101F8000809390066AEB71E08DE197E00E94D601A4
:101F900060919006709191068DE197E00E94900A01
:101FA0008091900690919106029710F00E94110C7A
:101FB0008091900690919106029708F4BECF6AEA4C
:101FC00071E08DE197E00E948309109291061092D2
:101FD000900610928D0610928C061092890682E06F
:101FE00090E00E94F50B69E971E08DE197E00E94B5
:101FF00083090C940000A1CF6CE272E08DE197E0C0
:102000000E94DE0B80918C0690918D060F96909326
:102010008D0680938C0663E072E08DE197E00E946C
:10202000D60160918C0670918D068DE197E00E943B
:10203000900AD5011D921C926FE372E08AED94E044
:102040000E94560C4AE050E060E070E08AED94E0B7
:102050000E94090B62E573E08AED94E00E94560C41
:10206000780186E1C82E82E0D82E8E2D801B89153E
:10207000F0F4F70181917F011F928F93DF92CF924D
:10208000BF92AF920E947C20B5018AED94E00E943D
:10209000560CB50180918305909184050E947009CA
:1020A0000F900F900F900F900F900F90DECF8091B8
:1020B0008305909184050E947F098AED94E00E9437
:1020C0007F09E5E8F5E080E091E0DF019C011D92E9
:1020D00021503040E1F765E0CF010E942C0465E813
:1020E00075E080918305909184050E94560C0E94B2
:1020F000F5036BE172E085E895E00E9462200091B3
:10210000830510918405892B41F465E272E085E82E
:1021100095E00E946220892BB1F081E080938B06CC
:1021200061E572E0C8010E94DE0B6DE572E08DE1B1
:1021300097E00E94560C60918B0670E08DE197E06D
:102140000E943F0BFACE6DE472E0C8010E94DE0BE4
:102150000E94110CEACF2F923F924F925F926F92A2
:102160007F928F929F92AF92BF92CF92DF92EF9227
:10217000FF920F931F93CF93DF9300D000D0CDB782
:10218000DEB78C016EE770E0FC01808191810E94D6
:102190008309212C312C210148EC642E712C58EC40
:1021A000A52EB12CCE0101964C01F40184E01192D0
:1021B0008A95E9F724E030E0A401B501F8018281B5
:1021C00093810E94C807C980D12CF12CE12CFC2CF2
:1021D000EE24DD24CC248A8190E0B0E0A0E0DC0194
:1021E000992788278C0D9D1DAE1DBF1D2C81820F48
:1021F000911DA11DB11DCB80D12CF12CE12CFE2C09
:10220000ED2CDC2CCC24C80ED91EEA1EFB1EB50119
:10221000F801808191810E948A0A62E573E0F801E9
:10222000808191810E94560CB701A601F80180813E
:1022300091810E94550BC214D304E404F50440F0CC
:10224000C114D104E104F10419F01601270135018C
:10225000F4E0AF0EB11C8CEEA81683E0B80609F0CE
:10226000A4CF6EE670E0F801808191810E94D601D2
:10227000B301F801808191810E94900AF801648283
:102280007582C682D782E086F186C3010F900F90D7
:102290000F900F90DF91CF911F910F91FF90EF90D2
:1022A000DF90CF90BF90AF909F908F907F906F9076
:1022B0005F904F903F902F900895AF92BF92CF9232
:1022C000DF92EF92FF920F931F93CF93DF93CDB7DF
:1022D000DEB7CA5FD1090FB6F894DEBF0FBECDBF1F
:1022E0008C01CE0101965C018AEFF50111928A956D
:1022F000E9F788ECE82EF12C6DE870E0F8018081B8
:1023000091810E94D601B701F801808191810E94DC
:102310008A0A69E870E0F801808191810E94D60103
:102320006701FAEFCF0ED11CB601F80180819181CF
:102330000E94900A2AEF30E0A501B7018DE694E0F3
:102340000E941C07B601F801808191810E94900AC9
:102350007601F0EBCF16F4E0DF0671F6C8010E94BB
:10236000AB10C650DF4F0FB6F894DEBF0FBECDBF27
:10237000DF91CF911F910F91FF90EF90DF90CF9061
:10238000BF90AF900895EF92FF920F931F93CF935A
:10239000DF9380916F0481117BC08091FE06909144
:1023A000FF068230910509F428C108F078C0009733
:1023B00009F4A0C0019709F4ACC08091FB0681111B
:1023C00005C08091FC06882309F462C00E94E903DD
:1023D0000091EF061091F0062091F1063091F2067F
:1023E000601B710B820B930B0091F3061091F406A6
:1023F0002091F5063091F6060617170728073907CA
:1024000008F046C065EB72E080910C0790910D07D3
:102410000E94DE0BEE24E394F12CF0920107E0928F
:10242000000711E010930B0760E087E00E940A03A9
:1024300060E471E080910C0790910D070E94DE0B23
:102440001092FB061092E2061092E106C8E0D0E07E
:10245000D093FF06C093FE06F0920107E0920007BA
:1024600010930B0760E089E00E940A0369EA72E0BA
:1024700080910C0790910D070E94DE0B1092FC06D4
:102480001092E2061092E106D093FF06C093FE067A
:10249000DF91CF911F910F91FF90EF9008958430BD
:1024A000910509F4BEC008F4ADC0059709F085CFC9
:1024B00083E090E0909301078093000781E0809390
:1024C0000B0760E089E00E940A0369EA72E08091EC
:1024D0000C0790910D070E94DE0B1092FC061092E3
:1024E000E2061092E10688E090E09093FF06809368
:1024F000FE0663CF8091FB06811168CF6CE672E027
:1025000080910C0790910D070E94DE0B0E947D0CBC
:1025100054CF6091E6067091E70680910C07909188
:102520000D070E948A0A65E173E080910C07909183
:102530000D070E94560CC0910C07D0910D074091D9
:10254000E50650E070E060E02AE0CE010E943E0A1D
:10255000CE010E947F0964E872E080910C0790919F
:102560000D070E94560C6091E1067091E206809181
:102570000C0790910D070E94900A8091FB06811133
:1025800008C08091E1069091E206892B11F00E942B
:102590007D0C8091FB06882381F08091E10690916B
:1025A000E206892B51F490E080E00E94F50B88E070
:1025B00090E09093FF068093FE068091E5068B33B2
:1025C00020F48F5F8093E506F8CE1092E5068091A7
:1025D000E6069091E70601969093E7068093E6065B
:1025E0008091E1069091E206009709F4E6CE01970A
:1025F0009093E2068093E106E0CE83E090E00E94B3
:10260000F50BDBCE8091FC068111D7CE6FE872E02E
:1026100080910C0790910D070E94DE0B0E945E0CCA
:10262000CCCE6091E9067091EA0680910C079091FA
:102630000D070E948A0A65E173E080910C07909172
:102640000D070E94560CC0910C07D0910D074091C8
:10265000E80650E070E060E02AE0CE010E943E0A09
:10266000CE010E947F0964E872E080910C0790918E
:102670000D070E94560C6091E3067091E40680916C
:102680000C0790910D070E94900A8091FC06811121
:1026900008C08091E3069091E406892B11F00E9416
:1026A0005E0C8091FC06882381F08091E306909176
:1026B000E406892B51F490E080E00E94F50B88E05D
:1026C00090E09093FF068093FE068091E8068B339E
:1026D00020F48F5F8093E80670CE1092E806809118
:1026E000E9069091EA0601969093EA068093E9063E
:1026F0008091E3069091E406009709F45ECE01977D
:102700009093E4068093E30658CE85ED8093BC0059
:102710008091B2049091B304A091B404B091B50437
:102720000796A11DB11D23E0B695A79597958795AE
:102730002A95D1F72091BC0024FD03C01092B0046B
:1027400008954091B2045091B3046091B404709123
:10275000B504452B462B472B69F30097A105B1051E
:1027600041F025E32A95F1F700000197A109B1098D
:10277000E1CF8091B1040C94C7041F920F920FB661
:102780000F9211242F933F934F935F936F937F93F7
:102790008F939F93AF93BF93EF93FF938AED94E052
:1027A0000E947B02FF91EF91BF91AF919F918F911A
:1027B0007F916F915F914F913F912F910F900FBE3D
:1027C0000F901F9018951F920F920FB60F92112421
:1027D0002F938F939F93EF93FF93E091EA04F091EF
:1027E000EB048081E091F004F091F10482FD1BC0C4
:1027F00090818091F3048F5F8F732091F40482178E
:1028000041F0E091F304F0E0E652FB4F958F8093A6
:10281000F304FF91EF919F918F912F910F900FBE35
:102820000F901F9018958081F4CF1F920F920FB6D2
:102830000F9211242F933F938F939F93AF93BF9346
:102840008091570490915804A0915904B0915A0472
:102850003091560423E0230F2D3758F50196A11D22
:10286000B11D209356048093570490935804A0936D
:102870005904B0935A0480915B0490915C04A09138
:102880005D04B0915E040196A11DB11D80935B04AF
:1028900090935C04A0935D04B0935E04BF91AF91EC
:1028A0009F918F913F912F910F900FBE0F901F908E
:1028B000189526E8230F0296A11DB11DD2CF1F92B5
:1028C0000F920FB60F9211242F933F934F935F9364
:1028D0006F937F938F939F93AF93BF93EF93FF93E8
:1028E000E0910401F09105010995FF91EF91BF91ED
:1028F000AF919F918F917F916F915F914F913F9198
:102900002F910F900FBE0F901F9018951F920F924E
:102910000FB60F9211242F933F934F935F936F93B2
:102920007F938F939F93AF93BF93EF93FF93E09128
:102930000201F09103010995FF91EF91BF91AF91D1
:102940009F918F917F916F915F914F913F912F91C7
:102950000F900FBE0F901F9018951F920F920FB6F9
:102960000F9211242F933F934F935F936F937F9315
:102970008F939F93AF93BF93EF93FF938091B90091
:10298000887F803609F44AC0F0F5883209F4A7C080
:1029900018F5803109F49BC0B8F4882309F4F9C014
:1029A000883009F494C0FF91EF91BF91AF919F914E
:1029B0008F917F916F915F914F913F912F910F90E8
:1029C0000FBE0F901F901895883109F488C080328F
:1029D00051F78093AE0414C0803409F49DC040F4D4
:1029E0008033B9F38833F9F68093AE0485ECB0C038
:1029F000803509F485C0883509F496C0883499F685
:102A00000E948513D0CF883909F48CC038F58837F7
:102A100029F050F4883611F0803729F683E080934E
:102A2000B0041092550457C0883809F47BC080392F
:102A300019F0803809F0B7CF80915504803208F042
:102A400071C0E091550481E08E0F80935504809110
:102A5000BB00F0E0EB5CFB4F80833DC0803B39F076
:102A6000E0F4803A09F479C0883A09F09CCF84E018
:102A70008093B0041092340410923304E091650402
:102A8000F091660409958091330481110FC081E0B3
:102A9000809333041092130409C0803C09F4A6CF3C
:102AA000883C09F4A3CF883B09F07DCFE091340442
:102AB00081E08E0F80933404F0E0ED5EFB4F808167
:102AC0008093BB00909134048091330429C080919D
:102AD0008B048093BB0085EC8093BC0064CF909105
:102AE000AD048091AC04981758F5E091AD0481E0F5
:102AF0008E0F8093AD04F0E0E457FB4F8081E9CF67
:102B0000E091AD0481E08E0F8093AD048091BB0015
:102B1000F0E0E457FB4F80839091AD048091AC04CA
:102B20009817C8F285E8D8CFE091AD0481E08E0F08
:102B30008093AD048091BB00F0E0E457FB4F8083AD
:102B40008091AF0481115CCF81E080938A0484EA94
:102B50008093BC001092B00426CF85EC8093BC001B
:102B60001092B00480915504803230F4E091550405
:102B7000F0E0EB5CFB4F10826091550470E0E09157
:102B80006304F091640485E394E009951092550480
:102B90000ACF1092AE0434CF1F920F920FB60F924D
:102BA00011242F933F934F935F936F937F938F9352
:102BB0009F93AF93BF93EF93FF93E0916104F091E4
:102BC0006204309749F0A685B7858585968D91FF7B
:102BD00014C09C918923A1F4FF91EF91BF91AF9113
:102BE0009F918F917F916F915F914F913F912F9125
:102BF0000F900FBE0F901F9018959C91892361F73D
:102C0000A389B4899C918589809589238C93868931
:102C100097890197F1F7608D718DA685B7855585E8
:102C200038E020E0CB010197F1F7822F90E09595F5
:102C30008795282F4C91452309F02068315091F752
:102C4000868D81FD20958091600490E001968F73C0
:102C5000992730915F04381799F0A0916004B0E093
:102C6000AE54BC4F2C9380936004828D938D01975A
:102C7000F1F7A389B4898C919589892B8C93ACCF7A
:102C8000868D8160868FF1CF1F920F920FB60F92C3
:102C900011242F933F934F935F936F937F938F9361
:102CA0009F93AF93BF93EF93FF93E0910001F09157
:102CB00001010995FF91EF91BF91AF919F918F9184
:102CC0007F916F915F914F913F912F910F900FBE28
:102CD0000F901F9018951092DD041092DC0448EEBE
:102CE00053E060E070E04093DE045093DF046093B3
:102CF000E0047093E1048EE091E09093DB04809314
:102D0000DA0485EC90E09093E7048093E60484EC89
:102D100090E09093E9048093E80480EC90E0909335
:102D2000EB048093EA0481EC90E09093ED048093AF
:102D3000EC0482EC90E09093EF048093EE0486EC38
:102D400090E09093F1048093F0041092F3041092B9
:102D5000F4041092F5041092F60410927A05109281
:102D6000790540937B0550937C0560937D057093B6
:102D70007E0580E291E0909378058093770510922C
:102D80008606109285061092890610928A06109285
:102D90008B0610928D0610928C0610928F06109260
:102DA0008E06109291061092900681E2E6ECF2E017
:102DB000A2E9B6E001900D928A95E1F781E1E7EE94
:102DC000F2E0A3EBB6E001900D928A95E1F7109244
:102DD000C8061092C9061092CA061092CB0610922D
:102DE000CC061092CD061092CE061092CF0610920D
:102DF000D0061092D1061092D2061092D3061092ED
:102E0000D4061092D5061092D6061092D8061092CB
:102E1000D7061092DD061092DE061092DF061092A1
:102E2000E0061092E2061092E1061092E40610927B
:102E3000E3061092E5061092E7061092E60610925D
:102E4000E8061092EA061092E9061092EB0610923C
:102E5000EC061092ED061092EE061092EF0610921C
:102E6000F0061092F1061092F20680E497E7ABE1CB
:102E7000B0E08093F3069093F406A093F506B09328
:102E8000F6061092F7061092F8061092F9061092C4
:102E9000FA061092FB061092FC061092FD0688E0DE
:102EA00090E09093FF068093FE0691E090930207D6
:102EB000109203071092040710920507109206075C
:102EC00010920707109208071092090710920A073C
:102ED00010920B071092120710921307109214070A
:102EE00010921507109216071092170710921807E4
:102EF0001092190710921A0710921B0710921C07C4
:102F00001092200710921F07409321075093220729
:102F1000609323077093240722E331E030931E0768
:102F200020931D0710923407109233071092360732
:102F300010923507109238071092370710923A070F
:102F40001092390780913B078E7F8D7F80933B07DE
:102F500086958170682F692788E00E940A0361E0E6
:102F600088E00E945603E4E9F2E0E491E0932D0743
:102F7000E0E8F2E0E491F0E0EE0FFF1FE259FD4FD0
:102F80008591949190932F0780932E0760E086E0BF
:102F90000E94560380913B0781FD04C061E086E0FA
:102FA0000E940A0386E080932907E2E9F2E0E491B7
:102FB000E0932A07EEE7F2E0E491F0E0EE0FFF1F66
:102FC000EC59FD4F8591949190932C0780932B079A
:102FD0000895CF93DF93CDB7DEB764970FB6F8941B
:102FE000DEBF0FBECDBF789484B5826084BD84B54A
:102FF000816084BD85B5826085BD85B5816085BDF4
:1030000080916E00816080936E00109281008091AB
:103010008100826080938100809181008160809333
:103020008100809180008160809380008091B10058
:1030300084608093B1008091B00081608093B00083
:1030400080917A00846080937A0080917A00826017
:1030500080937A0080917A00816080937A008091D9
:103060007A00806880937A001092C10088E199E22A
:103070000FB6F894A895809360000FBE90936000FF
:1030800061E08AE00E94560361E08AE00E940A0340
:1030900010923807109237071092360710923507B2
:1030A00010923407109233078DE991E090933A071C
:1030B0008093390790912907963108F047C02DEB8E
:1030C00030E030933407209333072BE931E030931D
:1030D0003607209335072CE231E0309338072093F0
:1030E00037072091680084E0983048F031E09E3046
:1030F00008F430E081E001C0880F3A95EAF7822BAE
:10310000809368002DE630E0983050F02BE630E0F8
:103110009E3030F02CE630E0963110F030E020E0C8
:103120003093310720933007292F30E0983008F092
:103130007AC481E001C0880F9A95EAF7809332073C
:103140008091390790913A070197F1F780913707FD
:1031500090913807892B49F1E0916104F091620464
:1031600027E0ED31F20709F1309739F0A389B489EE
:103170009C918589809589238C9380913B078E7FD4
:1031800080933B071092600410925F048DE197E0FA
:103190009093620480936104E0913007F0913107CD
:1031A000808190913207892B808368EF72E08DE1F6
:1031B00097E00E94DE0B0E9450090DE117E010938A
:1031C0006E0400936D0410926804109267041092CC
:1031D000B7041092D9040E94A90488E292E0909367
:1031E00066048093650489E292E09093640480937E
:1031F000630410937D0400937C048DE694E0909327
:103200007F0480937E048CE794E00E94AB101093BF
:103210000D0700930C0784EC96E090930F078093C2
:103220000E078CE794E09093110780931007A89500
:1032300019821A821B821C820091800410918104E1
:103240006AE071E080917C0490917D040E94D60137
:10325000B80180917C0490917D040E94900A24E042
:1032600030E0AE014F5F5F4F4A01B80180917E04AC
:1032700090917F040E94C807C980D12CF12CE12CC9
:10328000FC2CEE24DD24CC244A8150E070E060E088
:10329000BA01552744274C0D5D1D6E1D7F1D8C8185
:1032A000480F511D611D711D8B8190E0B0E0A0E0C1
:1032B000CC24D82EE92EFA2EC40ED51EE61EF71EFB
:1032C000C0928204D0928304E0928404F092850438
:1032D0006BEF70E080917C0490917D040E94D60198
:1032E000B701A60180917C0490917D040E94550B4A
:1032F000C0928604D0928704E0928804F0928904F8
:1033000086E0D4011D928A95E9F726E030E0A40119
:1033100070E060E080917E0490917F040E94C80775
:103320004980512C712C612C742C66245524442422
:103330008A8190E0B0E0A0E0DC0199278827840D25
:10334000951DA61DB71D2C81820F911DA11DB11DBC
:103350004B80512C712C612C762C652C542C4424E0
:10336000480E591E6A1E7B1EED80F12CFE2CEE24A9
:103370008E81E80EF11CC4010E94BD01C82ED12C23
:1033800080917C0490917D04EC14FD0409F058C3F5
:1033900062E271E00E94D601B70180917C049091B5
:1033A0007D040E948A0A6EEF72E080917C04909105
:1033B0007D040E94560CB70180917C0490917D049D
:1033C0000E94900A11E060E073E080917C0490918B
:1033D0007D040E94560C2AE0B301A20180917C0476
:1033E00090917D040E943E0A60E173E080917C042C
:1033F00090917D040E94560C612F70E080917C04B6
:1034000090917D040E943F0B112339F0BDE24B16D1
:10341000B1E05B066104710468F444EB50E060E0E5
:1034200070E08CE794E00E94A20A84EB482E512CB5
:10343000612C712C40927404509275046092760451
:103440007092770460EC78EA80E090E0A30192014A
:103450000E940C20CA01B9010E946A1F20E030E0DE
:1034600040E05FE30E94C81E0E94341F6093700416
:1034700070937104809372049093730460E674E512
:1034800080E090E0A30192010E940C20CA01B901E2
:103490000E946A1F20E030E040E05FE30E94C81E07
:1034A0000E94341F6093690470936A0480936B04D4
:1034B00090936C0467E173E08DE197E00E94560CF5
:1034C0004091700450917104609172047091730482
:1034D0008DE197E00E94550B6EE273E08DE197E07D
:1034E0000E94560C4091690450916A0460916B04EB
:1034F00070916C048DE197E00E94550B80E1809300
:1035000081001092800082E19AE790938700809377
:10351000860084E18093810083EC91E19093010126
:103520008093000181E080936F0062E083E00E945D
:10353000560368EE73E080E090E00E94B70385E9EF
:1035400099E0909305018093040180916900837F45
:10355000846080936900E99A68EE73E080E090E00F
:103560000E94B703409186045091870460918804BB
:1035700070918904C0907004D0907104E09072043E
:10358000F090730400910601109107012091080149
:103590003091090180E00E949C0CB4E12B2E412C5B
:1035A0005524539400E0602E00E0702E8091860434
:1035B00090918704A0918804B091890481309D4244
:1035C000A143B14008F458C21092860410928704B7
:1035D00010928804109289048CE794E00E945D1197
:1035E0000E94E903009178041091790420917A04F3
:1035F00030917B046B017C01C01AD10AE20AF30A04
:1036000020917404309175044091760450917704B0
:10361000A8EEB3E00E942E206C157D058E059F0557
:1036200038F080911C07882309F441C210921C07CE
:1036300063E671E08DE197E00E94D6014091740449
:103640005091750460917604709177048DE197E054
:103650000E94550B0091060110910701209108016D
:10366000309109010F5F1F4F2F4F3F4F009306010D
:1036700010930701209308013093090140918604BB
:10368000509187046091880470918904C0907004FF
:10369000D0907104E0907204F090730480E00E9476
:1036A0009C0C0E94E90360937804709379048093E2
:1036B0007A0490937B04D401E22D1D92EA95E9F7F8
:1036C00061E085E895E00E942C0464E573E085E8FC
:1036D00095E00E9462207C01009709F4F4C10796EE
:1036E0000E94A11EE4E0F0E08436910530F4E3E0AE
:1036F000F0E00A9710F4E2E0F0E0BF0164577A4F7F
:10370000EE0DFF1DF12CE12C30E020E020FD34C057
:103710008085478190ED940F9A3060F09FEB940F75
:10372000963008F4CCC19FE9940F963008F0C9C1D7
:1037300099EA940FA0ED3A2E380E49E0431570F443
:103740004FEB480F59EC352E463038F04FE9480F13
:10375000392E463018F449EA342E380E9295907F6F
:10376000930D243131052CF4A4014E0D5F1DDA01B7
:103770009C93BFEFEB1AFB0ADB018D91BD018D30ED
:1037800019F48C918A3041F031962F5F3F4F21150B
:10379000B1E03B0709F0BACFE5E8F5E0DF01A201AF
:1037A0001D9241505040E1F7E114F10409F49FC02B
:1037B00051E0E51AF10809F49AC081E080936F04A2
:1037C00064E571E08DE197E00E94D601B7018DE1DB
:1037D00097E00E943F0B8981982F907485FF76C1F6
:1037E0006CE573E080910C0790910D070E94DE0B51
:1037F00092E0A92EB12CB092FF06A092FE068A811B
:1038000090E0B0E0A0E0B82FAA27992788274B8145
:1038100050E070E060E0BA0155274427840F951FFF
:10382000A61FB71F2D81820F911DA11DB11D4C81B7
:1038300050E070E060E0762F652F542F4427840F0E
:10384000951FA61FB71F8093DD069093DE06A093F9
:10385000DF06B093E00682E0A816B10408F095C137
:103860000E94E9036093EF067093F0068093F106DF
:103870009093F2061092E5061092E7061092E60683
:103880008E8190E0982F88272F81820F911D909331
:10389000E2068093E10610926F040E94E9036B0137
:1038A0007C010E94E9036C197D098E099F09693B1F
:1038B0007B4081059105A8F34091860450918704CF
:1038C0006091880470918904C0907004D090710454
:1038D000E0907204F09073040091060110910701CA
:1038E000209108013091090181E00E949C0C809197
:1038F000FD06882309F4FDC1E99887E292E09093E0
:1039000005018093040110926F00809112078823B3
:1039100009F440C066E471E080910C0790910D07B6
:103920000E94D60140911407509115076091160727
:103930007091170780910C0790910D070E94550B0D
:1039400080911007909111070E945D1180911007DE
:103950009091110740911407509115076091160737
:1039600070911707DC0116960D911D912D913C91D8
:103970001997401751076207730711F00E94680BEF
:103980001092120710921407109215071092160742
:103990001092170780911307882371F167E371E094
:1039A00080910C0790910D070E94D6014091180755
:1039B0005091190760911A0770911B0780910C07AD
:1039C00090910D070E94550B4091180750911907CF
:1039D00060911A0770911B07809110079091110751
:1039E0000E94A20A109218071092190710921A0743
:1039F00010921B07109213071092FD0688E090E0CA
:103A00009093FF068093FE066FEA73E080910C07A7
:103A100090910D070E94DE0B68EE73E080E090E06D
:103A20000E94B703F1CF9E3040F42850310981E065
:103A300001C0880F2A95EAF781CB2E503109F7CFC4
:103A400068E171E00E94D601B60180917C049091FA
:103A50007D040E948A0A6EEF72E080917C0490914E
:103A60007D040E94560CB70180917C0490917D04E6
:103A70000E94900A10E0A7CC4091860450918704E0
:103A800060918804709189048091820490918304EC
:103A9000A0918404B0918504481759076A077B07F1
:103AA00009F49ECD8CE794E00E94680B99CD80913B
:103AB0000B07882309F4FFCD10920B07B9CD99ECC1
:103AC00038CE932D37CEF12CE12C66CE87FF0BC07C
:103AD00061E673E080910C0790910D070E94DE0B68
:103AE000B12CA12C88CE992361F061E773E080911D
:103AF0000C0790910D070E94DE0BAA24A394B12C11
:103B00007ACE9A8195FF0CC06FE773E080910C0725
:103B100090910D070E94DE0B05E0A02EB12C6BCE1C
:103B200097FF0CC066E873E080910C0790910D0739
:103B30000E94DE0B13E0A12EB12C5DCE96FF0CC0CF
:103B400068E973E080910C0790910D070E94DE0BED
:103B5000B4E0AB2EB12C4FCE84FF0CC068EA73E00A
:103B600080910C0790910D070E94DE0BA6E0AA2E13
:103B7000B12C41CE83FF3FCE6DE271E080910C0706
:103B800090910D070E94830936CEC50103970297D5
:103B9000E0F40E94E9036093EF067093F0068093CF
:103BA000F1069093F2061092E8061092EA0610923F
:103BB000E9068E8190E0982F88272F81820F911D32
:103BC0009093E4068093E30666CE96E0A916B104CE
:103BD00009F061CE90E080E00E94F50B898191E0D0
:103BE000282F287083FF90E09093120791E0382FE0
:103BF000347082FF90E09093130781E08093FD067C
:103C0000222309F474C08E8190E0B0E0A0E0B82FC8
:103C1000AA27992788274F8150E070E060E0BA0119
:103C200055274427840F951FA61FB71F2985820F8C
:103C3000911DA11DB11D488550E070E060E0762F18
:103C4000652F542F4427840F951FA61FB71F8093FD
:103C5000140790931507A0931607B093170729E050
:103C6000332309F418CE30E0F401E20FF31F808112
:103C700090E0B0E0A0E0B82FAA2799278827E4E0D9
:103C8000F0E0EC0FFD1FE20FF31F4081840F911D48
:103C9000A11DB11DE2E0F0E0EC0FFD1FE20FF31FEC
:103CA000408150E070E060E0BA0155274427840F5E
:103CB000951FA61FB71FE3E0F0E0EC0FFD1F2E0FCE
:103CC0003F1FF901408150E070E060E0762F652FE2
:103CD000542F4427840F951FA61FB71F80931807E2
:103CE00090931907A0931A07B0931B07D4CD25E032
:103CF000B7CF6114710409F459CC0E94670288237C
:103D000009F454CC0E94000051CC82E391E09093DE
:103D10001E0780931D0780916104909162048D516C
:103D2000974071F4E0913007F091310790818091D4
:103D30003207809589238083109262041092610477
:103D40000895FC0188279927E89421912032E9F30E
:103D5000293010F02E30C8F32B3241F02D3239F4D7
:103D6000689404C00E94BF1E820F911D21912053B0
:103D70002A30C0F31EF4909581959F4F08957AE004
:103D8000979F902D879F802D910D11240895505855
:103D9000BB27AA270E94DF1E0C94BE1F0E94B01FE3
:103DA00038F00E94B71F20F039F49F3F19F426F431
:103DB0000C94AD1F0EF4E095E7FB0C94A71FE92FC0
:103DC0000E94CF1F58F3BA1762077307840795073D
:103DD00020F079F4A6F50C94F11F0EF4E0950B2E6B
:103DE000BA2FA02D0B01B90190010C01CA01A0014D
:103DF0001124FF27591B99F0593F50F4503E68F1A8
:103E00001A16F040A22F232F342F4427585FF3CFE8
:103E1000469537952795A795F0405395C9F77EF4B9
:103E20001F16BA0B620B730B840BBAF09150A1F002
:103E3000FF0FBB1F661F771F881FC2F70EC0BA0F88
:103E4000621F731F841F48F4879577956795B79510
:103E5000F7959E3F08F0B0CF9395880F08F099270B
:103E6000EE0F9795879508950E943B1F6894B111B6
:103E70000C94F21F08950E94D71F88F09F5798F066
:103E8000B92F9927B751B0F0E1F0660F771F881F5F
:103E9000991F1AF0BA95C9F714C0B13091F00E9479
:103EA000F11FB1E008950C94F11F672F782F882738
:103EB000B85F39F0B93FCCF3869577956795B395A0
:103EC000D9F73EF490958095709561957F4F8F4F0F
:103ED0009F4F0895E89409C097FB3EF49095809514
:103EE000709561957F4F8F4F9F4F9923A9F0F92FC0
:103EF00096E9BB279395F695879577956795B7953E
:103F0000F111F8CFFAF4BB0F11F460FF1BC06F5F23
:103F10007F4F8F4F9F4F16C0882311F096E911C035
:103F2000772321F09EE8872F762F05C0662371F056
:103F300096E8862F70E060E02AF09A95660F771F6A
:103F4000881FDAF7880F9695879597F9089597F95E
:103F50009F6780E870E060E008959FEF80EC08952F
:103F600000240A9416161706180609060895002458
:103F70000A9412161306140605060895092E0394D2
:103F8000000C11F4882352F0BB0F40F4BF2B11F446
:103F900060FF04C06F5F7F4F8F4F9F4F089557FDA5
:103FA0009058440F551F59F05F3F71F04795880FA7
:103FB00097FB991F61F09F3F79F08795089512163E
:103FC00013061406551FF2CF4695F1DF08C01616EA
:103FD00017061806991FF1CF86957105610508949B
:103FE0000895E894BB2766277727CB0197F90895B2
:103FF00097FB072E16F4009407D077FD09D00E9496
:10400000392007FC05D03EF4909581959F4F089587
:10401000709561957F4F0895A1E21A2EAA1BBB1BD4
:10402000FD010DC0AA1FBB1FEE1FFF1FA217B30784
:10403000E407F50720F0A21BB30BE40BF50B661F9A
:10404000771F881F991F1A9469F76095709580955E
:1040500090959B01AC01BD01CF0108950E945320B2
:10406000A59F900DB49F900DA49F800D911D1124CC
:104070000895AA1BBB1B51E107C0AA1FBB1FA617AF
:10408000B70710F0A61BB70B881F991F5A95A9F701
:1040900080959095BC01CD010895EE0FFF1F05900E
:1040A000F491E02D0994A29FB001B39FC001A39F9A
:1040B000700D811D1124911DB29F700D811D112461
:1040C000911D0895FB0151915523A9F0BF01DC0119
:1040D0004D9145174111E1F759F4CD0101900020B0
:1040E00049F04D9140154111C9F3FB014111EFCF4A
:1040F00081E090E001970895AEE0B0E0E2E8F0E200
:104100000C942B230D891E8986E08C831A830983E6
:104110008FEF9FE79E838D83AE01475E5F4F6F8970
:10412000788DCE0101960E949F202F813885020F45
:10413000131FF80110822E96E4E00C944723ABE0A5
:10414000B0E0E5EAF0E20C941D237C013B018A011A
:10415000FC0117821682838181FFC8C1CE010196BE
:104160005C01F7019381F30193FD859193FF8191A8
:104170003F01882309F453C1853239F493FD8591B9
:1041800093FF81913F01853229F4B70190E00E94AD
:104190008F22E7CF912C212C312CFFE1F31538F041
:1041A0008B3211F190F4803209F1833229F137FC1E
:1041B0003CC020ED280F2A3050F536FE20C08AE0A2
:1041C000989E200D1124922E06C08D3291F08033DE
:1041D00071F7689430F8F30193FD859193FF819115
:1041E0003F018111DACF21C0689431F8689432F828
:1041F000F2CF689433F8EFCF689434F8ECCFEAE06C
:104200002E9E200D1124222E689435F8E4CF8E3294
:1042100029F436FC04C1689436F8DDCF8C3619F4E5
:10422000689437F8D8CF8836B1F2982F9F7D95548F
:104230009330E0F08336A1F18337C1F1833509F083
:1042400063C02801F2E04F0E511CF801C080D180FC
:10425000692D70E036FC02C06FEF7FEFC6010E944F
:1042600079224C01689437F882010AC00C5F1F4F15
:10427000FFE3F98388248394912C6501E89437F84F
:1042800033FE2DC0522C8114910471F5552009F490
:1042900068CFB70180E290E00E948F225A94F6CF57
:1042A000F801808189830E5F1F4FE4CF2801F2E07F
:1042B0004F0E511CF801C080D180692D70E036FC92
:1042C00002C06FEF7FEFC6010E9484224C01820181
:1042D000D5CFB70180E290E00E948F222A94281463
:1042E000190409F0B0F7CECFF60137FC859137FEFF
:1042F00081916F01B70190E00E948F2251105A9472
:10430000F1E08F1A9108BFCF843619F0893609F091
:1043100077C0F80137FE6BC0608171818281938123
:104320000C5F1F4FF32DFF763F2E97FF09C090952E
:104330008095709561957F4F8F4F9F4F689437F8A8
:104340002AE030E0A5010E94BF22C82ECA188C2C9A
:10435000432C36FE0CC0E89440F8C91440F434FEF7
:1043600005C032FC03C0F32DFE7E4F2E892C44FE87
:1043700095C0FE01EC0DF11D8081803309F087C0EE
:10438000242D297E422E842D8870582E43FC95C002
:1043900040FE8FC09C2C821418F42C0C922C981880
:1043A00044FE91C0B70180E390E00E948F2242FE5C
:1043B00009C088E790E041FE02C088E590E0B701BF
:1043C0000E948F22C91408F48AC0CA94D12C9FEF8E
:1043D000C91AD90ACA0CDB1CF60182916F01B70118
:1043E00090E00E948F22AC14BD04B1F74FCF6081E2
:1043F0007181072E000C880B990B0E5F1F4F92CF17
:10440000D32CE894D4F82AE030E0853739F1232D15
:10441000297FD22E8F3601F148F48835A9F0F701B3
:10442000868197812B96E2E10C943923803749F0FD
:104430008837A9F7D4FE02C06894D2F820E130E0B2
:104440000DC06894D4F8F6CF34FE03C0822F866086
:10445000D82E20E132E002C028E030E0F801D7FE9B
:104460000FC060817181828193810C5F1F4FA50114
:104470000E94BF22C82ECA183D2CE89437F867CF97
:104480006081718190E080E00E5F1F4FF0CF42FCB1
:1044900002C0839478CF8394839475CF842D8678DB
:1044A00009F471CFF6CFB70180E290E00E948F222D
:1044B00083948214C0F3512C73CF522C5818821459
:1044C00008F46ECFF8CF842D867809F47BCF8BE289
:1044D00041FE80E247FC8DE2B70190E071CFB70169
:1044E00080E390E00E948F229A946CCF8FEF9FEF31
:1044F00099CFFC010590615070400110D8F780956C
:1045000090958E0F9F1F0895FC016150704001909F
:104510000110D8F7809590958E0F9F1F08950F93E7
:104520001F93CF93DF93182F092FEB018B8181FD10
:1045300009C01FEF0FEF812F902FDF91CF911F91B7
:104540000F91089582FF14C02E813F818C819D813F
:10455000281739073CF4E881F981CF010196998346
:10456000888310838E819F8101969F838E83E3CF02
:10457000E885F985812F0995892BA1F3DACFFA0116
:10458000AA27283051F1203181F1E8946F936E7F92
:104590006E5F7F4F8F4F9F4FAF4FB1E03ED0B4E083
:1045A0003CD0670F781F891F9A1FA11D680F791FC4
:1045B0008A1F911DA11D6A0F711D811D911DA11DD5
:1045C00020D009F468943F912AE0269F11243019E5
:1045D000305D3193DEF6CF010895462F4770405D80
:1045E0004193B3E00FD0C9F7F6CF462F4F70405D2F
:1045F0004A3318F0495D31FD4052419302D0A9F78A
:10460000EACFB4E0A6959795879577956795BA9583
:10461000C9F700976105710508959B01AC010A2E49
:1046200006945795479537952795BA95C9F7620F20
:10463000731F841F951FA01D08952F923F924F92C4
:104640005F926F927F928F929F92AF92BF92CF9222
:10465000DF92EF92FF920F931F93CF93DF93CDB72B
:10466000DEB7CA1BDB0B0FB6F894DEBF0FBECDBFA3
:1046700009942A88398848885F846E847D848C8474
:104680009B84AA84B984C884DF80EE80FD800C817D
:104690001B81AA81B981CE0FD11D0FB6F894DEBF60
:1046A0000FBECDBFED01089511E0C1E5D1E004C01A
:1046B000FE010E944D202196C235D107C9F7F8941A
:0246C000FFCF2A
:1046C2001B072702270201000000000000009D02D4
:1046D200FA012A02EA025B0239024D0200000000DE
:1046E2002F0602061807D805FB05E805D9050000C4
:1046F20000008306FA011807D805DF06F7066B06E5
:1047020052656C6179204F6666004C6F526120578A
:10471200616B650052656C61792032204F6E20001A
:1047220052656C6179204F6E20006D616320736564
:1047320074206170706575692025730D0A006D61C2
:104742006320736574206170706B65792025730D29
:104752000A0063006D61632073657420636C61738A
:10476200732025730D0A006D6163207365742064E4
:10477200722025640D0A006D6163207365742063E5
:104782006820646379636C6520006D6163206A6FE1
:10479200696E206F746161006E6F5F667265655F3E
:1047A20063680073696C656E740062757379006D7D
:1047B20061635F7061757365640064656E696564E9
:1047C200006163636570746564006D616320747871
:1047D20020636E66200025303278006D61635F745D
:1047E200785F6F6B006D61635F6F6B00556E636F17
:1047F2006E6669726D6564207061636B6574006DCD
:10480200616320747820756E636E6620006E6F742B
:10481200206F6B206D65737361676521006176613E
:10482200696C61626C65436F6D3A200052656C6120
:1048320079206F6E205377697463682062656769B7
:104842006E73210052656D61696E696E673A00523E
:10485200656C61792032206F6E20537769746368CA
:1048620020626567696E73210052656C617920323E
:10487200204F666600466C6F77204D616C66756EE0
:104882006374696F6E00613630626436373338356F
:104892003630653366326537386231643036646586
:1048A20030323165623800373062336435376564DF
:1048B20030303233373730005365747570002D0055
:1048C2005265616420496E74657276616C203A00AB
:1048D20020637263203A00556E636F6E6669726D73
:1048E2006564205061636B657473203A20004661F1
:1048F200696C656420436F6E6669726D6174696F7D
:104902006E73206265666F72652072656A6F696E8A
:10491200203A20006D61635F7278200053544F503B
:104922000052656C6179204F6E2053776974636819
:104932000052656C6179204F6E2054696D65005399
:10494200544F5020320052656C61792032204F6EF4
:10495200205377697463680052656C617920322054
:104962004F6E2054696D6500436F6E666967002E55
:02497200000043
:107E0000112484B714BE81FFF0D085E080938100F7
:107E100082E08093C00088E18093C10086E0809377
:107E2000C20080E18093C4008EE0C9D0259A86E02C
:107E300020E33CEF91E0309385002093840096BBD3
:107E4000B09BFECF1D9AA8958150A9F7CC24DD24C4
:107E500088248394B5E0AB2EA1E19A2EF3E0BF2EE7
:107E6000A2D0813461F49FD0082FAFD0023811F036
:107E7000013811F484E001C083E08DD089C08234E0
:107E800011F484E103C0853419F485E0A6D080C0E4
:107E9000853579F488D0E82EFF2485D0082F10E0AE
:107EA000102F00270E291F29000F111F8ED06801E7
:107EB0006FC0863521F484E090D080E0DECF843638
:107EC00009F040C070D06FD0082F6DD080E0C81688
:107ED00080E7D80618F4F601B7BEE895C0E0D1E017
:107EE00062D089930C17E1F7F0E0CF16F0E7DF06D8
:107EF00018F0F601B7BEE89568D007B600FCFDCFD4
:107F0000A601A0E0B1E02C9130E011968C91119780
:107F100090E0982F8827822B932B1296FA010C0160
:107F200087BEE89511244E5F5F4FF1E0A038BF0790
:107F300051F7F601A7BEE89507B600FCFDCF97BE46
:107F4000E89526C08437B1F42ED02DD0F82E2BD052
:107F50003CD0F601EF2C8F010F5F1F4F84911BD097
:107F6000EA94F801C1F70894C11CD11CFA94CF0C13
:107F7000D11C0EC0853739F428D08EE10CD085E9AC
:107F80000AD08FE07ACF813511F488E018D01DD067
:107F900080E101D065CF982F8091C00085FFFCCF94
:107FA0009093C60008958091C00087FFFCCF809118
:107FB000C00084FD01C0A8958091C6000895E0E648
:107FC000F0E098E1908380830895EDDF803219F02E
:107FD00088E0F5DFFFCF84E1DECF1F93182FE3DFCA
:107FE0001150E9F7F2DF1F91089580E0E8DFEE27F6
:047FF000FF270994CA
:027FFE00040479
:0400000300007E007B
:00000001FF