:100000000C9445010C9423140C94FC130C94691566
:100010000C9469150C9469150C946D010C946D0188
:100020000C946D010C946D010C946D010C946D0198
:100030000C946D010C94E1150C946D010C946D0100
:100040000C94B2130C946D010C9480130C945A13FD
:100050000C946D010C946D010C946D010C946D0168
:100060000C944A140C946D0150756C7365004C61CE
:1000700073742041646472657373203A2000416494
:100080006472657373202D2D00202D2000466F7241
:100090006D61742066726F6D20616464723A200035
:1000A0002041646472657373203A00496E6372651F
:1000B0006D656E742041646472657373203A0053F9
:1000C00061766520436F756E746572203A005361E6
:1000D000766520416464726573733A200000000005
:1000E00000240027002A0000000008000201000090
:1000F0000304070000000000000000526561642056
:10010000436F756E746572203A00526561642041D8
:100110006464726573733A00435243204572726F90
:10012000720056616C6964204352433A0054726114
:100130006E736D6974200053657420496E74657226
:1001400076616C3A200053657420436F756E746558
:10015000723A2000446F776E6C696E6B2053697A37
:10016000653A00496E74657276616C203A002043EE
:100170005243203A002041646472657373203A0050
:10018000536176652055696E743332203A200043FE
:100190006F6E6E656374696F6E204C6F73742100AF
:1001A000436F6E6E656374696F6E204C6F7374007D
:1001B000436F6E6669726D6174696F6E2046616926
:1001C0006C6564203A00436F6E6669726D65640009
:1001D0003D3D3D3D3D3D3D3D3D3D3D3D3D3D3D206C
:1001E0004A6F696E204661696C6564003D3D3D3D26
:1001F0003D3D3D3D3D3D3D3D3D3D3D204A6F696EB0
:100200006564005472616E736D6974205061636B34
:10021000657420005472616E736D697420436F6E53
:100220006669726D6564205061636B657400436F2D
:10023000756E746572203A0052656D61696E696E03
:1002400067203A0041636B203A0000000000230061
:100250002600290000000000250028002B000404CF
:10026000040404040404020202020202030303035E
:10027000030301020408102040800102040810203A
:100280000102040810200816FA1D11241FBECFEF2A
:10029000D8E0DEBFCDBF14E0A0E0B1E0ECEAF5E4C9
:1002A00002C005900D92A834B107D9F727E0A8E461
:1002B000B4E001C01D92AD3DB207E1F711E0C4E426
:1002C000D1E004C02197FE010E94A31FC334D107CF
:1002D000C9F70E9486170C94C9220C940000E0E72D
:1002E000F5E0A089B18982E08C93A089B1891C9244
:1002F000A485B5851C92A685B78580E18C93108E68
:10030000A489B58986E08C93A289B3898C91806198
:100310008C93A289B3898C9188608C93A289B389CC
:100320008C9180688C930288F389E02D80818F7D89
:1003300080830895FC01E60FF11DAAE5B7E01B9646
:100340008C911B9780831A968C911A9781831996AA
:100350008C911997828318968C91838384E00895F9
:10036000FC0145E090E08CE8415089F0619158E053
:10037000792F7627292F30E035952795922F70FF1A
:1003800002C0982F92276695515091F7EDCF892F93
:100390000895EF92FF920F931F93CF93DF938C01F9
:1003A0007B01D0E0C0E0F701EC0FFD1F64916623F4
:1003B00061F0D801ED91FC910190F081E02DC80130
:1003C0000995892B11F02196EECFCE01DF91CF91C7
:1003D0001F910F91FF90EF900895AF92BF92CF922F
:1003E000DF92EF92FF920F931F93CF93DF936C01F5
:1003F0007B018B01040F151FEB015E01AE18BF08D6
:10040000C017D10759F06991D601ED91FC91019087
:10041000F081E02DC6010995892B79F7C501DF919F
:10042000CF911F910F91FF90EF90DF90CF90BF90F1
:10043000AF900895089508950895FC01538D448D5B
:10044000252F30E0842F90E0821B930B541710F07F
:10045000CF96089501970895FC01918D828D98178C
:1004600061F0A28DAE0FBF2FB11D5D968C91928D64
:100470009F5F9F73928F90E008958FEF9FEF089595
:10048000FC01918D828D981731F0828DE80FF11D5E
:10049000858D90E008958FEF9FEF0895FC01918D79
:1004A000228D892F90E0805C9F4F821B91098F7372
:1004B0009927089580E795E00E944E0221E0892B5C
:1004C00009F420E0822F089580E090E0892B29F044
:1004D0000E945A0281110C9400000895FC01A48D21
:1004E000A80FB92FB11DA35ABF4F2C91848D90E056
:1004F00001968F739927848FA689B7892C93A08939
:10050000B1898C91837080648C93938D848D9813C2
:1005100006C00288F389E02D80818F7D8083089555
:10052000EF92FF920F931F93CF93DF93EC0181E043
:10053000888F9B8D8C8D98131AC0E889F9898081EA
:1005400085FF15C09FB7F894EE89FF896083E8891D
:10055000F98980818370806480839FBF81E090E00F
:10056000DF91CF911F910F91FF90EF900895F62E9C
:100570000B8D10E00F5F1F4F0F731127E02E8C8D36
:100580008E110CC00FB607FCFACFE889F98980817B
:1005900085FFF5CFCE010E946E02F1CFEB8DEC0FFF
:1005A000FD2FF11DE35AFF4FF0829FB7F8940B8F98
:1005B000EA89FB8980818062CFCFCF93DF93EC0102
:1005C000888D8823B9F0AA89BB89E889F9898C913B
:1005D00085FD03C0808186FD0DC00FB607FCF7CFF7
:1005E0008C9185FFF2CF808185FFEDCFCE010E94F7
:1005F0006E02E9CFDF91CF91089590E0FC01E951BF
:10060000FF4F2491FC01EE58FD4F3491FC01E25A5A
:10061000FD4FE491EE23C9F0222339F0233001F19C
:10062000A8F4213019F1223029F1F0E0EE0FFF1F7C
:10063000EC5AFD4FA591B4918FB7F894EC916111EC
:1006400026C030953E233C938FBF08952730A9F0F4
:100650002830C9F0243049F7809180008F7D03C095
:10066000809180008F7780938000DFCF84B58F7773
:1006700084BDDBCF84B58F7DFBCF8091B0008F77B9
:100680008093B000D2CF8091B0008F7DF9CF3E2B08
:10069000DACFCF93DF9390E0FC01EE58FD4F249129
:1006A000825A9D4FFC0184918823C9F090E0880F05
:1006B000991FFC01E352FF4FA591B491FC01EC5A44
:1006C000FD4FC591D49161110DC09FB7F8948C91E5
:1006D000209582238C938881282328839FBFDF91D4
:1006E000CF910895623051F49FB7F8943C91822FD6
:1006F000809583238C93E8812E2BEFCF8FB7F894CE
:10070000EC912E2B2C938FBFEACF3FB7F8948091BA
:10071000F1049091F204A091F304B091F40426B591
:10072000A89B05C02F3F19F00196A11DB11D3FBF29
:10073000BA2FA92F982F8827BC01CD01620F711DF8
:10074000811D911D42E0660F771F881F991F4A95F2
:10075000D1F708958F929F92AF92BF92CF92DF927E
:10076000EF92FF924B015C010E9485036B017C01BB
:100770000E9485036C197D098E099F09683E7340AC
:1007800081059105A8F321E0821A9108A108B1081A
:1007900088EEC80E83E0D81EE11CF11C8114910480
:1007A000A104B10429F7FF90EF90DF90CF90BF90A4
:1007B000AF909F908F9008952FB7F8946091ED04BB
:1007C0007091EE048091EF049091F0042FBF089592
:1007D000CF92DF92EF92FF920F931F93CF93DF930D
:1007E0000E94DC036B017C0180E795E00E944E02D1
:1007F000892B89F0C0911906D0911A06E881F981F8
:100800000081118180E795E00E942C02682FCE01C3
:10081000F8010995E9CF0E94DC036C197D098E0966
:100820009F09693E734081059105F0F2DF91CF91F8
:100830001F910F91FF90EF90DF90CF9008954F920E
:100840005F926F927F928F929F92AF92BF92EF9240
:10085000FF920F931F93CF93DF937C01C62F0E94CB
:10086000DC034B015C0188EE93E0C89F2001C99F27
:10087000500C1124052C000C66087708D0E0C0E06D
:10088000A895CF3FD10509F0ACF487010C0F1D1FCF
:10089000E801CE19DF0980E795E00E944E02892B1E
:1008A00049F080E795E00E942C02F80181938F01C6
:1008B000A895EECF0E94DC03681979098A099B0983
:1008C0004616570668067906D8F6CE01DF91CF9115
:1008D0001F910F91FF90EF90BF90AF909F908F90DE
:1008E0007F906F905F904F9008952091C904260FDC
:1008F0003327331F21323105ECF420914605FC01EA
:1009000090E080E0243069F082E00895A091C9046D
:100910002191AC0147555B4FA40FB52FB11D2C930E
:100920000196861798F38091C904680F6093C904F3
:1009300080E0089581E008951092460581E080935B
:1009400045051092200561E082E10E94FD0261E010
:1009500083E10E94FD02E9EBF0E080818E7F8083DD
:1009600080818D7F808388E48093B80085E48093C4
:10097000BC000895CF93DF9391E09093A80488235F
:10098000B9F0C091B800D091BA008091BC008A7BC8
:100990008093BC0060E082E10E94FD0260E083E1A0
:1009A0000E94FD020E949C04D093BA00C093B8003C
:1009B000DF91CF9108958F929F92AF92BF92CF9285
:1009C000DF92EF92FF920F931F93CF93DF93D0911B
:1009D0006F05D13208F0D7C0182FC0916E050E9464
:1009E00085036B017C018091460581116BC082E01B
:1009F00080934605109345058FEF80934405109230
:100A00004305D0934205AEE4B5E0E2E2F5E080E0D4
:100A1000D81391C01092210580912105CC0FC82BCD
:100A2000C093210580912005813009F088C0109283
:100A300020050E9485036B017C0180912105809334
:100A4000BB008091480590914905A0914A05B0915D
:100A50004B05892B8A2B8B2BA1F00E9485030091DB
:100A600048051091490520914A0530914B056C19B4
:100A70007D098E099F09061717072807390708F40B
:100A800042C08091BC0083FDD8CF85EC8093BC0030
:100A90000E9485036B017C0180914605823009F438
:100AA00050C0809144058F3F09F46FC08091440588
:100AB000803209F46CC080914405803309F469C028
:100AC00084E026C08091480590914905A0914A058F
:100AD000B0914B05892B8A2B8B2B09F484CF0E9474
:100AE00085038090480590904905A0904A05B090F4
:100AF0004B056C197D098E099F0986169706A80675
:100B0000B90608F070CF809147050E94BA0485E0CD
:100B100010924D0510926F0510924C05DF91CF9108
:100B20001F910F91FF90EF90DF90CF90BF90AF900B
:100B30009F908F9008959D9191938F5F69CF85EEDF
:100B4000A5CF8091480590914905A0914A05B091A3
:100B50004B05892B8A2B8B2B09F49ECF0E94850392
:100B6000009148051091490520914A0530914B05A7
:100B70006C197D098E099F09061717072807390781
:100B800008F08ACFC0CF81E0C3CF80E0C1CF82E040
:100B9000BFCF83E0BDCF0895E091FE048091FD04B6
:100BA000E81730F4F0E0E857FB4F808190E00895BB
:100BB0008FEF9FEF08959091FE048091FD042FEF39
:100BC0003FEF981748F4E92FF0E0E857FB4F2081FA
:100BD00030E09F5F9093FE04C90108958091FD0469
:100BE0009091FE04891B990B0895CF92DF92EF92AA
:100BF000FF920F931F93CF93DF937C01CB018A0168
:100C000020914C05222389F0EB016B01C40ED51E07
:100C1000CC15DD0569F06991D701ED91FC9101904A
:100C2000F081E02DC7010995F3CF642F0E94750470
:100C3000C801DF91CF911F910F91FF90EF90DF904E
:100C4000CF900895CF93DF931F92CDB7DEB769831E
:100C500020914C052223F9F020916F05203258F0A5
:100C600021E030E0FC013383228390E080E00F90AC
:100C7000DF91CF91089580914D05E82FF0E0E25B80
:100C8000FA4F998190838F5F80934D0580936F0514
:100C900081E090E0ECCF61E0CE0101960E94750406
:100CA000F7CFCF93C82F692F8DE096E00E942206E0
:100CB0006C2F8DE096E0CF910C9422062091F704E2
:100CC0003091F8042817390771F49091F504809158
:100CD000F604981741F0E091F504F0E0E85BFB4F73
:100CE000808190E008958FEF9FEF0895EF92FF923B
:100CF0000F931F93CF93DF93DC015C96ED90FC90F4
:100D00005D97E114F10479F481E090E013969C93EF
:100D10008E93129790E080E0DF91CF911F910F9119
:100D2000FF90EF9008955196ED91FC915297509657
:100D30008C915097982F90950FB75E962C915E9757
:100D4000122F127021FD6095F8942081112319F162
:100D5000282B2083E7012197F1F728E0462F50E068
:100D6000308160FF1AC0382B3083E7012197F1F7FB
:100D7000BA0175956795215089F7112381F080811B
:100D8000892380830FBF5C968D919C910197F1F729
:100D900081E090E0C1CF2923DCCF3923E5CF9081DA
:100DA000892BEFCF2091F7043091F80428173907E9
:100DB00071F48091F6042091F50490E0805C9F4FDF
:100DC000821B910960E470E00E946D1F089590E01D
:100DD00080E008952091F7043091F804281739072E
:100DE000B9F49091F5048091F604981789F0E09198
:100DF000F504F0E0E85BFB4F80812091F50430E0E2
:100E00002F5F3F4F2F7333272093F50490E0089511
:100E10008FEF9FEF089590E080E0089508952F925E
:100E20003F924F925F926F927F928F929F92AF927A
:100E3000BF92CF92DF92EF92FF920F931F93CF93C7
:100E4000DF9300D000D000D0CDB7DEB77B012A0100
:100E5000CB01807C861B970B805C9F4F9A83898394
:100E60008530910534F083708983811102C094E04C
:100E700099839981892F90E09E838D8382179307B0
:100E800008F073C0281B390B1901E3E02E2233242C
:100E900036952795369527953901F2E06F0E711C2E
:100EA000B12CA12C10E000E09301215031093C83CA
:100EB0002B83CD80DE800115110549F08B819C814B
:100EC00061018017910719F084E0C82ED12C91E0C0
:100ED00090934C05E0E5E0936E0510924D0510925D
:100EE0006F05C7010E94510642018A0C9B1C9A8221
:100EF0008982F40161914F018DE096E00E94220603
:100F00005401A418B508C40129813A81821B930BAE
:100F10008C159D0574F381E00E94DB04EC0CFD1C34
:100F200064E170E080E090E00E94AA030F5F1F4F31
:100F30006016710609F0BDCF26960FB6F894DEBF95
:100F40000FBECDBFDF91CF911F910F91FF90EF901A
:100F5000DF90CF90BF90AF909F908F907F906F90D9
:100F60005F904F903F902F900895312C212C662454
:100F70006394712C95CF8F929F92AF92BF92DF9224
:100F8000EF92FF920F931F93CF93DF93CB01D42E59
:100F9000D52F790121E020934C0520E520936E05A3
:100FA00010924D0510926F050E94510681E00E943B
:100FB000DB040E9485034B015C0180914605811191
:100FC00065C0CE2D81E080934605809345059FEF57
:100FD00090934405109243059E0D90934205809393
:100FE000210580912105806A80932105809120054B
:100FF000813009F094C0109220050E9485034B01B6
:101000005C01809121058093BB00809148059091FF
:101010004905A0914A05B0914B05892B8A2B8B2B52
:10102000A1F00E9485030091480510914905209187
:101030004A0530914B05681979098A099B090617F9
:1010400017072807390708F442C08091BC0083FDC8
:10105000D8CF85EC8093BC000E9485034B015C01D6
:1010600080914605813009F45CC0809143058C175E
:1010700010F4C0914305A2E2B5E0E8E8F4E080E0B6
:101080008C1751F19D9191938F5FFACF8091480514
:1010900090914905A0914A05B0914B05892B8A2B67
:1010A0008B2B09F48ACF0E9485030091480510918B
:1010B000490520914A0530914B05681979098A093B
:1010C0009B09061717072807390708F076CF809184
:1010D00047050E94BA04C0E01092FE04C093FD04CC
:1010E0000D2D1D2FE00EF11E8091FE04C81731F06A
:1010F0008DE096E00E94DB05F80180830F5F1F4FB3
:10110000E016F10689F7DF91CF911F910F91FF90C3
:10111000EF90DF90BF90AF909F908F90089585EEF5
:1011200099CF8091480590914905A0914A05B091C9
:101130004B05892B8A2B8B2B09F492CF0E948503B8
:10114000009148051091490520914A0530914B05C1
:10115000681979098A099B090617170728073907AB
:1011600008F07ECFB4CFCF93DF93EC0184E1FE0192
:1011700011928A95E9F7188280E86115710509F0E6
:1011800080E4888380915E0781110CC080915F07A5
:10119000811108C080916007811104C080916107AE
:1011A000882319F0888180628883809173079091E9
:1011B00074078430910509F058C088818061888364
:1011C00080915A0790915B078130910509F053C0D7
:1011D000888184608883672B09F059C019828091C7
:1011E0006A078A8363E0CE010E949A01E3E0E80F78
:1011F000EC0FFD2FF11D9091690790839091680786
:101200009183909167079283909166079383895F9A
:10121000FE01E80FF11D90917007908390916F0788
:10122000918392E0980FC90FD11D188290915E07AB
:10123000992311F090E8988390915F07992319F012
:1012400098819064988390916007992319F0988110
:101250009062988390916107992319F09881906129
:1012600098838D5FDF91CF910895892B09F0A8CFE6
:1012700088818860A4CF8230910519F488818260CA
:10128000A9CF039709F0A7CF88818160A3CF809170
:101290006E07898380916D078A8380916C078B83A9
:1012A00080916B078C8365E0CE010E949A018B5F71
:1012B000AFCF8EEB97E090931A0680931906EBE17F
:1012C000F6E080E091E0DF019C011D92215030406A
:1012D000E1F70E946F0161E086E00E94490361E04E
:1012E00086E00E94FD0268EC70E080E090E00C94E3
:1012F000AA03FB0101900020E9F73197AF01461BDB
:10130000570BDC01ED91FC910280F381E02D0994F3
:1013100062E472E00C9479090F931F93CF93DF93EB
:10132000EC010E94C9018C01CE010E948809800F46
:10133000911FDF91CF911F910F910895CF92DF926E
:10134000EF92FF920F931F9368E670E08EEB97E0A9
:101350000E948C09C0901C05D0901D05E0901E05D0
:10136000F0901F050E94DC0300917E0710917F071B
:101370002091800730918107601B710B820B930BCA
:10138000693572408105910508F464C00E94DC0350
:1013900060938207709383078093840790938507F7
:1013A0000E94DC0360937E0770937F078093800721
:1013B000909381078091A307882309F45AC00E9463
:1013C000DC036093A4077093A5078093A60790930E
:1013D000A7074091A4075091A5076091A6077091B7
:1013E000A7078091A8079091A907A091AA07B0919B
:1013F000AB07481759076A077B07C0F4841B950B96
:10140000A60BB70B853F9140A105B10578F00E946E
:10141000DC0360937E0770937F078093800790932F
:1014200081078FEFC81AD80AE80AF80A8091A30743
:1014300081112AC08091A8079091A907A091AA07BD
:10144000B091AB078093A4079093A507A093A6073C
:10145000B093A707C0921C05D0921D05E0921E050F
:10146000F0921F051F910F91FF90EF90DF90CF90AA
:1014700008950E94DC036093A8077093A9078093E6
:10148000AA079093AB07A5CF1092A307E3CF8F9243
:101490009F92AF92BF92EF92FF920F931F93CF93C1
:1014A000DF93CDB7DEB7A1970FB6F894DEBF0FBEBE
:1014B000CDBF7C01FA01CB0119A2223008F42AE049
:1014C0008E010F5D1F4F822E912CB12CA12CBF01DC
:1014D000A50194010E94811FF901CA016A300CF52F
:1014E000605DD8016E938D01232B242B252B79F77A
:1014F00090E080E0109721F0BD01C7010E947909BA
:10150000A1960FB6F894DEBF0FBECDBFDF91CF918D
:101510001F910F91FF90EF90BF90AF909F908F9091
:101520000895695CDECFAB0170E060E02AE00C94C6
:10153000470A0F931F93CF93DF93EC010E94930A06
:101540008C01CE010E948809800F911FDF91CF91FD
:101550001F910F910895BF92CF92DF92EF92FF9269
:101560000F931F93CF93DF9300D000D000D0CDB75F
:10157000DEB78C01B42EC52ED62EE72E79836A8372
:101580005B834C83CE0101960E94B001F82E1D8230
:101590008E8326E030E0AE014F5F5F4F70E060E089
:1015A000F801828193810E940F0760E871E0F801E1
:1015B000808191810E94C9012AE04B2D5C2D6D2D07
:1015C0007E2DF801808191810E94470A65E771E0D4
:1015D000F801808191810E94C90170E060E0F8010A
:1015E000808191810E94930A6EE671E0F80180810A
:1015F00091810E94C9016F2D70E0F8018081918175
:101600000E94990A26960FB6F894DEBF0FBECDBF92
:10161000DF91CF911F910F91FF90EF90DF90CF90CE
:10162000BF900895CF92DF92EF92FF920F931F9396
:10163000CF93DF9377FF21C06A017B01EC01E88142
:10164000F9810190F081E02D6DE209958C0144272C
:101650005527BA014C195D096E097F092AE0CE01B0
:101660000E94470A800F911FDF91CF911F910F9128
:10167000FF90EF90DF90CF9008952AE0DF91CF9117
:101680001F910F91FF90EF90DF90CF900C94470A3D
:101690000F931F93CF93DF93EC01AB01770F660B92
:1016A000770B0E94120B8C01CE010E948809800FDB
:1016B000911FDF91CF911F910F9108950F931F9369
:1016C000CF93DF93EC012AE00E94470A8C01CE0100
:1016D0000E948809800F911FDF91CF911F910F9178
:1016E0000895CF92DF92EF92FF920F931F93CF93C3
:1016F000DF9300D000D0CDB7DEB78C016A017B014B
:10170000F9826A83DB824C836BEA70E0FC018081A2
:1017100091810E94C901F801648175818081918164
:101720000E94930AF801848195810496883EF3E033
:101730009F0708F049C0F8019583848360EA70E050
:10174000808191810E94C901F80164817581808145
:1017500091810E94990A6EEC70E0F801808191817C
:101760000E94C901F80164817581808191810E9484
:10177000990AF801C682D782E086F1866481758174
:1017800024E030E0AE014F5F5F4F828193810E9481
:101790000F076FEB70E0F801808191810E94C90111
:1017A000A601B701F801808191810E945E0B0F9024
:1017B0000F900F900F90DF91CF911F910F91FF909D
:1017C000EF90DF90CF90089588EC90E0B4CF0F9326
:1017D0001F93CF93DF938C01D0E0C0E061157105BA
:1017E00019F00E947909EC01C8010E9488098C0F48
:1017F0009D1FDF91CF911F910F910895CF93DF939C
:10180000EC01CC0FDD1FC80FD91FCB58D84F60E0BB
:1018100088A10E94FD0263EA71E08091AD0790917A
:10182000AE070E94E70B1F8EDF91CF910895CF93F3
:10183000DF93C5E7D7E09E8F8D8F81E08FAB81E08E
:1018400090E00E94FE0B82E090E00E94FE0B83E09D
:1018500090E00E94FE0B84E090E00E94FE0B1D824F
:101860001C828FE090E09C8F8B8FDF91CF91089549
:101870000F931F93CF93DF938C01C5E7D7E07E8F43
:101880006D8F81E08FABC8010E94FE0BF801EE0F57
:10189000FF1FE00FF11FEB58F84F178E1D821C82BF
:1018A0008FE090E09C8F8B8FDF91CF911F910F91F4
:1018B00008956FEA71E08091190690911A060E94CE
:1018C000E70B80E795E00E94DD02E0E7F5E0A28902
:1018D000B3898C918F7E8C93A289B3898C91877FF9
:1018E0008C93A289B3898C918F778C93A289B389C9
:1018F0008C918F7D8C93828D818F61E081E00E943D
:10190000490360E081E00E94FD026AE070E080E04F
:1019100090E00E94AA0361E081E00E94FD026AE07B
:1019200070E080E090E00E94AA030E946F0165E5EC
:1019300080E795E00E9490020C94E8036115710520
:1019400011F00C94790990E080E008950F931F93B3
:10195000CF93DF9305E717E0EC01CC0FDD1FC80F35
:10196000D91FCB58D84F61E088A10E94FD0281E0C9
:101970008F8F0E94DC03F801658B768B878B908FAD
:1019800069EB71E080AD91AD0E949E0CF801168E5E
:10199000158EDF91CF911F910F910895CF93DF9313
:1019A000FC01EE0FFF1FE80FF91FEB58F84F278DD2
:1019B00021110EC0EC0164EC71E08091AD079091B3
:1019C000AE070E94E70BCE01DF91CF910C94A60CDD
:1019D000DF91CF9108950F931F93CF93DF938C01E5
:1019E00060917C0770917D078091AD079091AE0763
:1019F0000E94930A69E473E08091AD079091AE076D
:101A00000E949E0CC091AD07D091AE0740917B071C
:101A100050E070E060E02AE0CE010E94470ACE016B
:101A20000E9488096CED71E08091AD079091AE073E
:101A30000E949E0C6091790770917A078091AD07A2
:101A40009091AE070E94990AE801CC0FDD1FFE01BC
:101A5000E00FF11FEB58F84F878D811109C080917D
:101A6000790790917A07892B19F0C8010E94A60C7A
:101A7000C00FD11FCB58D84F8F8D882389F080910C
:101A8000790790917A07892B59F470E060E0C801DA
:101A90000E94380C8FE090E090939107809390071C
:101AA00080917B078B3340F48F5F80937B07DF91BE
:101AB000CF911F910F91089510927B0780917C0721
:101AC00090917D07019690937D0780937C0780918C
:101AD000790790917A07009751F3019790937A07CD
:101AE00080937907E4CF0F931F93809105058111AF
:101AF0008DC0E0919007F0919107ED30F105A8F4C9
:101B0000EC57F24F0C94A31F910DCD0DD00DD30DBA
:101B1000D60DDB0DDE0DE10DE40DEB0DF00DF50D39
:101B2000FA0D81E090E00E94CE0CE5E7F7E082A19B
:101B3000882309F464C081E080938F0780918F0728
:101B4000882309F463C00E94DC030091820710918E
:101B500083072091840730918507601B710B820BEE
:101B6000930B009186071091870720918807309189
:101B70008907061717072807390708F047C067EED7
:101B800071E08091AD079091AE070E94E70B81E074
:101B900090E01F910F910C94170C82E090E0C3CF5E
:101BA00083E090E0C0CF84E090E0BDCF81E090E0A2
:101BB0000E94EB0CBACF82E090E0FACF83E090E095
:101BC000F7CF84E090E0F4CF63E070E081E090E054
:101BD0000E94380CAACF63E070E082E090E0F8CF7A
:101BE00063E070E083E090E0F3CF63E070E084E0D6
:101BF00090E0EECF83E090E00E94170C96CF3396F2
:101C000087E0E138F80709F092CF98CF1F910F9144
:101C100008952F923F924F925F926F927F928F9290
:101C20009F92AF92BF92CF92DF92EF92FF920F936B
:101C30001F93CF93DF93CDB7DEB7CE54D1090FB644
:101C4000F894DEBF0FBECDBF29968FAF29974A010A
:101C50005B012D960CAF1DAF2EAF3FAF2D971092AD
:101C600020078091750790917607A0917707B09132
:101C7000780728968CAF9DAFAEAFBFAF2897209066
:101C8000790730907A0790911F0724969FAF249789
:101C9000911139C10E94590C0E94590920E4722EF9
:101CA0008E010F5F1F4FD801E72D1D92EA95E9F7CE
:101CB00089E497E09F938F9388EF91E09F938F93B0
:101CC0001F930F930E94F11FB80180E795E00E94D7
:101CD0009E0CB8018091190690911A060E949E0CE4
:101CE0000E94E803D801E72D1D92EA95E9F788E202
:101CF00097E09F938F938CE092E09F938F931F9335
:101D00000F930E94F11FB80180E795E00E949E0C9E
:101D10000E94E803D801E72D1D92EA95E9F780E2D9
:101D200092E09F938F9382E292E09F938F931F9311
:101D30000F930E94F11FB80180E795E00E949E0C6E
:101D4000B8018091190690911A060E949E0C0E947B
:101D5000E803D8011D927A94E9F71F921F9285E358
:101D600092E09F938F931F930F930E94F11FB801EE
:101D700080E795E00E949E0CB80180911906909131
:101D80001A060E949E0C0E94E8030FB6F894DEBF6C
:101D90000FBECDBF412C512C320165E472E080E7CB
:101DA00095E00E949E0CB301A20180E795E00E949D
:101DB000120B66E873E080E795E00E949E0C70E0ED
:101DC00060E080E795E00E94480B64E670E080E008
:101DD00090E00E94AA03A89580E795E00E944E0239
:101DE000892BC9F00091190610911A06D801ED91BE
:101DF000FC91208131812F963FAF2EAF2F9780E746
:101E000095E00E942C02682FC8012F96EEADFFAD21
:101E10002F970995E1CFFFEF4F1A5F0A6F0A7F0AEC
:101E200020E1421651046104710409F0B6CFA8956F
:101E300068E572E080E795E00E94E70BEBE1F6E0F1
:101E400080E091E0DF019C011D9221503040E1F7DC
:101E50006FE0CF010E941F046BE176E080911906CC
:101E600090911A060E94E70B68E572E080911906CE
:101E700090911A060E94E70B0E94E80366E672E062
:101E80008BE196E00E94D71F892B09F0EBC061E738
:101E900072E08BE196E00E94D71F892B09F0E2C027
:101EA00068E772E08BE196E00E94D71F892B09F06A
:101EB000D9C06DE772E08BE196E00E94D71F892BB5
:101EC00009F0D0C068E872E08BE196E00E94D71F6D
:101ED000892B09F0C7C06FE872E08BE196E00E94A1
:101EE000D71F892B09F4BEC06CEE71E08EEB97E032
:101EF0000E948C0931E024963FAF249724968FAD41
:101F0000249780931F0780911F07882309F472C1CB
:101F10008E010F5F1F4F29969FAD29979111A9C080
:101F2000809192079091930790935B0780935A0753
:101F30008091900790919107909374078093730715
:101F40008091A00790919D0720919A073091970763
:101F500030935E0720935F0790936007809361073B
:101F60008092620790926307A0926407B09265071F
:101F70002D968CAD9DADAEADBFAD2D978093660710
:101F800090936707A0936807B09369073092700732
:101F900020926F078091210780936A0770E060E0CC
:101FA000C8010E94B308982E80918F07DE01AF5BB5
:101FB000BF4F5D01811111C02996BFAD2997B111A5
:101FC0000CC08091220790912307B0E0A0E08C150F
:101FD0009D05AE05BF0508F46EC164E172E08EEBAD
:101FE00097E00E948C09F5011182108268E972E085
:101FF00080E795E00E949E0C42E050E060E070E0D7
:1020000080E795E00E94120B66E873E080E795E0B8
:102010000E949E0C780194EAC92E92E0D92E8E2D52
:10202000801B891508F09BC0D7018D917D011F92FF
:102030008F93DF92CF92BF92AF920E94F11FB501B2
:1020400080E795E00E949E0CB50180911906909161
:102050001A060E9479090F900F900F900F900F9021
:102060000F90DDCF60ED71E08EEB97E00E948C0960
:1020700045CF64E472E08EEB97E00E94C901289698
:102080004CAD5DAD6EAD7FAD28978EEB97E00E94B5
:102090005E0B68E372E08EEB97E00E94C901B1012C
:1020A0008EEB97E00E94990A6EE272E08EEB97E069
:1020B0000E94C901B501A4018EEB97E00E945E0B5E
:1020C000809192079091930790935B0780935A07B2
:1020D0008091900790919107909374078093730774
:1020E0008091A00790919D0720919A0730919707C2
:1020F00030935E0720935F0790936007809361079A
:102100002D968CAD9DADAEADBFAD2D97809366077E
:1021100090936707A0936807B093690730927007A0
:1021200020926F078092620790926307A0926407E3
:10213000B092650728968CAD9DADAEADBFAD28972A
:1021400080936B0790936C07A0936D07B0936E0715
:102150008091210780936A0761E070E021CF809130
:10216000190690911A060E94880980E795E00E945E
:102170008809EBE1F6E080E091E0DF019C011D922F
:1021800021503040E1F76AE0CF010E941F046BE16B
:1021900076E08091190690911A060E949E0C0E948A
:1021A000E80369EA72E08BE196E00E94D71F892B71
:1021B00041F463EB72E08BE196E00E94D71F892B1C
:1021C00099F16FED72E08091190690911A060E94C4
:1021D000E70B81E0809320071092270710922607D3
:1021E000109223071092220766EC71E08EEB97E0C5
:1021F0000E948C09C25BDF4F0FB6F894DEBF0FBEA2
:10220000CDBFDF91CF911F910F91FF90EF90DF90A5
:10221000CF90BF90AF909F908F907F906F905F9086
:102220004F903F902F90089510922007809126079D
:10223000909127070196909327078093260760EBDC
:1022400071E08EEB97E00E94C901609126077091C2
:1022500027078EEB97E00E94990A809126079091BC
:102260002707029710F00E94590C80912607909141
:102270002707039708F4BECF60EA71E08EEB97E082
:102280000E948C09109227071092260710922307AC
:102290001092220710921F0770E060E082E090E049
:1022A0000E94380C6FE871E08EEB97E00E948C0979
:1022B0000C9400009FCF6AEB72E08EEB97E00E94D7
:1022C000E70B80912207909123070F9690932307A5
:1022D0008093220763E072E08EEB97E00E94C901D1
:1022E00060912207709123078EEB97E00E94990A74
:1022F000D5011D921C926DEC72E080E795E00E9482
:102300009E0C4AE050E060E070E080E795E00E94BB
:10231000120B66E873E080E795E00E949E0C78015E
:1023200084EAC82E82E0D82E8E2D801B8915F0F409
:10233000F70181917F011F928F93DF92CF92BF921D
:10234000AF920E94F11FB50180E795E00E949E0CBC
:10235000B5018091190690911A060E9479090F9093
:102360000F900F900F900F900F90DECF8091190675
:1023700090911A060E94880980E795E00E948809DA
:10238000EBE1F6E080E091E0DF019C011D9221503D
:102390003040E1F765E0CF010E941F046BE176E079
:1023A0008091190690911A060E949E0C0E94E803E3
:1023B00069EA72E08BE196E00E94D71F009119064E
:1023C00010911A06892B41F463EB72E08BE196E0E1
:1023D0000E94D71F892BB1F081E0809321076FED18
:1023E00072E0C8010E94E70B6BEE72E08EEB97E0A3
:1023F0000E949E0C6091210770E08EEB97E00E9496
:10240000480BF8CE6BED72E0C8010E94E70B0E940A
:10241000590CEACF2F923F924F925F926F927F9228
:102420008F929F92AF92BF92CF92DF92EF92FF92E4
:102430000F931F93CF93DF9300D000D0CDB7DEB7BB
:102440008C016EE770E0FC01808191810E948C0913
:10245000212C312C210148EC642E712C58ECA52E36
:10246000B12CCE0101964C01F40184E011928A95C1
:10247000E9F724E030E0A401B501F80182819381FD
:102480000E94BB07C980D12CF12CE12CFC2CEE243E
:10249000DD24CC248A8190E0B0E0A0E0DC01992723
:1024A00088278C0D9D1DAE1DBF1D2C81820F911D97
:1024B000A11DB11DCB80D12CF12CE12CFE2CED2CDB
:1024C000DC2CCC24C80ED91EEA1EFB1EB501F80177
:1024D000808191810E94930A66E873E0F80180810F
:1024E00091810E949E0CB701A601F8018081918123
:1024F0000E945E0BC214D304E404F50440F0C1143E
:10250000D104E104F10419F0160127013501F4E0CA
:10251000AF0EB11C8CEEA81683E0B80609F0A4CF6C
:102520006EE670E0F801808191810E94C901B301DB
:10253000F801808191810E94990AF8016482758274
:10254000C682D782E086F186C3010F900F900F906C
:102550000F90DF91CF911F910F91FF90EF90DF903F
:10256000CF90BF90AF909F908F907F906F905F9033
:102570004F903F902F900895AF92BF92CF92DF92ED
:10258000EF92FF920F931F93CF93DF93CDB7DEB7F8
:10259000CA5FD1090FB6F894DEBF0FBECDBF8C0164
:1025A000CE0101965C018AEFF50111928A95E9F757
:1025B00088ECE82EF12C6DE870E0F80180819181C3
:1025C0000E94C901B701F801808191810E94930A9C
:1025D00069E870E0F801808191810E94C90167017A
:1025E000FAEFCF0ED11CB601F801808191810E94D3
:1025F000990A2AEF30E0A501B70183E095E00E9437
:102600000F07B601F801808191810E94990A760135
:10261000F0EBCF16F4E0DF0671F6C8010E940A1253
:10262000C650DF4F0FB6F894DEBF0FBECDBFDF91AF
:10263000CF911F910F91FF90EF90DF90CF90BF90BF
:10264000AF90089585ED8093BC00809148059091EE
:102650004905A0914A05B0914B050796A11DB11DF2
:1026600023E0B695A795979587952A95D1F7209160
:10267000BC0024FD03C01092460508954091480512
:102680005091490560914A0570914B05452B462BA9
:10269000472B69F30097A105B10541F025E32A9581
:1026A000F1F700000197A109B109E1CF8091470539
:1026B0000C94BA041F920F920FB60F9211242F930D
:1026C0003F934F935F936F937F938F939F93AF93BA
:1026D000BF93EF93FF9380E795E00E946E02FF9116
:1026E000EF91BF91AF919F918F917F916F915F918A
:1026F0004F913F912F910F900FBE0F901F90189503
:102700001F920F920FB60F9211242F938F939F93C6
:10271000EF93FF93E0918005F09181058081E09136
:102720008605F091870582FD1BC090818091890507
:102730008F5F8F7320918A05821741F0E0918905A0
:10274000F0E0E059FA4F958F80938905FF91EF9162
:102750009F918F912F910F900FBE0F901F90189502
:102760008081F4CF1F920F920FB60F9211242F93F6
:102770003F938F939F93AF93BF938091ED0490917C
:10278000EE04A091EF04B091F0043091EC0423E04A
:10279000230F2D3758F50196A11DB11D2093EC0490
:1027A0008093ED049093EE04A093EF04B093F004B3
:1027B0008091F1049091F204A091F304B091F4049B
:1027C0000196A11DB11D8093F1049093F204A09392
:1027D000F304B093F404BF91AF919F918F913F9117
:1027E0002F910F900FBE0F901F90189526E8230F82
:1027F0000296A11DB11DD2CF1F920F920FB60F925C
:1028000011242F933F934F935F936F937F938F93F5
:102810009F93AF93BF93EF93FF93E0910401F091E7
:1028200005010995FF91EF91BF91AF919F918F9114
:102830007F916F915F914F913F912F910F900FBEBC
:102840000F901F9018951F920F920FB60F921124A0
:102850002F933F934F935F936F937F938F939F93A8
:10286000AF93BF93EF93FF93E0910201F0910301C7
:102870000995FF91EF91BF91AF919F918F917F91BA
:102880006F915F914F913F912F910F900FBE0F90DD
:102890001F9018951F920F920FB60F9211242F932D
:1028A0003F934F935F936F937F938F939F93AF93D8
:1028B000BF93EF93FF938091B900887F803609F42E
:1028C0004AC0F0F5883209F4A7C018F5803109F440
:1028D0009BC0B8F4882309F4F9C0883009F494C087
:1028E000FF91EF91BF91AF919F918F917F916F91E8
:1028F0005F914F913F912F910F900FBE0F901F90BE
:102900001895883109F488C0803251F780934405C6
:1029100014C0803409F49DC040F48033B9F3883387
:10292000F9F68093440585ECB0C0803509F485C084
:10293000883509F496C0883499F60E942213D0CFC6
:10294000883909F48CC038F5883729F050F4883676
:1029500011F0803729F683E0809346051092EB044E
:1029600057C0883809F47BC0803919F0803809F0E5
:10297000B7CF8091EB04803208F071C0E091EB0496
:1029800081E08E0F8093EB048091BB00F0E0E55373
:10299000FB4F80833DC0803B39F0E0F4803A09F47E
:1029A00079C0883A09F09CCF84E080934605109264
:1029B000CA041092C904E091FB04F091FC0409954B
:1029C0008091C90481110FC081E08093C9041092E5
:1029D000A90409C0803C09F4A6CF883C09F4A3CF20
:1029E000883B09F07DCFE091CA0481E08E0F80938F
:1029F000CA04F0E0E755FB4F80818093BB009091C3
:102A0000CA048091C90429C0809121058093BB002C
:102A100085EC8093BC0064CF909143058091420582
:102A2000981758F5E091430581E08E0F8093430598
:102A3000F0E0EE5DFA4F8081E9CFE091430581E05F
:102A40008E0F809343058091BB00F0E0EE5DFA4F5E
:102A5000808390914305809142059817C8F285E8DC
:102A6000D8CFE091430581E08E0F8093430580919C
:102A7000BB00F0E0EE5DFA4F808380914505811147
:102A80005CCF81E08093200584EA8093BC001092A3
:102A9000460526CF85EC8093BC00109246058091B8
:102AA000EB04803230F4E091EB04F0E0E553FB4FAF
:102AB00010826091EB0470E0E091F904F091FA0467
:102AC0008BEC94E009951092EB040ACF1092440528
:102AD00034CF1F920F920FB60F9211242F933F9372
:102AE0004F935F936F937F938F939F93AF93BF9316
:102AF000EF93FF93E091F704F091F804309749F0D9
:102B0000A685B7858585968D91FF14C09C918923F4
:102B1000A1F4FF91EF91BF91AF919F918F917F9120
:102B20006F915F914F913F912F910F900FBE0F903A
:102B30001F9018959C91892361F7A389B4899C9172
:102B40008589809589238C93868997890197F1F7E8
:102B5000608D718DA685B785558538E020E0CB0165
:102B60000197F1F7822F90E095958795282F4C914A
:102B7000452309F02068315091F7868D81FD20951D
:102B80008091F60490E001968F7399273091F504B7
:102B9000381799F0A091F604B0E0A85BBB4F2C93D6
:102BA0008093F604828D938D0197F1F7A389B48900
:102BB0008C919589892B8C93ACCF868D8160868F83
:102BC000F1CF1F920F920FB60F9211242F933F93C4
:102BD0004F935F936F937F938F939F93AF93BF9325
:102BE000EF93FF93E0910001F09101010995FF91AE
:102BF000EF91BF91AF919F918F917F916F915F9175
:102C00004F913F912F910F900FBE0F901F901895ED
:102C1000109273051092720548EE53E060E070E088
:102C2000409374055093750560937605709377050E
:102C300081E791E0909371058093700585EC90E0B9
:102C400090937D0580937C0584EC90E090937F05C4
:102C500080937E0580EC90E09093810580938005C1
:102C600081EC90E0909383058093820582EC90E064
:102C7000909385058093840586EC90E0909387057A
:102C8000809386051092890510928A0510928B0513
:102C900010928C051092100610920F0640931106A8
:102CA00050931206609313067093140683E891E024
:102CB00090930E0680930D0610921C0710921B072E
:102CC00010921F07109220071092210710922307DD
:102CD00010922207109225071092240710922707BE
:102CE0001092260781E2EAEFF2E0A8E2B7E0019055
:102CF0000D928A95E1F781E1EBE1F3E0A9E4B7E019
:102D000001900D928A95E1F710925E0710925F078D
:102D10001092600710926107109262071092630789
:102D20001092640710926507109266071092670769
:102D3000109268071092690710926A0710926B0749
:102D400010926C0710926D0710926E071092700728
:102D500010926F07109275071092760710927707FE
:102D60001092780710927A071092790710927B07D9
:102D700010927D0710927C0710927E0710927F07B9
:102D80001092800710928107109282071092830799
:102D9000109284071092850780E497E7ABE1B0E0DA
:102DA0008093860790938707A0938807B09389073D
:102DB00010928A0710928B0710928C0710928D0741
:102DC00010928E0710928F078FE090E090939107FA
:102DD00080939007EAE0F1E0A4E9B7E001900D925A
:102DE0008A95E1F791E09093A3071092A4071092BF
:102DF000A5071092A6071092A7071092A807109295
:102E0000A9071092AA071092AB071092AC07109274
:102E1000B3071092B4071092B5071092B60710923C
:102E2000B7071092B8071092B9071092BA0710921C
:102E3000BB071092BC071092BD071092C1071092F9
:102E4000C0074093C2075093C3076093C4077093B1
:102E5000C50725E931E03093BF072093BE071092E4
:102E6000D5071092D4071092D7071092D607109268
:102E7000D9071092D8071092DB071092DA078091D9
:102E8000DC078E7F8D7F8093DC0786958170682FAD
:102E9000692788E00E94FD0261E088E00E94490302
:102EA000EAE7F2E0E491E093CE07E6E6F2E0E491AF
:102EB000F0E0EE0FFF1FEC5AFD4F85919491909337
:102EC000D0078093CF0760E086E00E94490380919D
:102ED000DC0781FD04C061E086E00E94FD0286E01F
:102EE0008093CA07E8E7F2E0E491E093CB07E4E6D9
:102EF000F2E0E491F0E0EE0FFF1FE65BFD4F8591FD
:102F000094919093CD078093CC070895CF93DF934E
:102F1000CDB7DEB7C956D1090FB6F894DEBF0FBEE4
:102F2000CDBF789484B5826084BD84B5816084BD52
:102F300085B5826085BD85B5816085BD80916E0057
:102F4000816080936E001092810080918100826088
:102F500080938100809181008160809381008091C5
:102F600080008160809380008091B10084608093B4
:102F7000B1008091B00081608093B00080917A00B0
:102F8000846080937A0080917A00826080937A00D6
:102F900080917A00816080937A0080917A008068C5
:102FA00080937A001092C10088E199E20FB6F894FC
:102FB000A895809360000FBE9093600061E08AE066
:102FC0000E94490361E08AE00E94FD021092D90745
:102FD0001092D8071092D7071092D6071092D507F3
:102FE0001092D4078DE991E09093DB078093DA0784
:102FF0009091CA07963108F047C02DEB30E030932E
:10300000D5072093D4072BE931E03093D7072093DD
:10301000D6072CE231E03093D9072093D8072091CE
:10302000680084E0983048F031E09E3008F430E0E9
:1030300081E001C0880F3A95EAF7822B80936800FF
:103040002DE630E0983050F02BE630E09E3030F046
:103050002CE630E0963110F030E020E03093D207DB
:103060002093D107292F30E0983008F0ACC481E0DC
:1030700001C0880F9A95EAF78093D3078091DA0709
:103080009091DB070197F1F78091D8079091D907CC
:10309000892B49F1E091F704F091F80427E0EE3B29
:1030A000F20709F1309739F0A389B4899C91858999
:1030B000809589238C938091DC078E7F8093DC0739
:1030C0001092F6041092F5048EEB97E09093F804BA
:1030D0008093F704E091D107F091D207808190911D
:1030E000D307892B80836CE273E08EEB97E00E941C
:1030F000E70B0E9459090EEB17E0109304050093AB
:1031000003051092FE041092FD0410924D051092DA
:103110006F050E949C048BE192E09093FC048093E5
:10312000FB048CE192E09093FA048093F9041093ED
:1031300013050093120583E095E0909315058093A5
:10314000140582E195E00E940A121093AE070093E5
:10315000AD078AE597E09093B0078093AF0782E1CF
:1031600095E09093B2078093B10705E717E041E837
:10317000E42E47E0F42E61E0D80193968C910E94F2
:10318000490360E0F80183A10E94FD020D5F1F4F1B
:10319000E016F10681F7A89519821A821B821C821B
:1031A00000911605109117056AE071E080911205F3
:1031B000909113050E94C901B80180911205909168
:1031C00013050E94990A24E030E0AE014F5F5F4F83
:1031D0004A01B80180911405909115050E94BB0722
:1031E000C980D12CF12CE12CFC2CEE24DD24CC2444
:1031F0004A8150E070E060E0BA01552744274C0D49
:103200005D1D6E1D7F1D8C81480F511D611D711D3F
:103210008B8190E0B0E0A0E0CC24D82EE92EFA2EED
:10322000C40ED51EE61EF71EC0921805D0921905D1
:10323000E0921A05F0921B056BEF70E08091120589
:10324000909113050E94C901B701A6018091120552
:10325000909113050E945E0BC0921C05D0921D0533
:10326000E0921E05F0921F0586E0D4011D928A951A
:10327000E9F726E030E0A40170E060E080911405F9
:10328000909115050E94BB07898190E0B0E0A0E015
:10329000B82FAA27992788274A8150E070E060E07C
:1032A000BA0155274427840F951FA61FB71F2C81ED
:1032B000820F911DA11DB11D4B8150E070E060E0B7
:1032C000762F652F542F44271A012B01280E391E03
:1032D0004A1E5B1EED80F12CFE2CEE248E81E80E42
:1032E000F11CC4010E94B001C82ED12C809112059E
:1032F00090911305EC14FD0409F072C362E271E0D1
:103300000E94C901B70180911205909113050E9496
:10331000930A62E373E080911205909113050E9475
:103320009E0CB70180911205909113050E94990A95
:1033300011E064E373E080911205909113050E94FF
:103340009E0C2AE0B201A101809112059091130513
:103350000E94470A64E473E080911205909113057E
:103360000E949E0C612F70E08091120590911305D0
:103370000E94480B112339F0BDE22B16B1E03B0649
:103380004104510468F444EB50E060E070E082E1F5
:1033900095E00E94AB0A24EB222E312C412C512CBB
:1033A00020920A0530920B0540920C0550920D05B3
:1033B00060EC78EA80E090E0A20191010E94811F18
:1033C000CA01B9010E94DF1E20E030E040E05FE367
:1033D0000E943D1E0E94A91E60930605709307057A
:1033E000809308059093090560E674E580E090E01D
:1033F000A20191010E94811FCA01B9010E94DF1E32
:1034000020E030E040E05FE30E943D1E0E94A91EE4
:103410006093FF047093000580930105909302056B
:103420006BE473E08EEB97E00E949E0C40910605E2
:103430005091070560910805709109058EEB97E0A2
:103440000E945E0B62E673E08EEB97E00E949E0C9A
:103450004091FF04509100056091010570910205B3
:103460008EEB97E00E945E0B80E1809381001092CA
:10347000800082E19AE7909387008093860084E140
:103480008093810083E79DE0909301018093000188
:1034900081E080936F0062E083E00E94490368EE60
:1034A00073E080E090E00E94AA038EE999E0909397
:1034B00005018093040180916900837F846080937B
:1034C0006900E99A68EE73E080E090E00E94AA0348
:1034D00040911C0550911D0560911E0570911F05BE
:1034E000C0900605D0900705E0900805F09009050A
:1034F0000091060110910701209108013091090106
:1035000080E00E94090E5E01E5E5AE0EB11C84E18B
:10351000282E90E0492E90E0592EA89580911C0508
:1035200090911D05A0911E05B0911F0581309D420F
:10353000A143B14008F470C210921C0510921D0501
:1035400010921E0510921F0582E195E00E94BC12A8
:103550000E94DC0300910E0510910F0520911005CB
:10356000309111056B017C01C01AD10AE20AF30AFD
:1035700020910A0530910B0540910C0550910D05E5
:10358000A8EEB3E00E94A91F6C157D058E059F056E
:1035900038F08091BD07882309F459C21092BD0705
:1035A00063E671E08EEB97E00E94C90140910A0545
:1035B00050910B0560910C0570910D058EEB97E015
:1035C0000E945E0B009106011091070120910801F5
:1035D000309109010F5F1F4F2F4F3F4F009306019E
:1035E00010930701209308013093090140911C05B5
:1035F00050911D0560911E0570911F05C090060534
:10360000D0900705E0900805F090090580E00E9441
:10361000090E0E94DC0360930E0570930F058093E2
:10362000100590931105D501E22D1D92EA95E9F759
:1036300061E08BE196E00E941F0468E873E08BE193
:1036400096E00E94D71F8C01F12CE12C009709F421
:103650005CC007960E94161EE4E0F0E084369105F7
:1036600030F4E3E0F0E00A9710F4E2E0F0E0BF01AC
:103670006E5D794FE00FF11FF12CE12C30E020E07E
:1036800020FD33C08085478190ED940F9A3060F023
:103690009FEB940F963008F4E2C19FE9940F9630A7
:1036A00008F0DFC199EA940F40ED480FAA964FAF9A
:1036B000AA974A3048F04FEB480F463008F0D5C182
:1036C0008753AA968FAFAA979295907FAA965FADDF
:1036D000AA97950F243131052CF4A5014E0D5F1DDD
:1036E000DA019C93BFEFEB1AFB0ADB018D91BD0160
:1036F0008D3019F48C918A3041F031962F5F3F4F15
:103700002115B1E03B0709F0BBCFEBE1F6E0DF01AB
:1037100040E051E01D9241505040E1F7E114F104C6
:1037200009F4B5C051E0E51AF10809F4B0C081E030
:103730008093050564E571E08EEB97E00E94C90176
:10374000B7018EEB97E00E94480B84E5E9E1F1E0D8
:10375000D40101900D928A95E1F77401D701EC91A3
:10376000EA0DFB2DF11D808111969C911197892303
:1037700009F485C114966D917C918091AD0790916B
:10378000AE070E94E70BF701628073807092910789
:1037900060929007F501818190E0B0E0A0E0B82F41
:1037A000AA2799278827428150E070E060E0BA019B
:1037B00055274427840F951FA61FB71F2481820F0A
:1037C000911DA11DB11D438150E070E060E0762F96
:1037D000652F542F4427840F951FA61FB71F809372
:1037E000750790937607A0937707B0937807F8E072
:1037F0006F16710408F05AC10E94DC0360938207BF
:1038000070938307809384079093850710927B07BA
:1038100010927D0710927C07D50115968C91159713
:1038200090E0982F882716962C91820F911D9093E7
:103830007A0780937907109205050E94DC036B01DB
:103840007C010E94DC036C197D098E099F09693B8C
:103850007B4081059105A8F340911C0550911D0501
:1038600060911E0570911F05C0900605D090070558
:10387000E0900805F09009050091060110910701FC
:10388000209108013091090181E00E94090E809188
:103890008E07882309F4A2C1E9988AE192E0909307
:1038A00005018093040110926F008091B307882373
:1038B00009F440C066E471E08091AD079091AE07D5
:1038C0000E94C9014091B5075091B6076091B707B2
:1038D0007091B8078091AD079091AE070E945E0B82
:1038E0008091B1079091B2070E94BC128091B107FC
:1038F0009091B2074091B5075091B6076091B70714
:103900007091B807DC0116960D911D912D913C9197
:103910001997401751076207730711F00E94710B46
:103920001092B3071092B5071092B6071092B7071E
:103930001092B8078091B407882371F167E371E0B2
:103940008091AD079091AE070E94C9014091B907DF
:103950005091BA076091BB077091BC078091AD0789
:103960009091AE070E945E0B4091B9075091BA0743
:103970006091BB077091BC078091B1079091B2072D
:103980000E94AB0A1092B9071092BA071092BB07B7
:103990001092BC071092B40710928E078FE090E04F
:1039A000909391078093900760E973E08091AD0751
:1039B0009091AE070E94E70B68EE73E080E090E024
:1039C0000E94AA03F1CF9E3040F42850310981E0D3
:1039D00001C0880F2A95EAF74FCB2E503109F7CF57
:1039E00068E171E00E94C901B601809112059091D1
:1039F00013050E94930A62E373E08091120590918F
:103A000013050E949E0CB701809112059091130539
:103A10000E94990A10E08DCC40911C0550911D0523
:103A200060911E0570911F058091180590911905F0
:103A3000A0911A05B0911B05481759076A077B0723
:103A400009F486CD82E195E00E94710B81CD8091D1
:103A5000AC07882309F4E7CD1092AC07A1CD99EC0F
:103A600022CEAA969FADAA971FCE4FE9480F4630A7
:103A700010F4875526CEAA969FAFAA9725CEF6E0DA
:103A8000EF0EF11CEA14FB0409F068CED5018C910D
:103A900083FF7CCE6DE271E08091AD079091AE071F
:103AA0000E948C0981E08093BD0770CEBDE06B164B
:103AB000710409F0C0CE90E080E00E94170CF5017F
:103AC000808191E0282F287083FF90E09093B307C6
:103AD00091E0382F347082FF90E09093B40781E03A
:103AE00080938E07222309F477C0D50115968C9117
:103AF00090E0B0E0A0E0B82FAA2799278827F50129
:103B0000468150E070E060E0BA0155274427840FF9
:103B1000951FA61FB71F2085820F911DA11DB11DE6
:103B2000478150E070E060E0762F652F542F4427E6
:103B3000840F951FA61FB71F8093B5079093B607F4
:103B4000A093B707B093B80729E0332309F473CEE5
:103B500030E0F501E20FF31F808190E0B0E0A0E0DB
:103B6000B82FAA2799278827E8E5F0E0EC0FFD1F7A
:103B7000E20FF31F4081840F911DA11DB11DE6E5E9
:103B8000F0E0EC0FFD1FE20FF31F408150E070E00A
:103B900060E0BA0155274427840F951FA61FB71F61
:103BA00047E550E04C0F5D1F240F351FF9014081A0
:103BB00050E070E060E0762F652F542F4427840F8B
:103BC000951FA61FB71F8093B9079093BA07A093BC
:103BD000BB07B093BC072FCE25E0B7CF41145104EB
:103BE00009F49BCC0E945A02882309F490CC0E94CD
:103BF00000008DCC85E991E09093BF078093BE07CC
:103C00008091F7049091F8048E5B974071F4E091F5
:103C1000D107F091D20790818091D30780958923B5
:103C200080831092F8041092F7040895FC0188270D
:103C30009927E89421912032E9F3293010F02E30B1
:103C4000C8F32B3241F02D3239F4689404C00E943D
:103C5000341E820F911D219120532A30C0F31EF48F
:103C6000909581959F4F08957AE0979F902D879F1B
:103C7000802D910D112408955058BB27AA270E942A
:103C8000541E0C94331F0E94251F38F00E942C1FD5
:103C900020F039F49F3F19F426F40C94221F0EF4FF
:103CA000E095E7FB0C941C1FE92F0E94441F58F37A
:103CB000BA17620773078407950720F079F4A6F511
:103CC0000C94661F0EF4E0950B2EBA2FA02D0B015D
:103CD000B90190010C01CA01A0011124FF27591B51
:103CE00099F0593F50F4503E68F11A16F040A22F57
:103CF000232F342F4427585FF3CF469537952795C8
:103D0000A795F0405395C9F77EF41F16BA0B620BC6
:103D1000730B840BBAF09150A1F0FF0FBB1F661F0D
:103D2000771F881FC2F70EC0BA0F621F731F841F50
:103D300048F4879577956795B795F7959E3F08F076
:103D4000B0CF9395880F08F09927EE0F9795879538
:103D500008950E94B01E6894B1110C94671F0895D5
:103D60000E944C1F88F09F5798F0B92F9927B751A0
:103D7000B0F0E1F0660F771F881F991F1AF0BA950F
:103D8000C9F714C0B13091F00E94661FB1E00895E8
:103D90000C94661F672F782F8827B85F39F0B93FDA
:103DA000CCF3869577956795B395D9F73EF49095C2
:103DB0008095709561957F4F8F4F9F4F0895E89440
:103DC00009C097FB3EF490958095709561957F4F63
:103DD0008F4F9F4F9923A9F0F92F96E9BB27939511
:103DE000F695879577956795B795F111F8CFFAF421
:103DF000BB0F11F460FF1BC06F5F7F4F8F4F9F4F52
:103E000016C0882311F096E911C0772321F09EE8AF
:103E1000872F762F05C0662371F096E8862F70E015
:103E200060E02AF09A95660F771F881FDAF7880FEF
:103E30009695879597F9089597F99F6780E870E0C0
:103E400060E008959FEF80EC089500240A94161610
:103E5000170618060906089500240A941216130678
:103E6000140605060895092E0394000C11F4882306
:103E700052F0BB0F40F4BF2B11F460FF04C06F5F22
:103E80007F4F8F4F9F4F089557FD9058440F551FF8
:103E900059F05F3F71F04795880F97FB991F61F0CC
:103EA0009F3F79F087950895121613061406551F43
:103EB000F2CF4695F1DF08C0161617061806991FAF
:103EC000F1CF86957105610508940895E894BB27A4
:103ED00066277727CB0197F9089597FB072E16F4ED
:103EE000009407D077FD09D00E94B41F07FC05D0CD
:103EF0003EF4909581959F4F0895709561957F4F01
:103F00000895A1E21A2EAA1BBB1BFD010DC0AA1F1A
:103F1000BB1FEE1FFF1FA217B307E407F50720F032
:103F2000A21BB30BE40BF50B661F771F881F991FAD
:103F30001A9469F760957095809590959B01AC01F6
:103F4000BD01CF010895EE0FFF1F0590F491E02D04
:103F500009940E94C81FA59F900DB49F900DA49F27
:103F6000800D911D11240895AA1BBB1B51E107C0B0
:103F7000AA1FBB1FA617B70710F0A61BB70B881FF9
:103F8000991F5A95A9F780959095BC01CD01089588
:103F9000A29FB001B39FC001A39F700D811D11248A
:103FA000911DB29F700D811D1124911D0895FB017B
:103FB00051915523A9F0BF01DC014D9145174111E5
:103FC000E1F759F4CD010190002049F04D914015E1
:103FD0004111C9F3FB014111EFCF81E090E001975E
:103FE0000895AEE0B0E0E7EFFFE10C94A0220D8968
:103FF0001E8986E08C831A8309838FEF9FE79E8357
:104000008D83AE01475E5F4F6F89788DCE0101963B
:104010000E9414202F813885020F131FF80110828F
:104020002E96E4E00C94BC22ABE0B0E0EAE1F0E2D2
:104030000C9492227C013B018A01FC0117821682BA
:10404000838181FFC8C1CE0101965C01F701938194
:10405000F30193FD859193FF81913F01882309F43A
:1040600053C1853239F493FD859193FF81913F01CE
:10407000853229F4B70190E00E940422E7CF912C09
:10408000212C312CFFE1F31538F08B3211F190F433
:10409000803209F1833229F137FC3CC020ED280F32
:1040A0002A3050F536FE20C08AE0989E200D11245B
:1040B000922E06C08D3291F0803371F7689430F8FB
:1040C000F30193FD859193FF81913F018111DACF37
:1040D00021C0689431F8689432F8F2CF689433F8CC
:1040E000EFCF689434F8ECCFEAE02E9E200D112437
:1040F000222E689435F8E4CF8E3229F436FC04C1C0
:10410000689436F8DDCF8C3619F4689437F8D8CF38
:104110008836B1F2982F9F7D95549330E0F0833626
:10412000A1F18337C1F1833509F063C02801F2E0C2
:104130004F0E511CF801C080D180692D70E036FC13
:1041400002C06FEF7FEFC6010E94EE214C01689420
:1041500037F882010AC00C5F1F4FFFE3F983882400
:104160008394912C6501E89437F833FE2DC0522CCE
:104170008114910471F5552009F468CFB70180E2EC
:1041800090E00E9404225A94F6CFF801808189833E
:104190000E5F1F4FE4CF2801F2E04F0E511CF801D3
:1041A000C080D180692D70E036FC02C06FEF7FEFD8
:1041B000C6010E94F9214C018201D5CFB70180E2EE
:1041C00090E00E9404222A942814190409F0B0F700
:1041D000CECFF60137FC859137FE81916F01B70193
:1041E00090E00E94042251105A94F1E08F1A910835
:1041F000BFCF843619F0893609F077C0F80137FE51
:104200006BC060817181828193810C5F1F4FF32DA0
:10421000FF763F2E97FF09C0909580957095619528
:104220007F4F8F4F9F4F689437F82AE030E0A50109
:104230000E943422C82ECA188C2C432C36FE0CC087
:10424000E89440F8C91440F434FE05C032FC03C0C1
:10425000F32DFE7E4F2E892C44FE95C0FE01EC0D01
:10426000F11D8081803309F087C0242D297E422EE4
:10427000842D8870582E43FC95C040FE8FC09C2C26
:10428000821418F42C0C922C981844FE91C0B7019B
:1042900080E390E00E94042242FE09C088E790E09B
:1042A00041FE02C088E590E0B7010E940422C914D3
:1042B00008F48AC0CA94D12C9FEFC91AD90ACA0C33
:1042C000DB1CF60182916F01B70190E00E9404228D
:1042D000AC14BD04B1F74FCF60817181072E000C83
:1042E000880B990B0E5F1F4F92CFD32CE894D4F814
:1042F0002AE030E0853739F1232D297FD22E8F3601
:1043000001F148F48835A9F0F701868197812B9651
:10431000E2E10C94AE22803749F08837A9F7D4FE49
:1043200002C06894D2F820E130E00DC06894D4F85F
:10433000F6CF34FE03C0822F8660D82E20E132E013
:1043400002C028E030E0F801D7FE0FC06081718123
:10435000828193810C5F1F4FA5010E943422C82ED9
:10436000CA183D2CE89437F867CF6081718190E0DE
:1043700080E00E5F1F4FF0CF42FC02C0839478CFE5
:104380008394839475CF842D867809F471CFF6CF0A
:10439000B70180E290E00E94042283948214C0F36B
:1043A000512C73CF522C5818821408F46ECFF8CFCA
:1043B000842D867809F47BCF8BE241FE80E247FCB6
:1043C0008DE2B70190E071CFB70180E390E00E94E9
:1043D00004229A946CCF8FEF9FEF99CFFC01059048
:1043E000615070400110D8F7809590958E0F9F1FF7
:1043F0000895FC016150704001900110D8F780953C
:1044000090958E0F9F1F08950F931F93CF93DF9367
:10441000182F092FEB018B8181FD09C01FEF0FEFD2
:10442000812F902FDF91CF911F910F91089582FFDF
:1044300014C02E813F818C819D81281739073CF45F
:10444000E881F981CF0101969983888310838E8159
:104450009F8101969F838E83E3CFE885F985812F25
:104460000995892BA1F3DACFFA01AA27283051F157
:10447000203181F1E8946F936E7F6E5F7F4F8F4F95
:104480009F4FAF4FB1E03ED0B4E03CD0670F781FF4
:10449000891F9A1FA11D680F791F8A1F911DA11DD9
:1044A0006A0F711D811D911DA11D20D009F4689412
:1044B0003F912AE0269F11243019305D3193DEF6BA
:1044C000CF010895462F4770405D4193B3E00FD070
:1044D000C9F7F6CF462F4F70405D4A3318F0495D5B
:1044E00031FD4052419302D0A9F7EACFB4E0A6953E
:1044F0009795879577956795BA95C9F70097610560
:10450000710508959B01AC010A2E069457954795B5
:1045100037952795BA95C9F7620F731F841F951FAA
:10452000A01D08952F923F924F925F926F927F92BB
:104530008F929F92AF92BF92CF92DF92EF92FF92B3
:104540000F931F93CF93DF93CDB7DEB7CA1BDB0B5F
:104550000FB6F894DEBF0FBECDBF09942A88398804
:1045600048885F846E847D848C849B84AA84B9840B
:10457000C884DF80EE80FD800C811B81AA81B98117
:10458000CE0FD11D0FB6F894DEBF0FBECDBFED012B
:10459000089511E0C4E4D1E004C0FE010E94A31F0D
:0C45A0002196C534D107C9F7F894FFCF6D
:1045AC000E071A021A0201000000000000000400AD
:1045BC0000050000070000090000800000920300C5
:1045CC00400400A20300200800B00301800100B5E4
:1045DC000301400500C70301200900D703011002A5
:1045EC0000DE0301080600F00301040A00000401C8
:1045FC00020300070401010700190402800B0029C3
:10460C000402400C00300400100D004004000000B7
:10461C00009002ED011D02DD024E022C0240020050
:10462C000000002206F5050B07CB05EE05DB05CCDB
:10463C0005000000007606ED010B07CB05D206EA5B
:10464C00065E0652656C6179204F66663A20004C16
:10465C006F52612057616B650052656C6179204F18
:10466C006E3A200052656C6179206F6E2053776929
:10467C0074636820626567696E73210052656D61B1
:10468C00696E696E673A00466C6F77204D616C6697
:10469C00756E6374696F6E006D6163207365742051
:1046AC006170706575692025730D0A006D6163205A
:1046BC00736574206170706B65792025730D0A0029
:1046CC0063006D61632073657420636C6173732088
:1046DC0025730D0A006D616320736574206472206C
:1046EC0025640D0A006D6163207365742063682076
:1046FC00646379636C6520006D6163206A6F696E19
:10470C00206F746161006E6F5F667265655F6368D0
:10471C000073696C656E740062757379006D61630A
:10472C005F7061757365640064656E6965640061D2
:10473C0063636570746564006D61632074782063D5
:10474C006E66200025303278006D61635F74785F8F
:10475C006F6B006D61635F6F6B00556E636F6E66A0
:10476C0069726D6564207061636B6574006D616363
:10477C0020747820756E636E6620006E6F74206FE7
:10478C006B206D6573736167652100617661696C7F
:10479C0061626C65436F6D3A20006136306264363D
:1047AC0037333835363065336632653738623164C5
:1047BC0030366465303231656238003730623364CC
:1047CC0035376564303032333737300053657475A4
:1047DC0070002D005265616420496E7465727661BB
:1047EC006C203A0020637263203A00556E636F6E42
:1047FC006669726D6564205061636B657473203AF1
:10480C0020004661696C656420436F6E6669726D49
:10481C006174696F6E73206265666F726520726574
:10482C006A6F696E203A20006D61635F72782000B8
:10483C002E0052656C6179204F6E2053776974633A
:10484C00680052656C6179204F6E2054696D65006B
:10485C0053544F500052656C61792032204F6E20BA
:10486C005377697463680052656C61792032204F0C
:10487C006E2054696D650053544F502032005265C0
:10488C006C61792033204F6E205377697463680014
:10489C0052656C61792033204F6E2054696D650030
:1048AC0053544F5020330052656C61792034204FA3
:1048BC006E205377697463680052656C617920349B
:1048CC00204F6E2054696D650053544F50203400B6
:1048DC0053544F5020414C4C2052454C415953009D
:0848EC00436F6E66696700006E
:107E0000112484B714BE81FFF0D085E080938100F7
:107E100082E08093C00088E18093C10086E0809377
:107E2000C20080E18093C4008EE0C9D0259A86E02C
:107E300020E33CEF91E0309385002093840096BBD3
:107E4000B09BFECF1D9AA8958150A9F7CC24DD24C4
:107E500088248394B5E0AB2EA1E19A2EF3E0BF2EE7
:107E6000A2D0813461F49FD0082FAFD0023811F036
:107E7000013811F484E001C083E08DD089C08234E0
:107E800011F484E103C0853419F485E0A6D080C0E4
:107E9000853579F488D0E82EFF2485D0082F10E0AE
:107EA000102F00270E291F29000F111F8ED06801E7
:107EB0006FC0863521F484E090D080E0DECF843638
:107EC00009F040C070D06FD0082F6DD080E0C81688
:107ED00080E7D80618F4F601B7BEE895C0E0D1E017
:107EE00062D089930C17E1F7F0E0CF16F0E7DF06D8
:107EF00018F0F601B7BEE89568D007B600FCFDCFD4
:107F0000A601A0E0B1E02C9130E011968C91119780
:107F100090E0982F8827822B932B1296FA010C0160
:107F200087BEE89511244E5F5F4FF1E0A038BF0790
:107F300051F7F601A7BEE89507B600FCFDCF97BE46
:107F4000E89526C08437B1F42ED02DD0F82E2BD052
:107F50003CD0F601EF2C8F010F5F1F4F84911BD097
:107F6000EA94F801C1F70894C11CD11CFA94CF0C13
:107F7000D11C0EC0853739F428D08EE10CD085E9AC
:107F80000AD08FE07ACF813511F488E018D01DD067
:107F900080E101D065CF982F8091C00085FFFCCF94
:107FA0009093C60008958091C00087FFFCCF809118
:107FB000C00084FD01C0A8958091C6000895E0E648
:107FC000F0E098E1908380830895EDDF803219F02E
:107FD00088E0F5DFFFCF84E1DECF1F93182FE3DFCA
:107FE0001150E9F7F2DF1F91089580E0E8DFEE27F6
:047FF000FF270994CA
:027FFE00040479
:0400000300007E007B
:00000001FF